:020000040800F2
:100000008435012039080008950800089508000883
:1000100095080008950800089508000800000000F1
:10002000000000000000000000000000950800082B
:1000300095080008000000009508000895080008D1
:10004000950800089508000895080008950800081C
:10005000950800089508000895080008950800080C
:1000600095080008950800089508000895080008FC
:1000700095080008950800089508000895080008EC
:1000800095080008950800089508000895080008DC
:1000900095080008950800089508000895080008CC
:1000A00095080008950800089508000895080008BC
:1000B000A11C00089508000895080008950800088C
:1000C000950800089508000895080008950800089C
:1000D00095080008950800083106000895080008F2
:1000E000950800089508000895080008950800087C
:1000F000950800089508000895080008950800086C
:10010000950800089508000895080008950800085B
:10011000950800089508000895080008950800084B
:10012000950800089508000895080008950800083B
:10013000950800089508000895080008950800082B
:10014000950800089508000895080008950800081B
:100150005D1D00089508000895080008950800082E
:1001600095080008950800089508000895080008FB
:1001700095080008950800089508000895080008EB
:10018000950800089508000880B58AB000AF78602F
:10019000396000237B6200233B620023FB61002364
:1001A000BB617B681B8A9BB27B627B6A23F44053F2
:1001B0007B623B68DB881A467B6A13437B627B6AFF
:1001C0009AB27B681A827B689B899BB27B627B6A4E
:1001D00023F4B05323F00C037B623B689A883B689E
:1001E0001B8913439AB23B685B8913439BB21A463F
:1001F0007B6A13437B627B6A9AB27B689A817B68D5
:100200009B8A9BB27B627B6A23F440737B623B6870
:100210009B891A467B6A13437B627B6A9AB27B682E
:100220009A8207F10803184600F04CFF7B68304AB9
:10023000934203D07B682F4A934202D17B693B6291
:1002400001E03B693B627B689B899BB21BB2002B40
:100250000CDA3A6A13469B0013449A001A443B682E
:100260001B685B00B2FBF3F3FB610BE03A6A1346D9
:100270009B0013449A001A443B681B689B00B2FB26
:10028000F3F3FB61FB691C4AA2FB03235B091B011F
:100290007B627B6A1B09642202FB03F3FA69D31AAF
:1002A000BB617B689B899BB21BB2002B0CDABB69DC
:1002B000DB003233104AA2FB03235B0903F0070380
:1002C0007A6A13437B620BE0BB691B0132330A4A33
:1002D000A2FB03235B0903F00F037A6A13437B62DB
:1002E0007B6A9AB27B681A8100BF2837BD4680BD01
:1002F00000100140001401401F85EB5180B483B011
:1003000000AF78600B46FB70FB78002B08D07B6851
:100310009B899BB243F400539AB27B689A8107E0B1
:100320007B689B899BB223F400539AB27B689A81C5
:1003300000BF0C37BD4680BC704780B483B000AFAF
:1003400078600B467B807B88C3F308039AB27B6896
:100350009A8000BF0C37BD4680BC704780B487B020
:1003600000AF78600B467B8013467B7000233B61B7
:100370000023FB600023BB6000237B617B687B6103
:100380007B88DBB25B09DBB23B617B8803F01F0338
:10039000FB600122FB6802FA03F3BB603B69012B9F
:1003A00003D17B690C337B6109E03B69022B03D1EC
:1003B0007B6910337B6102E07B6914337B617B785E
:1003C000002B06D07B697A691168BA680A431A6003
:1003D00006E07B697A691168BA68D2430A401A60FC
:1003E00000BF1C37BD4680BC704780B485B000AFED
:1003F00078600B467B800023FB737B681B889AB276
:100400007B8813409BB2002B02D00123FB7301E0D9
:100410000023FB73FB7B18461437BD4680BC704736
:1004200080B487B000AF78600B467B800023FB6010
:1004300000237B610023BB600023FB747B88DBB25D
:100440005B09DBB2BB607B8803F01F037B61012289
:100450007B6902FA03F37B61BB68012B07D17B68E0
:100460009B899BB21A467B6913407B6111E0BB6894
:10047000022B07D17B681B8A9BB21A467B6913400B
:100480007B6106E07B689B8A9BB21A467B691340BE
:100490007B617B881B0A9BB2FB600122FB6802FA2E
:1004A00003F3FB607B681B889BB21A46FB68134012
:1004B000FB607B69002B05D0FB68002B02D0012379
:1004C000FB7401E00023FB74FB7C18461C37BD461F
:1004D00080BC704780B485B000AF78600B467B80ED
:1004E0000023FB810023BB817B881B0AFB81FB89E6
:1004F000012202FA03F3BB81BB89DB439AB27B681A
:100500001A8000BF1437BD4680BC704780B586B0E6
:1005100000AF01214FF4003000F09AFE01210120CC
:1005200000F078FE0C233B6102233B750023BB7572
:100530000123FB7502237B7507F11003194616484A
:1005400000F0C2FE07220221134800F04AFF0722F2
:100550000321114800F045FF4FF4E1333B600023D5
:10056000BB800023FB8000233B810023BB810C2345
:100570007B813B4619460948FFF706FE012240F2FF
:1005800025510648FFF7EAFE01210448FFF7B6FEB1
:1005900000BF1837BD4680BD000002400044004047
:1005A00080B582B000AF0346FB7100BF80210848D0
:1005B000FFF71BFF0346002BF8D0FB799BB21946CF
:1005C0000348FFF7BAFE00BF0837BD4680BD00BF35
:1005D0000044004080B584B000AF78600023FB6029
:1005E00009E0FB687A6813441B781846FFF7D8FFC8
:1005F000FB680133FB60FB687A6813441B78002BAF
:10060000EFD100BF1037BD4680BD80B582B000AFCE
:1006100026233B7101237B710123BB710123FB71F5
:100620003B1D184601F0C0FB00BF0837BD4680BD2A
:1006300080B582B000AF40F225512748FFF7F0FEA9
:100640000346002B44D040F225512348FFF742FFD8
:10065000214B9B889BB2FB70FB78402B05D9FB7824
:100660005A2B02D8FB782033FB70FB780D2B1DD85A
:1006700000237B600BE0194A7B6813441B789BB214
:1006800019461548FFF759FE7B6801337B60144B10
:100690001B687A689A42EEDB114B00221A60FB78E5
:1006A0009BB219460C48FFF748FE09E00C4B1B684B
:1006B0000A49FA78CA540A4B1B680133084A136086
:1006C00000BF40210448FFF790FE0346002BF8D0FE
:1006D00000BF0837BD4680BD004400402400002014
:1006E0002000002080B582B000AF78600A217868D1
:1006F00000F004F800BF0837BD4680BD80B588B063
:1007000000AF78600B46FB700F23FB617B68002B0A
:1007100029D107F10802FB69134430221A70FB69E2
:10072000013BFB6139E0FA787B68B3FBF2F102FB35
:1007300001F29B1ABB61FB787A68B2FBF3F37B6032
:10074000194ABB6913441B7859B207F10802FB69C7
:1007500013440A461A70FB69013BFB61FB69002BDD
:1007600001D100237B607B68002BDCD115E0FB69A5
:100770000133FB6100BF80210C48FFF736FE0346C2
:10078000002BF8D007F10802FB69134493F90030FD
:100790009BB219460548FFF7D0FDFB690E2BE6DD3D
:1007A00000BF2037BD4680BD00000020004400404F
:1007B00080B582B000AFFF23FB7120210748FFF70F
:1007C00014FE0346012B03D1044B9B889BB2FB71A3
:1007D000FB7918460837BD4680BD00BF0044004085
:1007E00080B582B000AF78603960FFF7E1FF034663
:1007F0001A467B681A707B681B78FF2B17D07B68C2
:100800001B780A2B13D03B68002B04D07B681B7825
:100810001846FFF7C5FE7B681B780D2B03D17B685C
:1008200000221A7005E07B6801337B60DDE700BFC2
:10083000DBE70837BD4680BD80B582B000AF104B06
:100840007B60104B3B6007E03B681A1D3A607A689A
:10085000111D796012681A603B680B4A9342F3D30A
:100860000A480B494FF000028842B8BF40F8042BF9
:10087000FADB00F013F800BF0837BD4680BD00BFAB
:10088000209F000800000020200000202000002001
:10089000842D012080B400AFFEE7000080B59EB03B
:1008A00004AF00F0E7FD01F08DF8002000F0DCF966
:1008B000FFF72CFEFFF7A9FE022302930323019307
:1008C000042300930123124A32210A2000F024F865
:1008D0000120FFF707FF0020FFF704FF0B20FFF7C1
:1008E00001FF0020FFF7FEFE4FF4FA7000F0E0F980
:1008F0003B467B660121786EFFF772FF786EFFF74B
:1009000069FE0448FFF766FE642000F0D1F9F1E7C4
:100910002C8400086084000880B58AB000AFBA60FB
:100920001A460346FB810B46BB811346FB7100232D
:10093000FB84002387F82530B86801F0C1FC03462A
:100940003B830C23FB820723BB82002387F82430E0
:100950004CE1FA89BB8A97F8301001FB03F397F852
:100960002410013101FB03F31A4497F83030B98A9F
:1009700001FB03F397F8251001FB03F303F5A073C4
:100980009A4206DBFB8C0133FB8497F8243087F80E
:10099000253097F82430BA6813441B78184600F0C5
:1009A000A7F903469BB2FA8A12FB03F37B8497F8FC
:1009B00030309BB2FA8A12FB03F39BB2BA89D31A86
:1009C0009BB2013B3B8406E10023FB83F3E0002361
:1009D000BB83E9E000237B83DCE097F830309BB2F7
:1009E000BA8B12FB03F39AB2FB8913449AB27B8B46
:1009F000D31A9AB297F830309BB2B98A11FB03F33D
:100A000099B297F824309BB211FB03F39BB21344C5
:100A10009AB297F830309BB2B98A11FB03F399B2BE
:100A200097F825309BB211FB03F39BB2D31A7B825C
:100A30003A8CFB8B13449AB297F830309BB2F98C06
:100A400011FB03F39BB2F98A11FB03F39BB213442E
:100A50003B82FB79012B4BD197F83830022B18D011
:100A6000032B2BD0012B43D17B8C664AD35C1A46D7
:100A7000BB8BC3F1080342FA03F303F00103002B1D
:100A800031D097F83420398A7B8A184600F0C6F8AE
:100A900029E07B8C5C4AD35C1A46BB8BC3F108030C
:100AA00042FA03F303F00103002B1ED097F8342021
:100AB000398A7B8A184600F0B1F816E07B8C534ADD
:100AC000D35C1A46BB8BC3F1080342FA03F303F06D
:100AD0000103002B0BD097F83420398A7B8A184603
:100AE00000F09CF803E000BF02E000BF00E000BFA0
:100AF000FB79022B4BD197F83830022B18D0032BFF
:100B00002BD0012B43D17B8C414AD35C1A46BB8B43
:100B1000C3F1080342FA03F303F00103002B31D0C1
:100B200097F83420398A7B8A184600F077F829E054
:100B30007B8C384AD35C1A46BB8BC3F1080342FA5C
:100B400003F303F00103002B1ED097F83420398AF9
:100B50007B8A184600F062F816E07B8C2E4AD35C44
:100B60001A46BB8BC3F1080342FA03F303F00103F7
:100B7000002B0BD097F83420398A7B8A184600F076
:100B80004DF803E000BF02E000BF00E000BF7B8B38
:100B900001337B8397F830309BB27A8B9A42FFF413
:100BA0001CAFBB8B0133BB83BB8B072B7FF612AF14
:100BB000FB8B0133FB8397F830309BB2FA8B9A4260
:100BC000FFF405AF7B8C01337B8497F830309AB209
:100BD0003B8C13443B843A8CBB89013B9A42FFF621
:100BE000F3AE97F82430013387F8243097F8243097
:100BF0009BB23A8B9A423FF6ACAE00BF2837BD4657
:100C000080BD00BF68840008508D0008DC880008A3
:100C1000C491000838960008AC9A000880B483B0EC
:100C200000AF0346FB800B46BB801346FB70FB887E
:100C3000B3F5A07F0FD2BB88EF2B0CD8BA88134630
:100C40009B0013449B011A44FB8813440549FA781E
:100C5000CA54002300E0012318460C37BD4680BC6F
:100C6000704700BF9400002080B584B000AF0346F9
:100C7000FB710023FB8112E00023BB8108E0FA79BD
:100C8000F989BB891846FFF7C9FFBB890133BB81CE
:100C9000BB89B3F5A07FF2D3FB890133FB81FB89CC
:100CA000EF2BE9D9002318461037BD4680BD000060
:100CB00080B485B000AF0346FB800023FB81FB8836
:100CC0001B01FB8007E0094B1B88B3F5FA7F02D1BB
:100CD000FB890133FB81FA89FB889A42F3D3002315
:100CE00018461437BD4680BC704700BF88000020FE
:100CF00080B485B000AF0346FB71FB79203B5E2BCF
:100D000000F2D98101A252F823F000BF890E000839
:100D10008F0E0008950E00089B0E0008A10E00081B
:100D2000A70E0008AD0E0008B7100008B30E0008AB
:100D3000B90E0008BF0E0008C50E0008CB0E000853
:100D4000D10E0008D70E0008DD0E0008E30E0008E3
:100D5000E90E0008EF0E0008F50E0008FB0E000873
:100D6000010F0008070F00080D0F0008130F0008FF
:100D7000190F00081F0F0008250F00082B0F00088F
:100D8000310F0008370F00083D0F0008430F00081F
:100D9000490F00084F0F0008550F00085B0F0008AF
:100DA000610F0008670F00086D0F0008730F00083F
:100DB000790F00087F0F0008850F00088B0F0008CF
:100DC000910F0008970F00089D0F0008A30F00085F
:100DD000A90F0008AF0F0008B50F0008BB0F0008EF
:100DE000C10F0008C70F0008CD0F0008D30F00087F
:100DF000D90F0008DF0F0008E50F0008B710000842
:100E0000EB0F0008F10F0008F70F0008FD0F0008B6
:100E100003100008091000080F1000081510000842
:100E20001B10000821100008271000082D100008D2
:100E300033100008391000083F1000084510000862
:100E40004B10000851100008571000085D100008F2
:100E500063100008691000086F1000087510000882
:100E60007B10000881100008871000088D10000812
:100E700093100008991000089F100008A5100008A2
:100E8000AB100008B11000080023FB7313E101232D
:100E9000FB7310E10223FB730DE10323FB730AE1F3
:100EA0000423FB7307E10523FB7304E10623FB73B3
:100EB00001E10823FB73FEE00923FB73FBE00A2337
:100EC000FB73F8E00B23FB73F5E00C23FB73F2E0FC
:100ED0000D23FB73EFE00E23FB73ECE00F23FB739A
:100EE000E9E01023FB73E6E01123FB73E3E0122338
:100EF000FB73E0E01323FB73DDE01423FB73DAE004
:100F00001523FB73D7E01623FB73D4E01723FB7381
:100F1000D1E01823FB73CEE01923FB73CBE01A2337
:100F2000FB73C8E01B23FB73C5E01C23FB73C2E00B
:100F30001D23FB73BFE01E23FB73BCE01F23FB7369
:100F4000B9E02023FB73B6E02123FB73B3E0222337
:100F5000FB73B0E02323FB73ADE02423FB73AAE013
:100F60002523FB73A7E02623FB73A4E02723FB7351
:100F7000A1E02823FB739EE02923FB739BE02A2337
:100F8000FB7398E02B23FB7395E02C23FB7392E01B
:100F90002D23FB738FE02E23FB738CE02F23FB7339
:100FA00089E03023FB7386E03123FB7383E0322337
:100FB000FB7380E03323FB737DE03423FB737AE023
:100FC0003523FB7377E03623FB7374E03723FB7321
:100FD00071E03823FB736EE03923FB736BE03A2337
:100FE000FB7368E03B23FB7365E03D23FB7362E02A
:100FF0003E23FB735FE03F23FB735CE04023FB7306
:1010000059E04123FB7356E04223FB7353E0432333
:10101000FB7350E04423FB734DE04523FB734AE030
:101020004623FB7347E04723FB7344E04823FB73ED
:1010300041E04923FB733EE04A23FB733BE04B2333
:10104000FB7338E04C23FB7335E04D23FB7332E038
:101050004E23FB732FE04F23FB732CE05023FB73D5
:1010600029E05123FB7326E05223FB7323E0532333
:10107000FB7320E05423FB731DE05523FB731AE040
:101080005623FB7317E05723FB7314E05823FB73BD
:1010900011E05923FB730EE05A23FB730BE05B2333
:1010A000FB7308E05C23FB7305E05D23FB7302E048
:1010B0005E23FB7300BFFB7B18461437BD4680BC24
:1010C000704700BF80B489B000AF78600023BB6177
:1010D00000237B610023FB6102233B610023FB6053
:1010E0000223BB60474B9B6803F00C03BB61BB69E9
:1010F000042B07D0082B09D0002B3DD17B68424A36
:101100001A603DE07B68414A1A6039E03D4B5B68FC
:101110009B0D03F00103FB603A4B5B6803F03F0358
:10112000BB60FB68002B0CD0384ABB68B2FBF3F302
:10113000344A52689209C2F3080202FB03F3FB61CE
:101140000BE0314ABB68B2FBF3F32E4A52689209B6
:10115000C2F3080202FB03F3FB612A4B5B681B0C22
:1011600003F0030301335B003B61FA693B69B2FBA7
:10117000F3F27B681A6003E07B68234A1A6000BFC1
:10118000204B9B6803F0F003BB61BB691B09BB618B
:101190001F4ABB6913441B78DBB27B617B681A680A
:1011A0007B69DA407B685A60164B9B6803F4E05316
:1011B000BB61BB699B0ABB61154ABB6913441B78C1
:1011C000DBB27B617B685A687B69DA407B689A6036
:1011D0000C4B9B6803F46043BB61BB695B0BBB6159
:1011E0000B4ABB6913441B78DBB27B617B685A688E
:1011F0007B69DA407B68DA6000BF2437BD4680BC7B
:10120000704700BF003802400024F40000127A004A
:101210001000002080B483B000AF78600B46FB70F4
:10122000FB78002B06D00949084B1A6B7B681343E7
:101230000B6306E00549054B1A6B7B68DB431340E3
:101240000B6300BF0C37BD4680BC704700380240BE
:1012500080B483B000AF78600B46FB70FB78002B46
:1012600006D00949084B1A6C7B6813430B6406E0EF
:101270000549054B1A6C7B68DB4313400B6400BFC8
:101280000C37BD4680BC70470038024080B483B044
:1012900000AF78600B46FB70FB78002B06D0094945
:1012A000084B5A6C7B6813434B6406E00549054BB9
:1012B0005A6C7B68DB4313404B6400BF0C37BD4660
:1012C00080BC70470038024080B487B000AF7860BF
:1012D000396000237B6100233B610023FB60002316
:1012E0007B6176E001227B6902FA03F33B613B6894
:1012F0001A683B691340FB60FA683B699A4265D102
:101300007B681A687B695B00032101FA03F3DB4306
:101310001A407B681A607B681A683B681B7919461B
:101320007B695B0001FA03F31A437B681A603B6830
:101330001B79012B03D03B681B79022B2ED17B68D4
:101340009A687B695B00032101FA03F3DB431A40CF
:101350007B689A607B689A683B685B7919467B6911
:101360005B0001FA03F31A437B689A607B685A6852
:101370007B699BB2194601238B40DB431A407B6893
:101380005A607B685B683A68927911467A6992B2D2
:1013900001FA02F292B21A437B685A607B68DA68FB
:1013A0007B699BB25B00032101FA03F3DB431A4024
:1013B0007B68DA607B68DA683B68DB7919467B69B1
:1013C0005B0001FA03F31A437B68DA607B6901333F
:1013D0007B617B690F2B85D900BF1C37BD4680BC64
:1013E000704780B485B000AF78600B467B801346B1
:1013F0007B700023FB600023BB607A787B8803F05E
:1014000007039B0002FA03F3FB607B88DB089BB2B7
:1014100018467B88DB089BB21A467B68083253F873
:1014200022207B8803F007039B000F2101FA03F3BE
:10143000DB4302EA03017B6800F1080243F8221053
:101440007B88DB089BB21A467B68083253F822205F
:10145000FB681343BB607B88DB089BB21A467B6842
:101460000832B96843F8221000BF1437BD4680BC6B
:101470007047000080B500AF124A124B1B6843F062
:10148000010313600F4B00229A600E4A0D4B1B683C
:1014900023F0847323F4803313600A4B0A4A5A60A2
:1014A000084A084B1B6823F480231360054B002275
:1014B000DA6000F00DF8054B4FF000629A6000BF53
:1014C00080BD00BF003802401030002400ED00E075
:1014D00080B483B000AF00237B6000233B60354ABB
:1014E000344B1B6843F480331360324B1B6803F4A6
:1014F00000333B607B6801337B603B68002B03D18A
:101500007B68B3F5A06FF0D12A4B1B6803F400335E
:10151000002B02D001233B6001E000233B603B68CD
:10152000012B42D1234A234B1B6C43F0805313649D
:10153000214A214B1B6843F4804313601D4A1D4B15
:101540009B6893601B4A1B4B9B6843F4004393606A
:10155000184A184B9B6843F4A0539360154B174AE5
:101560005A60144A134B1B6843F08073136000BF2A
:10157000104B1B6803F00073002BF9D0104B40F2A6
:1015800005621A600B4A0B4B9B6823F003039360C0
:10159000084A084B9B6843F00203936000BF054B69
:1015A0009B6803F00C03082BF9D100BF0C37BD4634
:1015B00080BC70470038024000700040085440076B
:1015C000003C024080B483B000AF78607B681B6849
:1015D00023F001027B681A607B6800221A607B6836
:1015E00000225A607B6800229A607B680022DA60E1
:1015F0007B6800221A617B6821225A617B68454A18
:10160000934203D1444B3D229A607EE07B68434A7B
:10161000934204D1404B4FF474629A6075E07B684A
:101620003F4A934204D13C4B4FF474129A606CE0F1
:101630007B683C4A934204D1374B4FF074629A6006
:1016400063E07B68384A934203D1334B374ADA6010
:101650005BE07B68364A934203D12F4B354ADA6010
:1016600053E07B68344A934203D12B4B334ADA6010
:101670004BE07B68324A934204D1274B4FF03D52F6
:10168000DA6042E07B682F4A934203D12E4B3D2221
:101690009A603AE07B682D4A934204D12A4B4FF47A
:1016A00074629A6031E07B68294A934204D1264BE8
:1016B0004FF474129A6028E07B68264A934204D162
:1016C000214B4FF074629A601FE07B68224A93427C
:1016D00003D11D4B154ADA6017E07B681F4A93421D
:1016E00003D1194B134ADA600FE07B681C4A93421E
:1016F00003D1154B114ADA6007E07B68194A93421F
:1017000003D1114B4FF03D52DA6000BF0C37BD469C
:1017100080BC7047106002400060024028600240B8
:101720004060024058600240706002403D0000206E
:1017300088600240400F0020A060024000003D2071
:10174000B860024010640240006402402864024015
:101750004064024058640240706402408864024061
:10176000A0640240B864024080B485B000AF7860E5
:1017700039600023FB607B681B68FB60FA68244BC0
:101780001340FB603B681A683B68DB681A433B68A0
:101790005B691A433B689B691A433B68DB691A43E0
:1017A0003B681B6A1A433B685B6A1A433B689B6A47
:1017B0001A433B685B6B1A433B689B6B1343FA68A5
:1017C0001343FB607B68FA681A607B685B69FB60A7
:1017D000FB6823F00703FB603B68DA6A3B681B6B1E
:1017E0001343FA681343FB607B68FA685A613B68ED
:1017F0001A697B685A603B685A687B689A603B68E4
:101800009A687B68DA6000BF1437BD4680BC7047B9
:101810003F801CF080B483B000AF78600B46FB7053
:10182000FB78002B06D07B681B6843F001027B68C5
:101830001A6005E07B681B6823F001027B681A6070
:1018400000BF0C37BD4680BC704780B485B000AF88
:10185000F860B9601346FB71BB6803F08003002B8E
:101860000FD0FB79002B06D0FB685B6943F0800248
:10187000FB685A6105E0FB685B6923F08002FB6846
:101880005A61BB68802B14D0FB79002B08D0FB6811
:101890001A68BB6803F01E031A43FB681A6008E06D
:1018A000FB681A68BB6803F01E03DB431A40FB6841
:1018B0001A6000BF1437BD4680BC704780B487B043
:1018C00000AF786039600023FB750023FB600023C4
:1018D000BB607B68214A934202D8214B3B6101E007
:1018E000204B3B613B6823F0F02323F0C313002B14
:1018F0000AD03B68DB0A03F01E03FB607B681A68B2
:10190000FB681340BB6004E07B685B6903F0800305
:10191000BB603B6803F00053002B03D03B695B685E
:10192000FB6002E03B691B68FB60FB6823F0F0236F
:1019300023F08213FB60FA683B681340002B05D04C
:10194000BB68002B02D00123FB7501E00023FB756F
:10195000FB7D18461C37BD4680BC70470F640240B3
:10196000006002400064024080B485B000AF78603F
:1019700039607B68104A934202D8104BFB6001E04B
:101980000F4BFB603B6803F00053002B07D03B6814
:1019900023F0F02323F08213FA68D36006E03B685B
:1019A00023F0F02323F08213FA68936000BF14370A
:1019B000BD4680BC704700BF0F640240006002401B
:1019C0000064024080B582B000AF1B4B00221A8039
:1019D000194B00225A60184B00229A600023BB80EA
:1019E00017E00023FB800DE0BA8813469B001344E8
:1019F0009B011A44FB881344104A0021D154FB88F0
:101A00000133FB80FB88B3F5A07FEDD9BB880133A0
:101A1000BB80BB88EF2BE4D900F014F800F066F827
:101A200000F0F6F800F0C8F8054B1B68024A936016
:101A300000BF0837BD4680BD88000020940000200C
:101A40008864024080B582B000AF01211020FFF70A
:101A5000E1FB4FF47F433B6001233B710023BB71EB
:101A60000123FB7103237B713B4619461D48FFF799
:101A70002BFC1C4B4FF47F425A8301210220FFF7BD
:101A8000C9FB4FF400633B6002233B7103237B716E
:101A90000023BB710123FB713B4619461248FFF737
:101AA00013FC01220B211048FFF79BFC01210220AF
:101AB000FFF7B0FB4FF480533B6001233B710023E1
:101AC000BB710123FB7103237B713B46194606481A
:101AD000FFF7FAFB044B4FF480521A8300BF08371C
:101AE000BD4680BD001002400004024080B588B0B1
:101AF00000AF01210120FFF7C9FB0B23BB610023CD
:101B0000BB820023BB830023FB8207F11403194629
:101B1000284800F0ABF901210120FFF799FB40F6BE
:101B20006B23BB610023BB820023BB830023FB82AA
:101B300007F1140319464FF0804000F097F9602335
:101B40003B8001237B804FF4D273BB600223BB81B7
:101B50003B4619464FF0804000F030FA08214FF024
:101B6000804000F017FB60233B8001237B804FF413
:101B7000A073BB600223BB813B4619464FF08040F7
:101B800000F0A2FA08214FF0804000F01EFB012176
:101B9000084800F0D5F901214FF0804000F0D0F95D
:101BA00001214FF0804000F0EAF900BF2037BD4628
:101BB00080BD00BF0000014080B582B000AF0122AF
:101BC00010211248FFF741FE44233B7100237B7133
:101BD0000023BB710123FB713B1D184600F0E4F8A4
:101BE000012208214FF0804000F00CFB1C233B71C8
:101BF00000237B710023BB710123FB713B1D184641
:101C000000F0D2F800BF0837BD4680BD88640240AE
:101C100080B590B000AF01214FF48000FFF7FAFAD1
:101C200000211B48FFF7F6FD1948FFF7CBFC4FF0EA
:101C300040637B60174BBB60174BFB6040233B61ED
:101C400040F241137B610023BB614FF48063FB6171
:101C500000233B6200237B620023BB624FF44033CE
:101C6000FB6200233B6301237B630023BB630023F0
:101C7000FB633B1D19460648FFF776FD01224FF432
:101C80008071064800F0F1FA00BF4037BD4680BDC4
:101C900088640240151002409400002000000140BA
:101CA00080B500AF08214FF0804000F0CEFA264BFF
:101CB0001B8801339AB2244B1A80234B1B88B3F53F
:101CC000037F05D9204B00221A80204A1E4B5A6000
:101CD0001D4B1B88012B04D81D4B4FF480525A8397
:101CE00003E01B4B4FF480521A83174B1B88232BA6
:101CF00027D9154B1B8840F20222934221D8154A5E
:101D0000114B9B681360134A0F4B5B68D360124AF8
:101D1000114B1B889BB243F001039BB213800D4A09
:101D20000C4B1B6843F001031360074B1B8803F047
:101D30000103002B05D0044B5B6803F24113024AF8
:101D4000536000BF80BD00BF8800002094000020C9
:101D500000040240886402400000014080B500AFEA
:101D60000D490E48FFF7AAFD0346002B12D00A4981
:101D70000A48FFF7F9FD0A4A094B1B889BB223F07A
:101D800001039BB21380054B00221A60054B4FF4F0
:101D90007F425A8300BF80BD0088002088640240D3
:101DA000000001400010024080B485B000AF7860B0
:101DB0000023FB730023BB730F237B737B68DB78EB
:101DC000002B39D0274BDB68DB431B0ADBB203F067
:101DD0000703FB73FB7BC3F10403BB737A7BFB7BC1
:101DE00042FA03F37B737B685B781A46BB7B02FA8B
:101DF00003F3FB737B689A787B7B1340DAB2FB7B3F
:101E00001343FB73FB7B1B01FB73174A7B681B7837
:101E10001344FA7B83F80023134A7B681B785B0921
:101E2000DBB218467B681B7803F01F03012101FA1F
:101E300003F342F820300FE00B497B681B785B0905
:101E4000DBB218467B681B7803F01F0301229A401F
:101E500000F1200341F8232000BF1437BD4680BCA9
:101E6000704700BF00ED00E000E100E080B485B005
:101E700000AF786039600023FB817B681B88FB81A1
:101E80007B68284A934213D07B68274A93420FD03D
:101E90007B68B3F1804F0BD07B68244A934207D014
:101EA0007B68234A934203D07B68224A934208D13D
:101EB000FB8923F07003FB813B685A88FB8913433D
:101EC000FB817B681C4A93420CD07B681B4A93427F
:101ED00008D0FB8923F44073FB813B681A89FB8996
:101EE0001343FB817B68FA891A803B685A687B68D8
:101EF000DA623B681A887B681A857B68094A9342D4
:101F000003D07B68084A934204D13B689B7A9AB21B
:101F10007B681A867B6801229A8200BF1437BD460F
:101F200080BC7047000001400004014000040040F4
:101F300000080040000C0040001000400014004069
:101F400080B483B000AF78600B46FB70FB78002B49
:101F500008D07B681B889BB243F080039AB27B68F1
:101F60001A8007E07B681B889BB223F080039AB23B
:101F70007B681A8000BF0C37BD4680BC704780B4B8
:101F800083B000AF78600B46FB70FB78002B08D065
:101F90007B681B889BB243F001039AB27B681A806E
:101FA00007E07B681B889BB223F001039AB27B6831
:101FB0001A8000BF0C37BD4680BC704780B485B026
:101FC00000AF7860396000237B810023FB81002310
:101FD000BB817B681B8C9BB223F480739AB27B68B5
:101FE0001A847B681B8CFB817B689B88BB817B6828
:101FF0009B8B7B817B8923F070037B817B8923F022
:1020000003037B813B681A887B8913437B81FB89AF
:1020100023F40073FB813B689B891B029AB2FB8906
:102020001343FB813B685B881B029AB2FB89134315
:10203000FB817B68224A934203D07B68214A93420A
:102040002BD1FB8923F40063FB813B68DB891B02F6
:102050009AB2FB891343FB81FB8923F48063FB81E4
:102060003B689B881B029AB2FB891343FB81BB89A7
:1020700023F48053BB81BB8923F40053BB813B68AD
:102080001B8A1B019AB2BB891343BB813B685B8AE5
:102090001B019AB2BB891343BB817B68BA899A80C2
:1020A0007B687A899A833B689A687B68DA637B6885
:1020B000FA891A8400BF1437BD4680BC704700BF40
:1020C000000001400004014080B485B000AF78609A
:1020D00039600023BB8100237B810023FB817B6867
:1020E0001B8C9BB223F480539AB27B681A847B6862
:1020F0001B8C7B817B689B88FB817B689B8BBB8176
:10210000BB8923F4E043BB81BB8923F44073BB81CB
:102110003B681B881B029AB2BB891343BB817B8936
:1021200023F400537B813B689B891B039AB27B8914
:1021300013437B813B685B881B039AB27B89134303
:102140007B817B68114A934203D07B68104A93429B
:102150000AD1FB8923F48043FB813B681B8A9B01E6
:102160009AB2FB891343FB817B68FA899A807B686A
:10217000BA899A833B689A687B681A647B687A8913
:102180001A8400BF1437BD4680BC70470000014070
:102190000004014080B485B000AF78600B467B80BE
:1021A0000023FB817B689B8BFB81FB8923F0080369
:1021B000FB81FA897B881343FB817B68FA899A83C8
:1021C00000BF1437BD4680BC704780B485B000AFF7
:1021D00078600B467B800023FB817B689B8BFB81B7
:1021E000FB8923F40063FB817B881B029AB2FB8985
:1021F0001343FB817B68FA899A8300BF1437BD467D
:1022000080BC704780B483B000AF78600B467B80A1
:1022100013467B707B78002B08D07B689B899AB231
:102220007B8813439AB27B689A8109E07B689B891B
:102230009AB27B88DB439BB213409AB27B689A8147
:1022400000BF0C37BD4680BC704780B483B000AF80
:1022500078600B467B807B88DB439AB27B681A826E
:1022600000BF0C37BD4680BC704780B483B000AF60
:1022700078600B467B8013467B707B78002B08D000
:102280007B689B899AB27B8813439AB27B689A8158
:1022900009E07B689B899AB27B88DB439BB2134041
:1022A0009AB27B689A8100BF0C37BD4680BC7047EC
:1022B000000000000000000000000000000000001E
:1022C00090F800F06DE9024520F007016FF0000C76
:1022D00010F0070491F820F040F049804FF000041E
:1022E0006FF00700D1E9002391F840F000F10800F9
:1022F00082FA4CF2A4FA8CF283FA4CF3A2FA8CF331
:102300004BBBD1E9022382FA4CF200F10800A4FA97
:102310008CF283FA4CF3A2FA8CF3E3B9D1E90423EB
:1023200082FA4CF200F10800A4FA8CF283FA4CF322
:10233000A2FA8CF37BB9D1E9062301F1200182FADC
:102340004CF200F10800A4FA8CF283FA4CF3A2FAE2
:102350008CF3002BC6D0002A04BF04301A4612BAF0
:10236000B2FA82F2FDE8024500EBD2007047D1E9F3
:10237000002304F00305C4F100004FEAC50514F082
:10238000040F91F840F00CFA05F562EA05021CBF53
:1023900063EA050362464FF00004A9E740004000ED
:1023A000000000000000000000000000000000002D
:1023B000000000000000000000004448686C8C8CA5
:1023C0008C8C6C6848440000000000000000000095
:1023D00000000000000000000000000000000000FD
:1023E00000000000000000000000000000000000ED
:1023F0000000000000004468B1D5F9F9F9F9F9F9D5
:10240000F9F9F9F9F9F9D5B16844000000000000C4
:1024100000000000000000000000000000000000BC
:1024200000000000000000000000000000000000AC
:102430000000000068B1F9F9F9F9F9F9F9F9F9F9C9
:10244000F9F9F9F9F9F9F9F9F9F9B16800000000B9
:10245000000000000000000000000000000000007C
:10246000000000000000000000000000000000006C
:1024700000448CD5F9F9F9F9F9F9F9F9F9F9F9F90B
:10248000F9F9F9F9F9F9F9F9F9F9F9F9F58C4400DB
:10249000000000000000000000000000000000003C
:1024A000000000000000000000000000000000002C
:1024B0006CF5F9F9F9F9F9F9F9F9F9F9F9F9F9F91D
:1024C000F9F9F9F9F9F9F9F9F9F9F9F9F9F9F56C0D
:1024D00000000000000000000000000000000000FC
:1024E000000000000000000000000000000048D5CF
:1024F000F9F9F9F9F9F9F9F9F9F9F9F9F9F9F9F94C
:10250000F9F9F9F9F9F9F9F9F9F9F9F9F9F9F9F93B
:10251000D54800000000000000000000000000009E
:10252000000000000000000000000000008CF9F92D
:10253000F9F9F9F9F9F9F9F9F9F9F9F9F9F9F9F90B
:10254000F9F9F9F9F9F9F9F9F9F9F9F9F9F9F9F9FB
:10255000F9F98C00000000000000000000000000FD
:10256000000000000000000000000044B1F9F9F98B
:10257000F9F9F9F9F9F9F9F9F9F9F9F9F9F9F9F9CB
:10258000F9F9F9F9F9F9F9F9F9F9F9F9F9F9F9F9BB
:10259000F9F9F9B14400000000000000000000005B
:1025A0000000000000000000000044D5F9F9F9F92E
:1025B000F9F9F9F9F9F9F9F9F9F9F9F9F9F9F9F98B
:1025C000F9F9F9F9F9F9F9F9F9F9F9F9F9F9F9F97B
:1025D000F9F9F9F9D54400000000000000000000FE
:1025E00000000000000000000044F5F9F9F9F9F9D5
:1025F000F9F9F9F9F9F9F9F9F9F9F9F9F9F9F9F94B
:10260000F9F9F9F9F9F9F9F9F9F9F9F9F9F9F9F93A
:10261000F9F9F9F9F9F544000000000000000000A4
:10262000000000000000000044F5F9F9F9F9F9F99B
:10263000F9F9F9F9F9F9F9F9F9F9F9F9F9F9F9F90A
:10264000F9F9F9F9F9F9F9F9F9F9F9F9F9F9F9F9FA
:10265000F9F9F9F9F9F9F54400000000000000006B
:102660000000000000000044D5F9F9F9F9F9F9F982
:10267000F9F9F9F9F9F9F9F9F9F9F9F9F9F9F9F9CA
:10268000F9F9F9F9F9F9F9F9F9F9F9F9F9F9F9F9BA
:10269000F9F9F9F9F9F9F9D5440000000000000052
:1026A00000000000000000B1F9F9F9F9F9F9F9F9B1
:1026B000F9F9F9F9F9F9F9F9F9F9F9F9F9F9F9F98A
:1026C000F9F9F9F9F9F9F9F9F9F9F9F9F9F9F9F97A
:1026D000F9F9F9F9F9F9F9F9B10000000000000081
:1026E0000000000000008CF9F9F9F9F9F9F9F9F99D
:1026F000F9F9F9F9F9F9F9F9F9F9F9F9F9F9F9F94A
:10270000F9F9F9F9F9F9F9F9F9F9F9F9F9F9F9F939
:10271000F9F9F9F9F9F9F9F9F98C0000000000006C
:10272000000000000048F9F9F9F9F9F9F9F9F9F9A7
:10273000F9F9F9F9F9F9F9F9F9F9F9F9F9F9F9F909
:10274000F9F9F9F9F9F9F9F9F9F9F9F9F9F9F9F9F9
:10275000F9F9F9F9F9F9F9F9F9F948000000000077
:102760000000000000D5F9F9F9F9F9F9F9F9F9F9DA
:10277000F9F9F9F9F9F9F9F9F9F9F9F9F9F9F9F9C9
:10278000F9F9F9F9F9F9F9F9F9F9F9F9F9F9F9F9B9
:10279000F9F9F9F9F9F9F9F9F9F9D50000000000AA
:1027A000000000006CF9F9F9F9F9F9F9F9F9F9F90A
:1027B000F9F9F9F9F9F9F9F9F9F9F9F9F9F9F9F989
:1027C000F9F9F9F9F9F9F9F9F9F9F9F9F9F9F9F979
:1027D000F9F9F9F9F9F9F9F9F9F9F98C00000000BA
:1027E00000000044F5F9F9F9F9F9F9F9F9F9F9F9FD
:1027F000F9F9F9F9F9F9F9F9F9F9F9F9F9F9F9F949
:10280000F9F9F9F9F9F9F9F9F9F9F9F9F9F9F9F938
:10281000F9F9F9F9F9F9F9F9F9F9F9F544000000CC
:102820000000008CF9F9F9F9F9F9F9F9F9F9F9F970
:10283000F9F9F9F9F9F9F9F9F9F9F9F9F9F9F9F908
:10284000F9F9F9F9F9F9F9F9F9F9F9F9F9F9F9F9F8
:10285000F9F9F9F9F9F9F9F9F9F9F9F98C00000040
:10286000000000D5F9F9F9F9F9F9F9F9F9F9F9F9E7
:10287000F9F9F9F9F9F9F9F9F9F9F9F9F9F9F9F9C8
:10288000F9F9F9F9F9F9F9F9F9F9F9F9F9F9F9F9B8
:10289000F9F9F9F9F9F9F9F9F9F9F9F9D5000000B7
:1028A000000068F9F9F9F9F9F9F9F9F9F9F9F9F91B
:1028B000F9F9D5D5D5D5F9F9F9F9F9F9F9F9F9F918
:1028C000F9F9F9F9F9F9F9F9F9F9D5D5D5D5F9F908
:1028D000F9F9F9F9F9F9F9F9F9F9F9F9F9680000EB
:1028E0000000B1F9F9F9F9F9F9F9F9F9F9F9F9D5B6
:1028F0006C440000000068D5F9F9F9F9F9F9F9F923
:10290000F9F9F9F9F9F9F9F9D56800000000446C12
:10291000D5F9F9F9F9F9F9F9F9F9F9F9F9B1000085
:102920000044F9F9F9F9F9F9F9F9F9F9F9F9B10006
:1029300000000000000000008CF9F9F9F9F9F9F93C
:10294000F9F9F9F9F9F9F98C00000000000000002C
:1029500000B1F9F9F9F9F9F9F9F9F9F9F9F94400D6
:102960000068F9F9F9F9F9F9F9F9F9F9F9B100009B
:102970000000000000000000006CF9F9F9F9F9F915
:10298000F9F9F9F9F9F96C00000000000000000005
:102990000000B1F9F9F9F9F9F9F9F9F9F9F968006B
:1029A00000B1F9F9F9F9F9F9F9F9F9F9D5440000A3
:1029B000448CD5D5D58D44000000B1F9F9F9F9F969
:1029C000F9F9F9F9F9B10000004491D5D5D58C4455
:1029D000000000D5F9F9F9F9F9F9F9F9F9F9B100B7
:1029E00000D5F9F9F9F9F9F9F9F9F9F96C000044A8
:1029F000D5F9F9F9F9F9F968000044F9F9F9F9F9A3
:102A0000F9F9F9F9F944000068F9F9F9F9F9F9D592
:102A10004400006CF9F9F9F9F9F9F9F9F9F9D50077
:102A200044F9F9F9F9F9F9F9F9F9F9F9440044D552
:102A3000F9F9F9F9F9F9F9F9480000D5F9F9F9F9CD
:102A4000F9F9F9F9D5000048F9F9F9F9F9F9F9F9BD
:102A5000D5440044F9F9F9F9F9F9F9F9F9F9F94422
:102A600044F9F9F9F9F9F9F9F9F9F9D500008CF90E
:102A7000F9F9F9F9F9F9F9F9D50000B1F9F9F9F924
:102A8000F9F9F9F9B10000D5F9F9F9F9F9F9F9F914
:102A9000F98D0000D5F9F9F9F9F9F9F9F9F9F944DD
:102AA00068F9F9F9F9F9F9F9F9F9F9D50000D5F961
:102AB000F9F9F9F9F9F9F9F9F944008DF9F9F9F9A0
:102AC000F9F9F9F98C0044F9F9F9F9F9F9F9F9F991
:102AD000F9D50000D5F9F9F9F9F9F9F9F9F9F96831
:102AE0006CF9F9F9F9F9F9F9F9F9F9D54868F9F949
:102AF000F9F9F9F9F9F9F9F9F98C48B1F9F9F9F9AC
:102B0000F9F9F9F9B1488CF9F9F9F9F9F9F9F9F99B
:102B1000F9F96848D5F9F9F9F9F9F9F9F9F9F96C18
:102B20008CF9F9F9F9F9F9F9F9F9F9F9F9F9F9F982
:102B3000F9F9F9F9F9F9F9F9F9F9F9F9F9F9F9F905
:102B4000F9F9F9F9F9F9F9F9F9F9F9F9F9F9F9F9F5
:102B5000F9F9F9F9F9F9F9F9F9F9F9F9F9F9F98C52
:102B60008CF9F9F9F9F9F9F9F9F9F9F9F9F9F9F942
:102B7000F9F9F9F9F9F9F9F9F9F9F9F9F9F9F9F9C5
:102B8000F9F9F9F9F9F9F9F9F9F9F9F9F9F9F9F9B5
:102B9000F9F9F9F9F9F9F9F9F9F9F9F9F9F9F98C12
:102BA0008CF9F9F9F9F9F9F9F9F9F9F9F9F9F9F902
:102BB000F9F9F9F9F9F9F9F9F9F9F9F9F9F9F9F985
:102BC000F9F9F9F9F9F9F9F9F9F9F9F9F9F9F9F975
:102BD000F9F9F9F9F9F9F9F9F9F9F9F9F9F9F98CD2
:102BE0008CF9F9F9F9F9F9F9F9F9F9F9F9F9F9F9C2
:102BF000F9F9F9F9F9F9F9F9F9F9F9F9F9F9F9F945
:102C0000F9F9F9F9F9F9F9F9F9F9F9F9F9F9F9F934
:102C1000F9F9F9F9F9F9F9F9F9F9F9F9F9F9F98C91
:102C20006CF9F9F9F9F9F9F9F9F9F9F9F9F9F9F9A1
:102C3000F9F9F9F9F9F9F9F9F9F9F9F9F9F9F9F904
:102C4000F9F9F9F9F9F9F9F9F9F9F9F9F9F9F9F9F4
:102C5000F9F9F9F9F9F9F9F9F9F9F9F9F9F9F96C71
:102C600068F9F9F9F9F9F9F9F9F9F9F9F9F9F9F965
:102C7000F9F9F9F9F9F9F9F9F9F9F9F9F9F9F9F9C4
:102C8000F9F9F9F9F9F9F9F9F9F9F9F9F9F9F9F9B4
:102C9000F9F9F9F9F9F9F9F9F9F9F9F9F9F9F96835
:102CA00044F9F9F9F9F9F9F9F9F9F9F9F9F9F9F949
:102CB000F9F9F9F9F9F9F9F9F9F9F9F9F9F9F9F984
:102CC000F9F9F9F9F9F9F9F9F9F9F9F9F9F9F9F974
:102CD000F9F9F9F9F9F9F9F9F9F9F9F9F9F9F94419
:102CE00044F9F9F9F9F9F9F9F9F9F9F9F9F9F9F909
:102CF000F9F9F9F9F9F9F9F9F9F9F9F9F9F9F9F944
:102D0000F9F9F9F9F9F9F9F9F9F9F9F9F9F9F9F933
:102D1000F9F9F9F9F9F9F9F9F9F9F9F9F9F9F944D8
:102D200000D5F9F9F9F9F9F9F9F9F9F9F9F9FEFE26
:102D3000FEFEFEFEFEFEFEFEFEFEFEFEFEFEFEFEB3
:102D4000FEFEFEFEFEFEFEFEFEFEFEFEFEFEFEFEA3
:102D5000FEFEF9F9F9F9F9F9F9F9F9F9F9F9D500F6
:102D600000B1F9F9F9F9F9F9F9F9F9F9F9F9FFFF08
:102D7000FFFFFFFFFFFFFFFFFFFFFFFFFFFFFFFF63
:102D8000FFFFFFFFFFFFFFFFFFFFFFFFFFFFFFFF53
:102D9000FFFFF9F9F9F9F9F9F9F9F9F9F9F9B100D8
:102DA0000068F9F9F9F9F9F9F9F9F9F9F9F9FFFF11
:102DB000FFFFFFFFFFFFFFFFFFFFFFFFFFFFFFFF23
:102DC000FFFFFFFFFFFFFFFFFFFFFFFFFFFFFFFF13
:102DD000FFFFF9F9F9F9F9F9F9F9F9F9F9F96800E1
:102DE0000044F9F9F9F9F9F9F9F9F9F9F9F9FFFFF5
:102DF000FFFFFFFFFFFFFFFFFFFFFFFFFFFFFFFFE3
:102E0000FFFFFFFFFFFFFFFFFFFFFFFFFFFFFFFFD2
:102E1000FFFFF9F9F9F9F9F9F9F9F9F9F9F94400C4
:102E20000000B1F9F9F9F9F9F9F9F9F9F9F9FEFF41
:102E3000FFFFFFFFFFFFFFFFFFFFFFFFFFFFFFFFA2
:102E4000FFFFFFFFFFFFFFFFFFFFFFFFFFFFFFFF92
:102E5000FFFEF9F9F9F9F9F9F9F9F9F9F9B1000011
:102E6000000068F9F9F9F9F9F9F9F9F9F9F9D54929
:102E700049494949494949494949494949494949C2
:102E800049494949494949494949494949494949B2
:102E900049D5F9F9F9F9F9F9F9F9F9F9F9680000F9
:102EA000000000D5F9F9F9F9F9F9F9F9F9F9F5445A
:102EB0000000000000000000000000000000000012
:102EC0000000000000000000000000000000000002
:102ED00000F5F9F9F9F9F9F9F9F9F9F9D50000006E
:102EE0000000008CF9F9F9F9F9F9F9F9F9F9F9683B
:102EF00000000000000000000000000000000000D2
:102F000000000000000000000000000000000000C1
:102F100068F9F9F9F9F9F9F9F9F9F9F98C0000000A
:102F200000000044F5F9F9F9F9F9F9F9F9F9F9D5D9
:102F30000000000000000000000000000000000091
:102F40000000000000000000000000000000000081
:102F5000D5F9F9F9F9F9F9F9F9F9F9F544000000A9
:102F6000000000006CF9F9F9F9F9F9F9F9F9F9F942
:102F700068000000000000000000000000000000E9
:102F800000000000000000000000000000000068D9
:102F9000F9F9F9F9F9F9F9F9F9F9F96C0000000012
:102FA0000000000000D5F9F9F9F9F9F9F9F9F9F992
:102FB000F5440000000000000000000000000000D8
:102FC000000000000000000000000000000044D5E8
:102FD000F9F9F9F9F9F9F9F9F9F9D5000000000062
:102FE000000000000048F9F9F9F9F9F9F9F9F9F9DF
:102FF000F9B1000000000000000000000000000027
:103000000000000000000000000000000000B1F916
:10301000F9F9F9F9F9F9F9F9F9F9480000000000AE
:103020000000000000008CF9F9F9F9F9F9F9F9F953
:10303000F9F98C0000000000000000000000000012
:10304000000000000000000000000000008CF9F902
:10305000F9F9F9F9F9F9F9F9F98C00000000000023
:1030600000000000000000B1F9F9F9F9F9F9F9F9E7
:10307000F9F9F96C000000000000000000000000F9
:103080000000000000000000000000006CF9F9F9E9
:10309000F9F9F9F9F9F9F9F9B100000000000000B7
:1030A0000000000000000044D5F9F9F9F9F9F9F938
:1030B000F9F9F9F98C00000000000000004484A434
:1030C000A4844400000000000000008CF9F9F9F924
:1030D000F9F9F9F9F9F9F9D5440000000000000008
:1030E000000000000000000044D5F9F9F9F9F9F9F1
:1030F000F9F9F9F9F9B1440000000044A4E8E8E85E
:10310000E8E8E8A4440000000044B1F9F9F9F9F94D
:10311000F9F9F9F9F9F9F5440000000000000000A0
:1031200000000000000000000044D5F9F9F9F9F9A9
:10313000F9F9F9F9F9F9F56C000000C4E8E8E8E8F4
:10314000E8E8E8E8C40000006CF5F9F9F9F9F9F9E4
:10315000F9F9F9F9F9F54400000000000000000059
:103160000000000000000000000044D5F9F9F9F962
:10317000F9F9F9F9F9F9F9F9D58CA8E8E8E8E8E8F6
:10318000E8E8E8E8E8A88CD5F9F9F9F9F9F9F9F9E6
:10319000F9F9F9F9D5440000000000000000000032
:1031A000000000000000000000000044B1F9F9F93F
:1031B000F9F9F9F9F9F9F9F9F9F9F9F5F1F1EDEDAB
:1031C000EDEDF1F1F5F9F9F9F9F9F9F9F9F9F9F99B
:1031D000F9F9F9B14400000000000000000000000F
:1031E000000000000000000000000000008CF9F961
:1031F000F9F9F9F9F9F9F9F9F9F9F9F9F9F9F9F93F
:10320000F9F9F9F9F9F9F9F9F9F9F9F9F9F9F9F92E
:10321000F9F98C0000000000000000000000000030
:10322000000000000000000000000000000048D581
:10323000F9F9F9F9F9F9F9F9F9F9F9F9F9F9F9F9FE
:10324000F9F9F9F9F9F9F9F9F9F9F9F9F9F9F9F9EE
:10325000D548000000000000000000000000000051
:10326000000000000000000000000000000000005E
:103270006CF5F9F9F9F9F9F9F9F9F9F9F9F9F9F94F
:10328000F9F9F9F9F9F9F9F9F9F9F9F9F9F9F56C3F
:10329000000000000000000000000000000000002E
:1032A000000000000000000000000000000000001E
:1032B00000008CD5F9F9F9F9F9F9F9F9F9F9F9F901
:1032C000F9F9F9F9F9F9F9F9F9F9F9F9D58C0000F1
:1032D00000000000000000000000000000000000EE
:1032E00000000000000000000000000000000000DE
:1032F0000000000068B1F9F9F9F9F9F9F9F9F9F9FB
:10330000F9F9F9F9F9F9F9F9F9F9B16800000000EA
:1033100000000000000000000000000000000000AD
:10332000000000000000000000000000000000009D
:103330000000000000004468B1D5F9F9F9F9F9F985
:10334000F9F9F9F9F9F9D5B1684400000000000075
:10335000000000000000000000000000000000006D
:10336000000000000000000000000000000000005D
:10337000000000000000000000004444686C8C8CD9
:103380008C8C6C68444400000000000000000000C9
:10339000000000000000000000000000000000002D
:1033A000400040000000000000000000000000009D
:1033B0000000000000000000000000000000444485
:1033C00064648484848464644444000000000000D5
:1033D00000000000000000000000000000000000ED
:1033E00000000000000000000000000000000000DD
:1033F00000000000000000000000446484C4E8E80D
:10340000E8E8E8E8E8E8E8E8E8E8C48464440000BC
:1034100000000000000000000000000000000000AC
:10342000000000000000000000000000000000009C
:10343000000000000000000064A4E8E8E8E8E8E814
:10344000E8E8E8E8E8E8E8E8E8E8E8E8E8E8A464C4
:10345000000000000000000000000000000000006C
:10346000000000000000000000000000000000005C
:1034700000000000000064C4E8E8E8E8E8E8E8E8E4
:10348000E8E8E8E8E8E8E8E8E8E8E8E8E8E8E8E8BC
:10349000C464000000000000000000000000000004
:1034A000000000000000000000000000000000001C
:1034B0000000000064C8E8E8E8E8E8E8E8E8E8E8D0
:1034C000E8E8E8E8E8E8E8E8E8E8E8E8E8E8E8E87C
:1034D000E8E8C864000000000000000000000000F0
:1034E00000000000000000000000000000000000DC
:1034F000000044C4E8E8E8E8E8E8E8E8E8E8E8E8E4
:10350000E8E8E8E8E8E8E8E8E8E8E8E8E8E8E8E83B
:10351000E8E8E8E8C4440000000000000000000003
:10352000000000000000000000000000000000009B
:103530000084E8E8E8E8E8E8E8E8E8E8E8E8E8E857
:10354000E8E8E8E8E8E8E8E8E8E8E8E8E8E8E8E8FB
:10355000E8E8E8E8E8E88400000000000000000077
:103560000000000000000000000000000000004417
:10357000A4E8E8E8E8E8E8E8E8E8E8E8E8E8E8E80F
:10358000E8E8E8E8E8E8E8E8E8E8E8E8E8E8E8E8BB
:10359000E8E8E8E8E8E8E8A44400000000000000EB
:1035A000000000000000000000000000000044C413
:1035B000E8E8E8E8E8E8E8E8E8E8E8E8E8E8E8E88B
:1035C000E8E8E8E8E8E8E8E8E8E8E8E8E8E8E8E87B
:1035D000E8E8E8E8E8E8E8E8C444000000000000A3
:1035E0000000000000000000000000000044C8E8E7
:1035F000E8E8E8E8E8E8E8E8E8E8E8E8E8E8E8E84B
:10360000E8E8E8E8E8E8E8E8E8E8E8E8E8E8E8E83A
:10361000E8E8E8E8E8E8E8E8E8C844000000000076
:1036200000000000000000000000000044C8E8E8BE
:10363000E8E8E8E8E8E8E8E8E8E8E8E8E8E8E8E80A
:10364000E8E8E8E8E8E8E8E8E8E8E8E8E8E8E8E8FA
:10365000E8E8E8E8E8E8E8E8E8E8C844000000004E
:10366000000000000000000000000044C4E8E8E89A
:10367000E8E8E8E8E8E8E8E8E8E8E8E8E8E8E8E8CA
:10368000E8E8E8E8E8E8E8E8E8E8E8E8E8E8E8E8BA
:10369000E8E8E8E8E8E8E8E8E8E8E8C4440000002A
:1036A0000000000000000000000000A4E8E8E8E8D6
:1036B000E8E8E8E8E8E8E8E8E8E8E8E8E8E8E8E88A
:1036C000E8E8E8E8E8E8E8E8E8E8E8E8E8E8E8E87A
:1036D000E8E8E8E8E8E8E8E8E8E8E8E8A400000066
:1036E0000000000000000000000084E8E8E8E8E8CE
:1036F000E8E8E8E8E8E8E8E8E8E8E8E8E8E8E8E84A
:10370000E8E8E8E8E8E8E8E8E8E8E8E8E8E8E8E839
:10371000E8E8E8E8E8E8E8E8E8E8E8E8E88400005D
:1037200000000000000000000044E8E8E8E8E8E8E5
:10373000E8E8E8E8E8E8E8E8E8E8E8E8E8E8E8E809
:10374000E8E8E8E8E8E8E8E8E8E8E8E8E8E8E8E8F9
:10375000E8E8E8E8E8E8E8E8E8E8E8E8E8E8440075
:10376000000000000000000000C4E8E8E8E8E8E825
:10377000E8E8E8E8E8E8E8E8E8E8E8E8E8E8E8E8C9
:10378000E8E8E8E8E8E8E8E8E8E8E8E8E8E8E8E8B9
:10379000E8E8E8E8E8E8E8E8E8E8E8E8E8E8C400B5
:1037A000000000000000000064E8E8E8E8E8E8E85D
:1037B000E8E8E8E8E8E8E8E8E8E8E8E8E8E8E8E889
:1037C000E8E8E8E8E8E8E8E8E8E8E8E8E8E8E8E879
:1037D000E8E8E8E8E8E8E8E8E8E8E8E8E8E8E864ED
:1037E0000000000000000000C8E8E8E8E8E8E8E8B9
:1037F000E8E8E8E8E8E8E8E8E8E8E8E8E8E8E8E849
:10380000E8E8E8E8E8E8E8E8E8E8E8E8E8E8E8E838
:10381000E8E8E8E8E8E8E8E8E8E8E8E8E8E8E8C848
:103820000000000000000064E8E8E8E8E8E8E8E8F4
:10383000E8E8E8E8E8E8E8E8E8E8E8E8E8E8E8E808
:10384000E8E8E8E8E8E8E8E8E8E8E8E8E8E8E8E8F8
:10385000E8E8E8E8E8E8E8E8E8E8E8E8E8E8E8E8E8
:1038600084000000000000C4E8E8E8E8E8E8E8E8D0
:10387000E8E8E8E8E8E8E8E8E8E8E8E8E8E8E8E8C8
:10388000E8E8E8E8E8E8E8E8E8E8E8E8E8E8E8E8B8
:10389000E8E8E8E8E8E8E8E8E8E8E8E8E8E8E8E8A8
:1038A000C4000000000064E8E8E8E8E8E8E8E8C4EC
:1038B000C8E8E8E8E8E8E8E8E8E8E8E8E8E8E8E8A8
:1038C000E8E8E8E8E8E8E8E8E8E8E8E8E8E8E8E878
:1038D000E8E8E8E8E8E8E8C8C4E8E8E8E8E8E8E8AC
:1038E000E86400000000A4E8E8E8E8E8E8E844004C
:1038F0000084E8E8E8E8E8E8E8E8E8E8E8E8E8E894
:10390000E8E8E8E8E8E8E8E8E8E8E8E8E8E8E8E837
:10391000E8E8E8E8E8E884000044E8E8E8E8E8E8FF
:10392000E8A400000044E8E8E8E8E8E8E8840000EB
:10393000000044C8E8E8E8E8E8E8E8E8E8E8E8E89B
:10394000E8E8E8E8E8E8E8E8E8E8E8E8E8E8E8E8F7
:10395000E8E8E8E8C8440000000084E8E8E8E8E8AF
:10396000E8E844000064E8E8E8E8E8E8E884000003
:1039700000000044A4E8E8E8E8E8E8E8E8E8E8E867
:10398000E8E8E8E8E8E8E8E8E8E8E8E8E8E8E8E8B7
:10399000E8E8E8A444000000000084E8E8E8E8E87B
:1039A000E8E864000084E8E8E8E8E8E8E8E84400DB
:1039B000000000000084E8E8E8E8E8E8E8E8E8E873
:1039C000E8E8E8E8E8E8E8E8E8E8E8E8E8E8E8E877
:1039D000E8E88400000000000044E8E8E8E8E8E8DF
:1039E000E8E8840000C4E8E8E8E8E8E8E8E8E86433
:1039F00000000000000044C8E8E8E8E8E8E8E8E87B
:103A0000E8E8E8E8E8E8E8E8E8E8E8E8E8E8E8E836
:103A1000C84400000000000064E8E8E8E8E8E8E8DE
:103A2000E8E8C40000E8E8E8E8E8E8E8E8E8E8E80A
:103A3000A400000000000044A4E8E8E8E8E8E8E8A2
:103A4000E8E8E8E8E8E8E8E8E8E8E8E8E8E8E8A43A
:103A50004400000000000084E8E8E8E8E8E8E8E85E
:103A6000E8E8E80044E8E8E8E8E8E8E8E8E8E8E862
:103A7000E8C44400000000000084E8E8E8E8E8E862
:103A8000E8E8E8E8E8E8E8E8E8E8E8E8E8E8840002
:103A9000000000000044C4E8E8E8E8E8E8E8E8E8F6
:103AA000E8E8E84444E8E8E8E8E8E8E8E8E8E8E8DE
:103AB000E8E8E86400000000000064E8E8E8E8E8FE
:103AC000E8E8E8E8E8E8E8E8E8E8E8E8E8840000AA
:103AD0000000000064E8E8E8E8E8E8E8E8E8E8E88A
:103AE000E8E8E84464E8E8E8E8E8E8E8E8E8E8E87E
:103AF000E8E8E8E844000000000044E8E8E8E8E816
:103B0000E8E8E8E8E8E8E8E8E8E8E8E8E8440000A9
:103B100000000044E8E8E8E8E8E8E8E8E8E8E8E881
:103B2000E8E8E86464E8E8E8E8E8E8E8E8E8E8E81D
:103B3000E8E8E8E844000000000000E8E8E8E8E819
:103B4000E8E8E8E8E8E8E8E8E8E8E8E8E8000000AD
:103B500000000044E8E8E8E8E8E8E8E8E8E8E8E841
:103B6000E8E8E86484E8E8E8E8E8E8E8E8E8E8E8BD
:103B7000E8E8E8E844000000000000E8E8E8E8E8D9
:103B8000E8E8E8E8E8E8E8E8E8E8E8E8E80000006D
:103B900000000044E8E8E8E8E8E8E8E8E8E8E8E801
:103BA000E8E8E88484E8E8E8E8E8E8E8E8E8E8C481
:103BB000C4C4C4C444000000000000E8E8E8E8E829
:103BC000E8E8E8E8E8E8E8E8E8E8E8E8E80000002D
:103BD00000000044C4C4C4C4C4E8E8E8E8E8E8E875
:103BE000E8E8E88464E8E8E8E8E8E8E8E8E4C4A4A9
:103BF000A4A4A4A444000000000000E8E8E8E8E869
:103C0000E8E8E8E8E8E8E8E8E8E8E8E8E8000000EC
:103C100000000044A4A4A4A4A4C4E4E8E8E8E8E8FC
:103C2000E8E8E86464E8E8E8E8E8E8E8E4C4A4A4CC
:103C3000A4A4A4A444000000000000E8E8E8E8E828
:103C4000E8E8E8E8E8E8E8E8E8E8E8E8E8000000AC
:103C500000000044A4A4A4A4A4A4C4E4E8E8E8E800
:103C6000E8E8E86444E8E8E8E8E8E8E8C4A4A4A4EC
:103C7000A4A4A4A444000000000000E8E8E8E8E8E8
:103C8000E8E8E8E8E8E8E8E8E8E8E8E8E80000006C
:103C900000000044A4A4A4A4A4A4A4C4E8E8E8E800
:103CA000E8E8E84444E8E8E8E8E8E8E4A4A4A4A4F0
:103CB000A4A4A4A464000000000044E8E8E8E8E844
:103CC000E8E8E8E8E8E8E8E8E8E8E8E8E8440000E8
:103CD00000000064A4A4A4A4A4A4A4A4E4E8E8E8C4
:103CE000E8E8E84400E8E8E8E8E8E8C4A4A4A4A414
:103CF000A4A4A4A4A40000000000A4E8E8E8E8E864
:103D0000E8E8E8E8E8E8E8E8E8E8E8E8E8A4000047
:103D100000000080A4A4A4A4A4A4A4A4C4E8E8E887
:103D2000E8E8E80000C4E8E8E8E8E8C4A4A4A4A43B
:103D3000A4A4A4A4A4A4644464C4E8E8E8E8E8E86B
:103D4000E8E8E8E8E8E8E8E8E8E8E8E8E8E8C4649B
:103D5000446480A4A4A4A4A4A4A4A4A4C4E8E8E8FB
:103D6000E8E8C4000084E8E8E8E8E8C4A4A4A4A45F
:103D7000A4A4A4A4A4A4A4A4C4E8E8E8E8E8E8E807
:103D8000E8E8E8E8E8E8E8E8E8E8E8E8E8E8E8C4D7
:103D9000A4A4A4A4A4A4A4A4A4A4A4A4C4E8E8E8F7
:103DA000E8E884000064E8E8E8E8E8C4A4A4A4A47F
:103DB000A4A4A4A4A4A4A4A4C4E8E8E8E8E8E8E8C7
:103DC000E8E8E8E8E8E8E8E8E8E8E8E8E8E8E8C497
:103DD000A4A4A4A4A4A4A4A4A4A4A4A4C4E8E8E8B7
:103DE000E8E864000044E8E8E8E8E8E8C4A4A4A43B
:103DF000A4A4A4A4A4A4A4C4E8E8E8E8E8E8E8E843
:103E0000E8E8E8E8E8E8E8E8E8E8E8E8E8E8E8E832
:103E1000C4A4A4A4A4A4A4A4A4A4A4C4E4E8E8E816
:103E2000E8E844000000A4E8E8E8E8E8C4A4A4A4A2
:103E3000A4A4A4A4A4A4A4C4E8E8E8E8E8E8E8E802
:103E4000E8E8E8E8E8E8E8E8E8E8E8E8E8E8E8E8F2
:103E5000C4A4A4A4A4A4A4A4A4A4A4C4E8E8E8E8D2
:103E6000E8A40000000064E8E8E8E8E8E8C4A4A4E6
:103E7000A4A4A4A4A4A4C4E8E8E8E8E8E8E8C8A4E2
:103E80008464644444646484A4C8E8E8E8E8E8E836
:103E9000E8C4A4A4A4A4A4A4A4A4C4E8E8E8E8E80A
:103EA000E8640000000000C4E8E8E8E8E8E8E4C4EA
:103EB000C4A4A4C4C4E4E8E8E8E8E8C48444000076
:103EC000000000000000000000004484C4E8E8E8AE
:103ED000E8E8E4C4C4A4A4C4C4E4E8E8E8E8E8E882
:103EE000C400000000000064E8E8E8E8E8E8E8E86A
:103EF000E4E4E4E4E8E8E8E8E8A4440000000000C2
:103F00000000000000000000000000000044A4E8E1
:103F1000E8E8E8E8E4E4E4E4E8E8E8E8E8E8E8E831
:103F20006400000000000000C8E8E8E8E8E8E8E80D
:103F3000E8E8E8E8E8E8E8C844000000000000001D
:103F4000000000000000000000000000000000442D
:103F5000C4E8E8E8E8E8E8E8E8E8E8E8E8E8E8C825
:103F6000000000000000000064E8E8E8E8E8E8E895
:103F7000E8E8E8E8E8E8C8440000000000000000C5
:103F80000044444444444400000000000000000099
:103F900044C8E8E8E8E8E8E8E8E8E8E8E8E8E864E9
:103FA000000000000000000000C4E8E8E8E8E8E8DD
:103FB000E8E8E8E8E8E8840000000000000064A405
:103FC000C4E8E8E8E8E8E8C8A464000000000000ED
:103FD0000084E8E8E8E8E8E8E8E8E8E8E8E8C400B9
:103FE00000000000000000000044E8E8E8E8E8E81D
:103FF000E8E8E8E8E8E8A4000000004484C8E8E84D
:10400000E8E8E8E8E8E8E8E8E8E8C8844400000010
:1040100000A4E8E8E8E8E8E8E8E8E8E8E8E84400D8
:104020000000000000000000000084E8E8E8E8E884
:10403000E8E8E8E8E8E8E864004484C8E8E8E8E894
:10404000E8E8E8E8E8E8E8E8E8E8E8E8E8844400E0
:1040500064E8E8E8E8E8E8E8E8E8E8E8E884000098
:104060000000000000000000000000A4E8E8E8E80C
:10407000E8E8E8E8E8E8E8E8C8E8E8E8E8E8E8E8E0
:10408000E8E8E8E8E8E8E8E8E8E8E8E8E8E8E8C8D0
:10409000E8E8E8E8E8E8E8E8E8E8E8E8A40000009C
:1040A000000000000000000000000000C4E8E8E894
:1040B000E8E8E8E8E8E8E8E8E8E8E8E8E8E8E8E880
:1040C000E8E8E8E8E8E8E8E8E8E8E8E8E8E8E8E870
:1040D000E8E8E8E8E8E8E8E8E8E8E8C444000000E0
:1040E00000000000000000000000000044C4E8E8F8
:1040F000E8E8E8E8E8E8E8E8E8E8E8E8E8E8E8E840
:10410000E8E8E8E8E8E8E8E8E8E8E8E8E8E8E8E82F
:10411000E8E8E8E8E8E8E8E8E8E8C4440000000087
:104120000000000000000000000000000044C4E89F
:10413000E8E8E8E8E8E8E8E8E8E8E8E8E8E8E8E8FF
:10414000E8E8E8E8E8E8E8E8E8E8E8E8E8E8E8E8EF
:10415000E8E8E8E8E8E8E8E8E8C44400000000002F
:10416000000000000000000000000000000044C447
:10417000E8E8E8E8E8E8E8E8E8E8E8E8E8E8E8E8BF
:10418000E8E8E8E8E8E8E8E8E8E8E8E8E8E8E8E8AF
:10419000E8E8E8E8E8E8E8E8C444000000000000D7
:1041A000000000000000000000000000000000000F
:1041B000A4E8E8E8E8E8E8E8E8E8E8E8E8E8E8E8C3
:1041C000E8E8E8E8E8E8E8E8E8E8E8E8E8E8E8E86F
:1041D000E8E8E8E8E8E8E8A40000000000000000E3
:1041E00000000000000000000000000000000000CF
:1041F0000084E8E8E8E8E8E8E8E8E8E8E8E8E8E88B
:10420000E8E8E8E8E8E8E8E8E8E8E8E8E8E8E8E82E
:10421000E8E8E8E8E8E884000000000000000000AA
:10422000000000000000000000000000000000008E
:10423000000044C4E8E8E8E8E8E8E8E8E8E8E8E896
:10424000E8E8E8E8E8E8E8E8E8E8E8E8E8E8E8E8EE
:10425000E8E8E8E8C44400000000000000000000B6
:10426000000000000000000000000000000000004E
:104270000000000064C8E8E8E8E8E8E8E8E8E8E802
:10428000E8E8E8E8E8E8E8E8E8E8E8E8E8E8E8E8AE
:10429000E8E8C86400000000000000000000000022
:1042A000000000000000000000000000000000000E
:1042B00000000000000064C4E8E8E8E8E8E8E8E896
:1042C000E8E8E8E8E8E8E8E8E8E8E8E8E8E8E8E86E
:1042D000C4640000000000000000000000000000B6
:1042E00000000000000000000000000000000000CE
:1042F000000000000000000064A4E8E8E8E8E8E846
:10430000E8E8E8E8E8E8E8E8E8E8E8E8E8E8A464F5
:10431000000000000000000000000000000000009D
:10432000000000000000000000000000000000008D
:1043300000000000000000000000446484C4E8E8BD
:10434000E8E8E8E8E8E8E8E8E8E8C484644400006D
:10435000000000000000000000000000000000005D
:10436000000000000000000000000000000000004D
:1043700000000000000000000000000000000044F9
:1043800044646484846464444400000000000000C9
:10439000000000000000000000000000000000001D
:1043A000000000003C003C000F0F0F0F0F0F0F0F1D
:1043B0000F0F0F0F0F0F0F0F0F0F0F0F0F0F0F0F0D
:1043C0000F0F0F0F33BBBB330F0F0F0F0F0F0F0F5D
:1043D0000F0F0F0F0F0F0F0F0F0F0F0F0F0F0F0FED
:1043E0000F0F0F0F0F0F0F0F0F0F0F0F0F0F0F0FDD
:1043F0000F0F0F0F0F0F0F0F0F0F0F0F0F0F0F33A9
:10440000BBFFFFBB330F0F0F0F0F0F0F0F0F0F0F60
:104410000F0F0F0F0F0F0F0F0F0F0F0F0F0F0F0FAC
:104420000F0F0F0F0F0F0F0F0F0F0F0F0F0F0F0F9C
:104430000F0F0F0F0F0F0F0F0F0F33BBFFFFFFFFFC
:10444000BB330F0F0F0F0F0F0F0F0F0F0F0F0F0FAC
:104450000F0F0F0F0F0F0F0F0F0F0F0F0F0F0F0F6C
:104460000F0F0F0F0F0F0F0F0F0F0F0F0F0F0F0F5C
:104470000F0F0F0F0F33BBFFFFFFFFFFFFBB330F0C
:104480000F0F0F0F0F0F0F0F0F0F0F0F0F0F0F0F3C
:104490000F0F0F0F0F0F0F0F0F0F0F0F0F0F0F0F2C
:1044A0000F0F0F0F0F0F0F0F0F0F0F0F0F0F0F0F1C
:1044B00033BBFFFFFFFFFFFFFFFFBB330F0F0F0FEC
:1044C0000F0F0F0F0F0F0F0F0F0F0F0F0F0F0F0FFC
:1044D0000F0F0F0F0F0F0F0F0F0F0F0F0F0F0F0FEC
:1044E0000F0F0F0F0F0F0F0F0F0F0F33BBFFFFFF3C
:1044F000FFFFFFFFFFFFFFBB330F0F0F0F0F0F0F6C
:104500000F0F0F0F0F0F0F0F0F0F0F0F0F0F0F0FBB
:104510000F0F0F0F0F0F0F0F0F0F0F0F0F0F0F0FAB
:104520000F0F0F0F0F0F33BBFFFFFFFFFFFFFFFF4B
:10453000FFFFFFFFBB330F0F0F0F0F0F0F0F0F0FFB
:104540000F0F0F0F0F0F0F0F0F0F0F0F0F0F0F0F7B
:104550000F0F0F0F0F0F0F0F0F0F0F0F0F0F0F0F6B
:104560000F33BBFFFFFFFFFFFFFFFFFFFFFFFFFF5B
:10457000FFBB330F0F0F0F0F0F0F0F0F0F0F0F0F8B
:104580000F0F0F0F0F0F0F0F0F0F0F0F0F0F0F0F3B
:104590000F0F0F0F0F0F0F0F0F0F0F0F33BBFFFF7B
:1045A000FFFFFFFFFFFFFFFFFFFFFFFFFFFFBB332B
:1045B0000F0F0F0F0F0F0F0F0F0F0F0F0F0F0F0F0B
:1045C0000F0F0F0F0F0F0F0F0F0F0F0F0F0F0F0FFB
:1045D0000F0F0F0F0F0F0F33BBFFFFFFFFFFFFFF8B
:1045E000FFFFFFFFFFFFFFFFFFFFFFBB330F0F0FBB
:1045F0000F0F0F0F0F0F0F0F0F0F0F0F0F0F0F0FCB
:104600000F0F0F0F0F0F0F0F0F0F0F0F0F0F0F0FBA
:104610000F0F33BBFFFFFFFFFFFFFFFFFFFFFFFF9A
:10462000FFFFFFFFFFFFFFFFBB330F0F0F0F0F0F4A
:104630000F0F0F0F0F0F0F0F0F0F0F0F0F0F0F0F8A
:104640000F0F0F0F0F0F0F0F0F0F0F0F0F33BBFFBA
:10465000FFFFFFFFFFFFFFFFFFFFFFFFFFFFFFFF6A
:10466000FFFFFFFFFFBB330F0F0F0F0F0F0F0F0FDA
:104670000F0F0F0F0F0F0F0F0F0F0F0F0F0F0F0F4A
:104680000F0F0F0F0F0F0F0F33BBFFFFFFFFFFFFCA
:10469000FFFFFFFFFFFFFFFFFFFFFFFFFFFFFFFF2A
:1046A000FFFFBB330F0F0F0F0F0F0F0F0F0F0F0F6A
:1046B0000F0F0F0F0F0F0F0F0F0F0F0F0F0F0F0F0A
:1046C0000F0F0F33BBFFFFFFFFFFFFFFFFFFFFFFDA
:1046D000FFFFFFFFFFFFFFFFFFFFFFFFFFFFFFBB2E
:1046E000330F0F0F0F0F0F0F0F0F0F0F0F0F0F0FB6
:1046F0000F0F0F0F0F0F0F0F0F0F0F0F0F0F33BBFA
:10470000FFFFFFFFFFFFFFFFFFFFFFFFFFFFFFFFB9
:10471000FFFFFFFFFFFFFFFFFFFFFFFFBB330F0F99
:104720000F0F0F0F0F0F0F0F0F0F0F0F0F0F0F0F99
:104730000F0F0F0F0F0F0F0F0F33BBFFFFFFFFFF09
:10474000FFFFFFFFFFFFFFFFFFFFFFFFFFFFFFFF79
:10475000FFFFFFFFFFFFFFFFFFBB330F0F0F0F0F29
:104760000F0F0F0F0F0F0F0F0F0F0F0F0F0F0F0F59
:104770000F0F0F0F33BBFFFFFFFFFFFFFFFFFFFF19
:10478000FFFFFFFFFFFFFFFFFFFFFFFFFFFFFFFF39
:10479000FFFFFFFFFFFFBB330F0F0F0F0F0F0F0FB9
:1047A0000F0F0F0F0F0F0F0F0F0F0F0F0F0F0F33F5
:1047B000BBFFFFFFFFFFFFFFFFFFFFFFFFFFFFFF4D
:1047C000FFFFFFFFFFFFFFFFFFFFFFFFFFFFFFFFF9
:1047D000FFFFFFBB330F0F0F0F0F0F0F0F0F0F0F49
:1047E0000F0F0F0F0F0F0F0F0F0F33BBFFFFFFFF49
:1047F000FFFFFFFFFFFFFFFFFFFFFFFFFFFFFFFFC9
:10480000FFFFFFFFFFFFFFFFFFFFFFFFFFFFFFFFB8
:10481000BB330F0F0F0F0F0F0F0F0F0F0F0F0F0FD8
:104820000F0F0F0F0F33BBFFFFFFFFFFFFFFFFFF58
:10483000FFFFFFFFFFFFFFFFFFFFFFFFFFFFFFFF88
:10484000FFFFFFFFFFFFFFFFFFFFFFFFFFBB330F78
:104850000F0F0F0F0F0F0F0F0F0F0F0F0F0F0F0F68
:1048600033BBFFFFFFFFFFFFFFFFFFFFFFFFFFFF68
:10487000FFFFFFFFFFFFFFFFFFFFFFFFFFFFFFFF48
:10488000FFFFFFFFFFFFFFFFFFFFBB330F0F0F0F08
:104890000F0F0F0F0F0F0F0F0F0F0F33BBFFFFFF88
:1048A000FFFFFFFFFFFFFFFFFFFFFFFFFFFFFFFF18
:1048B000FFFFFFFFFFFFFFFFFFFFFFFFFFFFFFFF08
:1048C000FFFFFFFFFFFFFFBB330F0F0F0F0F0F0F98
:1048D0000F0F0F0F0F0F33BBFFFFFFFFFFFFFFFF98
:1048E000FFFFFFFFFFFFFFFFFFFFFFFFFFFFFFFFD8
:1048F000FFFFFFFFFFFFFFFFFFFFFFFFFFFFFFFFC8
:10490000FFFFFFFFBB330F0F0F0F0F0F0F0F0F0F27
:104910000F33BBFFFFFFFFFFFFFFFFFFFFFFFFFFA7
:10492000FFFFFFFFFFFFFFFFFFFFFFFFFFFFFFFF97
:10493000FFFFFFFFFFFFFFFFFFFFFFFFFFFFFFFF87
:10494000FFBB330F0F0F0F0F0F0F0F0F33BBFFFF07
:10495000FFFFFFFFFFFFFFFFFFFFFFFFFFFFFFFF67
:10496000FFFFFFFFFFFFFFFFFFFFFFFFFFFFFFFF57
:10497000FFFFFFFFFFFFFFFFFFFFFFFFFFFFBB3357
:104980000F0F0F0F0F0F0F33BBFFFFFFFFFFFFFFD7
:10499000FFFFFFFFFFFFFFFFFFFFFFFFFFFFFFFF27
:1049A000FFFFFFFFFFFFFFFFFFFFFFFFFFFFFFFF17
:1049B000FFFFFFFFFFFFFFFFFFFFFFBB330F0F0FE7
:1049C0000F0F33BBFFFFFFFFFFFFFFFFFFFFFFFFE7
:1049D000FFFFFFFFFFFFFFFFFFFFFFFFFFFFFFFFE7
:1049E000FFFFFFFFFFFFFFFFFFFFFFFFFFFFFFFFD7
:1049F000FFFFFFFFFFFFFFFFBB330F0F0F33BBFFB7
:104A0000FFFFFFFFFFFFFFFFFFFFFFFFFFFFFFFFB6
:104A1000FFFFFFFFFFFFFFFFFFFFFFFFFFFFFFFFA6
:104A2000FFFFFFFFFFFFFFFFFFFFFFFFFFFFFFFF96
:104A3000FFFFFFFFFFBB330F33BBFFFFFFFFFFFF96
:104A4000FFFFFFFFFFFFFFFFFFFFFFFFFFFFFFFF76
:104A5000FFFFFFFFFFFFFFFFFFFFFFFFFFFFFFFF66
:104A6000FFFFFFFFFFFFFFFFFFFFFFFFFFFFFFFF56
:104A7000FFFFBB330F0F0F0F0F0F0F0F0F0F0F0F96
:104A80000F0F0F0F0F0F0F0FFFFFFFFFFFFFFFFFB6
:104A9000FFFFFFFFFFFFFFFFFFFFFFFF0F0F0F0FE6
:104AA0000F0F0F0F0F0F0F0F0F0F0F0F0F0F0F0F16
:104AB0000F0F0F0F0F0F0F0F0F0F0F0F0F0F0F0F06
:104AC0000F0F0F0FFFFFFFFFFFFFFFFFFFFFFFFFB6
:104AD000FFFFFFFFFFFFFFFF0F0F0F0F0F0F0F0F66
:104AE0000F0F0F0F0F0F0F0F0F0F0F0F0F0F0F0FD6
:104AF0000F0F0F0F0F0F0F0F0F0F0F0F0F0F0F0FC6
:104B0000FFFFFFFFFFFFFFFFFFFFFFFFFFFFFFFFB5
:104B1000FFFFFFFF0F0F0F0F0F0F0F0F0F0F0F0FE5
:104B20000F0F0F0F0F0F0F0F0F0F0F0F0F0F0F0F95
:104B30000F0F0F0F0F0F0F0F0F0F0F0FFFFFFFFFC5
:104B4000FFFFFFFFFFFFFFFFFFFFFFFFFFFFFFFF75
:104B50000F0F0F0F0F0F0F0F0F0F0F0F0F0F0F0F65
:104B60000F0F0F0F0F0F0F0F0F0F0F0F0F0F0F0F55
:104B70000F0F0F0F0F0F0F0FFFFFFFFFFFFFFFFFC5
:104B8000FFFFFFFFFFFFFFFFFFFFFFFF0F0F0F0FF5
:104B90000F0F0F0F0F0F0F0F0F0F0F0F0F0F0F0F25
:104BA0000F0F0F0F0F0F0F0F0F0F0F0F0F0F0F0F15
:104BB0000F0F0F0FFFFFFFFFFFFFFFFFFFFFFFFFC5
:104BC000FFFFFFFFFFFFFFFF0F0F0F0F0F0F0F0F75
:104BD0000F0F0F0F0F0F0F0F0F0F0F0F0F0F0F0FE5
:104BE0000F0F0F0F0F0F0F0F0F0F0F0F0F0F0F0FD5
:104BF000FFFFFFFFFFFFFFFFFFFFFFFFFFFFFFFFC5
:104C0000FFFFFFFF0F0F0F0F0F0F0F0F0F0F0F0FF4
:104C10000F0F0F0F0F0F0F0F0F0F0F0F0F0F0F0FA4
:104C20000F0F0F0F0F0F0F0F0F0F0F0FFFFFFFFFD4
:104C3000FFFFFFFFFFFFFFFFFFFFFFFFFFFFFFFF84
:104C40000F0F0F0F0F0F0F0F0F0F0F0F0F0F0F0F74
:104C50000F0F0F0F0F0F0F0F0F0F0F0F0F0F0F0F64
:104C60000F0F0F0F0F0F0F0FFFFFFFFFFFFFFFFFD4
:104C7000FFFFFFFFFFFFFFFFFFFFFFFF0F0F0F0F04
:104C80000F0F0F0F0F0F0F0F0F0F0F0F0F0F0F0F34
:104C90000F0F0F0F0F0F0F0F0F0F0F0F0F0F0F0F24
:104CA0000F0F0F0FFFFFFFFFFFFFFFFFFFFFFFFFD4
:104CB000FFFFFFFFFFFFFFFF0F0F0F0F0F0F0F0F84
:104CC0000F0F0F0F0F0F0F0F0F0F0F0F0F0F0F0FF4
:104CD0000F0F0F0F0F0F0F0F0F0F0F0F0F0F0F0FE4
:104CE000FFFFFFFFFFFFFFFFFFFFFFFFFFFFFFFFD4
:104CF000FFFFFFFF0F0F0F0F0F0F0F0F0F0F0F0F04
:104D00000F0F0F0F0F0F0F0F0F0F0F0F0F0F0F0FB3
:104D10000F0F0F0F0F0F0F0F0F0F0F0FFFFFFFFFE3
:104D2000FFFFFFFFFFFFFFFFFFFFFFFFFFFFFFFF93
:104D30000F0F0F0F0F0F0F0F0F0F0F0F0F0F0F0F83
:104D40000F0F0F0F0F0F0F0F0F0F0F0F0F0F0F0F73
:104D50000F0F0F0F0F0F0F0FFFFFFFFFFFFFFFFFE3
:104D6000FFFFFFFFFFFFFFFFFFFFFFFF0F0F0F0F13
:104D70000F0F0F0F0F0F0F0F0F0F0F0F0F0F0F0F43
:104D80000F0F0F0F0F0F0F0F0F0F0F0F0F0F0F0F33
:104D90000F0F0F0FFFFFFFFFFFFFFFFFFFFFFFFFE3
:104DA000FFFFFFFFFFFFFFFF0F0F0F0F0F0F0F0F93
:104DB0000F0F0F0F0F0F0F0F0F0F0F0F0F0F0F0F03
:104DC0000F0F0F0F0F0F0F0F0F0F0F0F0F0F0F0FF3
:104DD000FFFFFFFFFFFFFFFFFFFFFFFFFFFFFFFFE3
:104DE000FFFFFFFF0F0F0F0F0F0F0F0F0F0F0F0F13
:104DF0000F0F0F0F0F0F0F0F0F0F0F0F0F0F0F0FC3
:104E00000F0F0F0F0F0F0F0F0F0F0F0FFFFFFFFFF2
:104E1000FFFFFFFFFFFFFFFFFFFFFFFFFFFFFFFFA2
:104E20000F0F0F0F0F0F0F0F0F0F0F0F0F0F0F0F92
:104E30000F0F0F0F0F0F0F0F0F0F0F0F0F0F0F0F82
:104E40000F0F0F0F0F0F0F0FFFFFFFFFFFFFFFFFF2
:104E5000FFFFFFFFFFFFFFFFFFFFFFFF0F0F0F0F22
:104E60000F0F0F0F0F0F0F0F0F0F0F0F0F0F0F0F52
:104E70000F0F0F0F0F0F0F0F0F0F0F0F0F0F0F0F42
:104E80000F0F0F0FFFFFFFFFFFFFFFFFFFFFFFFFF2
:104E9000FFFFFFFFFFFFFFFF0F0F0F0F0F0F0F0FA2
:104EA0000F0F0F0F0F0F0F0F0F0F0F0F0F0F0F0F12
:104EB0000F0F0F0F0F0F0F0F0F0F0F0F0F0F0F0F02
:104EC000FFFFFFFFFFFFFFFFFFFFFFFFFFFFFFFFF2
:104ED000FFFFFFFF0F0F0F0F0F0F0F0F0F0F0F0F22
:104EE0000F0F0F0F0F0F0F0F0F0F0F0F0F0F0F0FD2
:104EF0000F0F0F0F0F0F0F0F0F0F0F0FFFFFFFFF02
:104F0000FFFFFFFFFFFFFFFFFFFFFFFFFFFFFFFFB1
:104F10000F0F0F0F0F0F0F0F0F0F0F0F0F0F0F0FA1
:104F20000F0F0F0F0F0F0F0F0F0F0F0F0F0F0F0F91
:104F30000F0F0F0F0F0F0F0FFFFFFFFFFFFFFFFF01
:104F4000FFFFFFFFFFFFFFFFFFFFFFFF0F0F0F0F31
:104F50000F0F0F0F0F0F0F0F0F0F0F0F0F0F0F0F61
:104F60000F0F0F0F0F0F0F0F0F0F0F0F0F0F0F0F51
:104F70000F0F0F0FFFFFFFFFFFFFFFFFFFFFFFFF01
:104F8000FFFFFFFFFFFFFFFF0F0F0F0F0F0F0F0FB1
:104F90000F0F0F0F0F0F0F0F0F0F0F0F0F0F0F0F21
:104FA0000F0F0F0F0F0F0F0F0F0F0F0F0F0F0F0F11
:104FB000FFFFFFFFFFFFFFFFFFFFFFFFFFFFFFFF01
:104FC000FFFFFFFF0F0F0F0F0F0F0F0F0F0F0F0F31
:104FD0000F0F0F0F0F0F0F0F0F0F0F0F0F0F0F0FE1
:104FE0000F0F0F0F0F0F0F0F0F0F0F0FFFFFFFFF11
:104FF000FFFFFFFFFFFFFFFFFFFFFFFFFFFFFFFFC1
:105000000F0F0F0F0F0F0F0F0F0F0F0F0F0F0F0FB0
:105010000F0F0F0F0F0F0F0F0F0F0F0F0F0F0F0FA0
:105020000F0F0F0F0F0F0F0FFFFFFFFFFFFFFFFF10
:10503000FFFFFFFFFFFFFFFFFFFFFFFF0F0F0F0F40
:105040000F0F0F0F0F0F0F0F0F0F0F0F0F0F0F0F70
:105050000F0F0F0F0F0F0F0F0F0F0F0F0F0F0F0F60
:105060000F0F0F0FFFFFFFFFFFFFFFFFFFFFFFFF10
:10507000FFFFFFFFFFFFFFFF0F0F0F0F0F0F0F0FC0
:105080000F0F0F0F0F0F0F0F0F0F0F0F0F0F0F0F30
:105090000F0F0F0F0F0F0F0F0F0F0F0F0F0F0F0F20
:1050A000FFFFFFFFFFFFFFFFFFFFFFFFFFFFFFFF10
:1050B000FFFFFFFF0F0F0F0F0F0F0F0F0F0F0F0F40
:1050C0000F0F0F0F0F0F0F0F0F0F0F0F0F0F0F0FF0
:1050D0000F0F0F0F0F0F0F0F0F0F0F0FFFFFFFFF20
:1050E000FFFFFFFFFFFFFFFFFFFFFFFFFFFFFFFFD0
:1050F0000F0F0F0F0F0F0F0F0F0F0F0F0F0F0F0FC0
:105100000F0F0F0F0F0F0F0F0F0F0F0F0F0F0F0FAF
:105110000F0F0F0F0F0F0F0FFFFFFFFFFFFFFFFF1F
:10512000FFFFFFFFFFFFFFFFFFFFFFFF0F0F0F0F4F
:105130000F0F0F0F0F0F0F0F0F0F0F0F0F0F0F0F7F
:105140000F0F0F0F0F0F0F0F0F0F0F0F0F0F0F0F6F
:105150000F0F0F0FFFFFFFFFFFFFFFFFFFFFFFFF1F
:10516000FFFFFFFFFFFFFFFF0F0F0F0F0F0F0F0FCF
:105170000F0F0F0F0F0F0F0F0F0F0F0F0F0F0F0F3F
:105180000F0F0F0F0F0F0F0F0F0F0F0F0F0F0F0F2F
:10519000FFFFFFFFFFFFFFFFFFFFFFFFFFFFFFFF1F
:1051A000FFFFFFFF0F0F0F0F0F0F0F0F0F0F0F0F4F
:1051B0000F0F0F0F0F0F0F0F3C003C000F0F0F0FC3
:1051C0000F0F0F0F0F0F0F0F0F0F0F0F0F0F0F0FEF
:1051D000FFFFFFFFFFFFFFFFFFFFFFFFFFFFFFFFDF
:1051E000FFFFFFFF0F0F0F0F0F0F0F0F0F0F0F0F0F
:1051F0000F0F0F0F0F0F0F0F0F0F0F0F0F0F0F0FBF
:105200000F0F0F0F0F0F0F0F0F0F0F0FFFFFFFFFEE
:10521000FFFFFFFFFFFFFFFFFFFFFFFFFFFFFFFF9E
:105220000F0F0F0F0F0F0F0F0F0F0F0F0F0F0F0F8E
:105230000F0F0F0F0F0F0F0F0F0F0F0F0F0F0F0F7E
:105240000F0F0F0F0F0F0F0FFFFFFFFFFFFFFFFFEE
:10525000FFFFFFFFFFFFFFFFFFFFFFFF0F0F0F0F1E
:105260000F0F0F0F0F0F0F0F0F0F0F0F0F0F0F0F4E
:105270000F0F0F0F0F0F0F0F0F0F0F0F0F0F0F0F3E
:105280000F0F0F0FFFFFFFFFFFFFFFFFFFFFFFFFEE
:10529000FFFFFFFFFFFFFFFF0F0F0F0F0F0F0F0F9E
:1052A0000F0F0F0F0F0F0F0F0F0F0F0F0F0F0F0F0E
:1052B0000F0F0F0F0F0F0F0F0F0F0F0F0F0F0F0FFE
:1052C000FFFFFFFFFFFFFFFFFFFFFFFFFFFFFFFFEE
:1052D000FFFFFFFF0F0F0F0F0F0F0F0F0F0F0F0F1E
:1052E0000F0F0F0F0F0F0F0F0F0F0F0F0F0F0F0FCE
:1052F0000F0F0F0F0F0F0F0F0F0F0F0FFFFFFFFFFE
:10530000FFFFFFFFFFFFFFFFFFFFFFFFFFFFFFFFAD
:105310000F0F0F0F0F0F0F0F0F0F0F0F0F0F0F0F9D
:105320000F0F0F0F0F0F0F0F0F0F0F0F0F0F0F0F8D
:105330000F0F0F0F0F0F0F0FFFFFFFFFFFFFFFFFFD
:10534000FFFFFFFFFFFFFFFFFFFFFFFF0F0F0F0F2D
:105350000F0F0F0F0F0F0F0F0F0F0F0F0F0F0F0F5D
:105360000F0F0F0F0F0F0F0F0F0F0F0F0F0F0F0F4D
:105370000F0F0F0FFFFFFFFFFFFFFFFFFFFFFFFFFD
:10538000FFFFFFFFFFFFFFFF0F0F0F0F0F0F0F0FAD
:105390000F0F0F0F0F0F0F0F0F0F0F0F0F0F0F0F1D
:1053A0000F0F0F0F0F0F0F0F0F0F0F0F0F0F0F0F0D
:1053B000FFFFFFFFFFFFFFFFFFFFFFFFFFFFFFFFFD
:1053C000FFFFFFFF0F0F0F0F0F0F0F0F0F0F0F0F2D
:1053D0000F0F0F0F0F0F0F0F0F0F0F0F0F0F0F0FDD
:1053E0000F0F0F0F0F0F0F0F0F0F0F0FFFFFFFFF0D
:1053F000FFFFFFFFFFFFFFFFFFFFFFFFFFFFFFFFBD
:105400000F0F0F0F0F0F0F0F0F0F0F0F0F0F0F0FAC
:105410000F0F0F0F0F0F0F0F0F0F0F0F0F0F0F0F9C
:105420000F0F0F0F0F0F0F0FFFFFFFFFFFFFFFFF0C
:10543000FFFFFFFFFFFFFFFFFFFFFFFF0F0F0F0F3C
:105440000F0F0F0F0F0F0F0F0F0F0F0F0F0F0F0F6C
:105450000F0F0F0F0F0F0F0F0F0F0F0F0F0F0F0F5C
:105460000F0F0F0FFFFFFFFFFFFFFFFFFFFFFFFF0C
:10547000FFFFFFFFFFFFFFFF0F0F0F0F0F0F0F0FBC
:105480000F0F0F0F0F0F0F0F0F0F0F0F0F0F0F0F2C
:105490000F0F0F0F0F0F0F0F0F0F0F0F0F0F0F0F1C
:1054A000FFFFFFFFFFFFFFFFFFFFFFFFFFFFFFFF0C
:1054B000FFFFFFFF0F0F0F0F0F0F0F0F0F0F0F0F3C
:1054C0000F0F0F0F0F0F0F0F0F0F0F0F0F0F0F0FEC
:1054D0000F0F0F0F0F0F0F0F0F0F0F0FFFFFFFFF1C
:1054E000FFFFFFFFFFFFFFFFFFFFFFFFFFFFFFFFCC
:1054F0000F0F0F0F0F0F0F0F0F0F0F0F0F0F0F0FBC
:105500000F0F0F0F0F0F0F0F0F0F0F0F0F0F0F0FAB
:105510000F0F0F0F0F0F0F0FFFFFFFFFFFFFFFFF1B
:10552000FFFFFFFFFFFFFFFFFFFFFFFF0F0F0F0F4B
:105530000F0F0F0F0F0F0F0F0F0F0F0F0F0F0F0F7B
:105540000F0F0F0F0F0F0F0F0F0F0F0F0F0F0F0F6B
:105550000F0F0F0FFFFFFFFFFFFFFFFFFFFFFFFF1B
:10556000FFFFFFFFFFFFFFFF0F0F0F0F0F0F0F0FCB
:105570000F0F0F0F0F0F0F0F0F0F0F0F0F0F0F0F3B
:105580000F0F0F0F0F0F0F0F0F0F0F0F0F0F0F0F2B
:10559000FFFFFFFFFFFFFFFFFFFFFFFFFFFFFFFF1B
:1055A000FFFFFFFF0F0F0F0F0F0F0F0F0F0F0F0F4B
:1055B0000F0F0F0F0F0F0F0F0F0F0F0F0F0F0F0FFB
:1055C0000F0F0F0F0F0F0F0F0F0F0F0FFFFFFFFF2B
:1055D000FFFFFFFFFFFFFFFFFFFFFFFFFFFFFFFFDB
:1055E0000F0F0F0F0F0F0F0F0F0F0F0F0F0F0F0FCB
:1055F0000F0F0F0F0F0F0F0F0F0F0F0F0F0F0F0FBB
:105600000F0F0F0F0F0F0F0FFFFFFFFFFFFFFFFF2A
:10561000FFFFFFFFFFFFFFFFFFFFFFFF0F0F0F0F5A
:105620000F0F0F0F0F0F0F0F0F0F0F0F0F0F0F0F8A
:105630000F0F0F0F0F0F0F0F0F0F0F0F0F0F0F0F7A
:105640000F0F0F0FFFFFFFFFFFFFFFFFFFFFFFFF2A
:10565000FFFFFFFFFFFFFFFF0F0F0F0F0F0F0F0FDA
:105660000F0F0F0F0F0F0F0F0F0F0F0F0F0F0F0F4A
:105670000F0F0F0F0F0F0F0F0F0F0F0F0F0F0F0F3A
:10568000FFFFFFFFFFFFFFFFFFFFFFFFFFFFFFFF2A
:10569000FFFFFFFF0F0F0F0F0F0F0F0F0F0F0F0F5A
:1056A0000F0F0F0F0F0F0F0F0F0F0F0F0F0F0F0F0A
:1056B0000F0F0F0F0F0F0F0F0F0F0F0FFFFFFFFF3A
:1056C000FFFFFFFFFFFFFFFFFFFFFFFFFFFFFFFFEA
:1056D0000F0F0F0F0F0F0F0F0F0F0F0F0F0F0F0FDA
:1056E0000F0F0F0F0F0F0F0F0F0F0F0F0F0F0F0FCA
:1056F0000F0F0F0F0F0F0F0FFFFFFFFFFFFFFFFF3A
:10570000FFFFFFFFFFFFFFFFFFFFFFFF0F0F0F0F69
:105710000F0F0F0F0F0F0F0F0F0F0F0F0F0F0F0F99
:105720000F0F0F0F0F0F0F0F0F0F0F0F0F0F0F0F89
:105730000F0F0F0FFFFFFFFFFFFFFFFFFFFFFFFF39
:10574000FFFFFFFFFFFFFFFF0F0F0F0F0F0F0F0FE9
:105750000F0F0F0F0F0F0F0F0F0F0F0F0F0F0F0F59
:105760000F0F0F0F0F0F0F0F0F0F0F0F0F0F0F0F49
:10577000FFFFFFFFFFFFFFFFFFFFFFFFFFFFFFFF39
:10578000FFFFFFFF0F0F0F0F0F0F0F0F0F0F0F0F69
:105790000F0F0F0F0F0F0F0F0F0F0F0F0F0F0F0F19
:1057A0000F0F0F0F0F0F0F0F0F0F0F0FFFFFFFFF49
:1057B000FFFFFFFFFFFFFFFFFFFFFFFFFFFFFFFFF9
:1057C0000F0F0F0F0F0F0F0F0F0F0F0F0F0F0F0FE9
:1057D0000F0F0F0F0F0F0F0F0F0F0F0F0F0F0F0FD9
:1057E0000F0F0F0F0F0F0F0FFFFFFFFFFFFFFFFF49
:1057F000FFFFFFFFFFFFFFFFFFFFFFFF0F0F0F0F79
:105800000F0F0F0F0F0F0F0F0F0F0F0F0F0F0F0FA8
:105810000F0F0F0F0F0F0F0F0F0F0F0F0F0F0F0F98
:105820000F0F0F0FFFFFFFFFFFFFFFFFFFFFFFFF48
:10583000FFFFFFFFFFFFFFFF0F0F0F0F0F0F0F0FF8
:105840000F0F0F0F0F0F0F0F0F0F0F0F0F0F0F0F68
:105850000F0F0F0F0F0F0F0F0F0F0F0F0F0F0F0F58
:10586000FFFFFFFFFFFFFFFFFFFFFFFFFFFFFFFF48
:10587000FFFFFFFF0F0F0F0F0F0F0F0F0F0F0F0F78
:105880000F0F0F0F0F0F0F0F0F0F0F0F0F0F0F0F28
:105890000F0F0F0F0F0F0F0F0F0F0F0FFFFFFFFF58
:1058A000FFFFFFFFFFFFFFFFFFFFFFFFFFFFFFFF08
:1058B0000F0F0F0F0F0F0F0F0F0F0F0F0F0F0F0FF8
:1058C0000F0F0F0F0F0F0F0F0F0F0F0F0F0F0F0FE8
:1058D0000F0F0F0F0F0F0F0FFFFFFFFFFFFFFFFF58
:1058E000FFFFFFFFFFFFFFFFFFFFFFFF0F0F0F0F88
:1058F0000F0F0F0F0F0F0F0F0F0F0F0F0F0F0F0FB8
:1059000033BBFFFFFFFFFFFFFFFFFFFFFFFFFFFFB7
:10591000FFFFFFFFFFFFFFFFFFFFFFFFFFFFFFFF97
:10592000FFFFFFFFFFFFFFFFFFFFFFFFFFFFFFFF87
:10593000FFFFFFFFFFFFFFFFFFFFBB330F33BBFF87
:10594000FFFFFFFFFFFFFFFFFFFFFFFFFFFFFFFF67
:10595000FFFFFFFFFFFFFFFFFFFFFFFFFFFFFFFF57
:10596000FFFFFFFFFFFFFFFFFFFFFFFFFFFFFFFF47
:10597000FFFFFFFFFFBB330F0F0F33BBFFFFFFFF27
:10598000FFFFFFFFFFFFFFFFFFFFFFFFFFFFFFFF27
:10599000FFFFFFFFFFFFFFFFFFFFFFFFFFFFFFFF17
:1059A000FFFFFFFFFFFFFFFFFFFFFFFFFFFFFFFF07
:1059B000BB330F0F0F0F0F33BBFFFFFFFFFFFFFFC7
:1059C000FFFFFFFFFFFFFFFFFFFFFFFFFFFFFFFFE7
:1059D000FFFFFFFFFFFFFFFFFFFFFFFFFFFFFFFFD7
:1059E000FFFFFFFFFFFFFFFFFFFFFFBB330F0F0FA7
:1059F0000F0F0F0F33BBFFFFFFFFFFFFFFFFFFFF87
:105A0000FFFFFFFFFFFFFFFFFFFFFFFFFFFFFFFFA6
:105A1000FFFFFFFFFFFFFFFFFFFFFFFFFFFFFFFF96
:105A2000FFFFFFFFFFFFBB330F0F0F0F0F0F0F0F16
:105A30000F33BBFFFFFFFFFFFFFFFFFFFFFFFFFF76
:105A4000FFFFFFFFFFFFFFFFFFFFFFFFFFFFFFFF66
:105A5000FFFFFFFFFFFFFFFFFFFFFFFFFFFFFFFF56
:105A6000FFBB330F0F0F0F0F0F0F0F0F0F0F33BBB6
:105A7000FFFFFFFFFFFFFFFFFFFFFFFFFFFFFFFF36
:105A8000FFFFFFFFFFFFFFFFFFFFFFFFFFFFFFFF26
:105A9000FFFFFFFFFFFFFFFFFFFFFFFFBB330F0F06
:105AA0000F0F0F0F0F0F0F0F0F0F0F33BBFFFFFF66
:105AB000FFFFFFFFFFFFFFFFFFFFFFFFFFFFFFFFF6
:105AC000FFFFFFFFFFFFFFFFFFFFFFFFFFFFFFFFE6
:105AD000FFFFFFFFFFFFFFBB330F0F0F0F0F0F0F76
