:020000040800F2
:10000000043D0120F10700084D0800084D080008D4
:100010004D0800084D0800084D08000800000000C9
:100020000000000000000000000000004D08000873
:100030004D080008000000004D0800084D080008A9
:100040004D0800084D0800084D0800084D0800083C
:100050004D0800084D0800084D0800084D0800082C
:100060004D0800084D0800084D0800084D0800081C
:100070004D0800084D0800084D0800084D0800080C
:100080004D0800084D0800084D0800084D080008FC
:100090004D0800084D0800084D0800084D080008EC
:1000A0004D0800084D0800084D0800084D080008DC
:1000B000213A00084D0800084D0800084D080008C6
:1000C0004D0800084D0800084D0800084D080008BC
:1000D0004D0800084D0800080D0600084D080008EE
:1000E0004D0800084D0800084D0800084D0800089C
:1000F0004D0800084D0800084D0800084D0800088C
:100100004D0800084D0800084D0800084D0800087B
:100110004D0800084D0800084D0800084D0800086B
:100120004D0800084D0800084D0800084D0800085B
:100130004D0800084D0800084D0800084D0800084B
:100140004D0800084D0800084D0800084D0800083B
:10015000DD3A00084D0800084D0800084D08000869
:100160004D0800084D0800084D0800084D0800081B
:100170004D0800084D0800084D0800084D0800080B
:100180004D0800084D08000880B58AB000AF7860BF
:10019000396000237B6200233B620023FB61002364
:1001A000BB617B681B8A9BB27B627B6A23F44053F2
:1001B0007B623B68DB881A467B6A13437B627B6AFF
:1001C0009AB27B681A827B689B899BB27B627B6A4E
:1001D00023F4B05323F00C037B623B689A883B689E
:1001E0001B8913439AB23B685B8913439BB21A463F
:1001F0007B6A13437B627B6A9AB27B689A817B68D5
:100200009B8A9BB27B627B6A23F440737B623B6870
:100210009B891A467B6A13437B627B6A9AB27B682E
:100220009A8207F10803184602F00CFE7B68304AF8
:10023000934203D07B682F4A934202D17B693B6291
:1002400001E03B693B627B689B899BB21BB2002B40
:100250000CDA3A6A13469B0013449A001A443B682E
:100260001B685B00B2FBF3F3FB610BE03A6A1346D9
:100270009B0013449A001A443B681B689B00B2FB26
:10028000F3F3FB61FB691C4AA2FB03235B091B011F
:100290007B627B6A1B09642202FB03F3FA69D31AAF
:1002A000BB617B689B899BB21BB2002B0CDABB69DC
:1002B000DB003233104AA2FB03235B0903F0070380
:1002C0007A6A13437B620BE0BB691B0132330A4A33
:1002D000A2FB03235B0903F00F037A6A13437B62DB
:1002E0007B6A9AB27B681A8100BF2837BD4680BD01
:1002F00000100140001401401F85EB5180B483B011
:1003000000AF78600B46FB70FB78002B08D07B6851
:100310009B899BB243F400539AB27B689A8107E0B1
:100320007B689B899BB223F400539AB27B689A81C5
:1003300000BF0C37BD4680BC704780B483B000AFAF
:1003400078600B467B807B88C3F308039AB27B6896
:100350009A8000BF0C37BD4680BC704780B487B020
:1003600000AF78600B467B8013467B7000233B61B7
:100370000023FB600023BB6000237B617B687B6103
:100380007B88DBB25B09DBB23B617B8803F01F0338
:10039000FB600122FB6802FA03F3BB603B69012B9F
:1003A00003D17B690C337B6109E03B69022B03D1EC
:1003B0007B6910337B6102E07B6914337B617B785E
:1003C000002B06D07B697A691168BA680A431A6003
:1003D00006E07B697A691168BA68D2430A401A60FC
:1003E00000BF1C37BD4680BC704780B485B000AFED
:1003F00078600B467B800023FB737B681B889AB276
:100400007B8813409BB2002B02D00123FB7301E0D9
:100410000023FB73FB7B18461437BD4680BC704736
:1004200080B487B000AF78600B467B800023FB6010
:1004300000237B610023BB600023FB747B88DBB25D
:100440005B09DBB2BB607B8803F01F037B61012289
:100450007B6902FA03F37B61BB68012B07D17B68E0
:100460009B899BB21A467B6913407B6111E0BB6894
:10047000022B07D17B681B8A9BB21A467B6913400B
:100480007B6106E07B689B8A9BB21A467B691340BE
:100490007B617B881B0A9BB2FB600122FB6802FA2E
:1004A00003F3FB607B681B889BB21A46FB68134012
:1004B000FB607B69002B05D0FB68002B02D0012379
:1004C000FB7401E00023FB74FB7C18461C37BD461F
:1004D00080BC704780B485B000AF78600B467B80ED
:1004E0000023FB810023BB817B881B0AFB81FB89E6
:1004F000012202FA03F3BB81BB89DB439AB27B681A
:100500001A8000BF1437BD4680BC704780B586B0E6
:1005100000AF01214FF4003002F05AFD012101200B
:1005200002F038FD0C233B6102233B750023BB75B1
:100530000123FB7502237B7507F11003194616484A
:1005400002F082FD07220221134802F00AFE072270
:100550000321114802F005FE4FF4E1333B60002314
:10056000BB800023FB8000233B810023BB810C2345
:100570007B813B4619460948FFF706FE012240F2FF
:1005800025510648FFF7EAFE01210448FFF7B6FEB1
:1005900000BF1837BD4680BD000002400044004047
:1005A00080B582B000AF0346FB7100BF80210848D0
:1005B000FFF71BFF0346002BF8D0FB799BB21946CF
:1005C0000348FFF7BAFE00BF0837BD4680BD00BF35
:1005D0000044004080B584B000AF78600023FB6029
:1005E00009E0FB687A6813441B781846FFF7D8FFC8
:1005F000FB680133FB60FB687A6813441B78002BAF
:10060000EFD100BF1037BD4680BD000080B582B07D
:1006100000AF40F225512748FFF702FF0346002BA9
:1006200044D040F225512348FFF754FF214B9B88CB
:100630009BB2FB70FB78402B05D9FB785A2B02D874
:10064000FB782033FB70FB780D2B1DD800237B60DB
:100650000BE0194A7B6813441B789BB21946154876
:10066000FFF76BFE7B6801337B60144B1B687A6875
:100670009A42EEDB114B00221A60FB789BB21946BE
:100680000C48FFF75AFE09E00C4B1B680A49FA7840
:10069000CA540A4B1B680133084A136000BF40214B
:1006A0000448FFF7A2FE0346002BF8D000BF08372E
:1006B000BD4680BD00440040B0050020AC050020D0
:1006C00080B582B000AFFF23FB7120210748FFF700
:1006D0008CFE0346012B03D1044B9B889BB2FB711C
:1006E000FB7918460837BD4680BD00BF0044004076
:1006F00080B582B000AF78603960FFF7E1FF034654
:100700001A467B681A707B681B78FF2B17D07B68B2
:100710001B780A2B13D03B68002B04D07B681B7816
:100720001846FFF73DFF7B681B780D2B03D17B68D4
:1007300000221A7005E07B6801337B60DDE700BFB3
:10074000DBE70837BD4680BD80B582B000AF034609
:10075000FB80FB88002B03D10F48FFF73BFF17E01E
:10076000FB88012B03D0FB88B3F5807F03D10B48B6
:10077000FFF730FF0CE0FB88022B03D10848FFF79E
:1007800029FF05E0FB88032B02D10648FFF722FF73
:1007900000BF0837BD4680BD005400080C54000857
:1007A000345400085454000880B500AF02F022FD14
:1007B00002F0C8FF002002F019F9FFF7A7FE0A486F
:1007C000FFF708FF01210948FFF792FF074800F0F3
:1007D00041F80346002BF5D000F082F80346184696
:1007E000FFF7B2FFEEE700BF74540008103301209A
:1007F00080B582B000AF104B7B60104B3B6007E0D0
:100800003B681A1D3A607A68111D796012681A6097
:100810003B680B4A9342F3D30A480B494FF000025E
:100820008842B8BF40F8042BFADBFFF7BDFF00BFDA
:100830000837BD4680BD00BF8DD1000800000020F4
:10084000AC050020AC0500200435012080B400AFC9
:10085000FEE7000090B585B000AF78600023FB7321
:100860000023BB734FF4C87200211C4804F0CAFA7D
:1008700000237B7313E0BA7B7B7BF97B78680144B0
:100880000C781649322000FB02F20A441344224637
:100890001A707B7B01337B73FB7B0133FB73FB7B28
:1008A0007A6813441B782C2B05D0FB7B7A681344A1
:1008B0001B78002BDFD1FB7B7A6813441B78002B5D
:1008C00006D0BB7B0133BB73FB7B0133FB73CFE7EC
:1008D00000BFBB7B18461437BD4690BD7433012062
:1008E0002DE9F04788B006AFAA4B1B78623B152B69
:1008F00000F2498101A252F823F000BF2B0B00083F
:100900005D0B0008670A0008B5090008870B00089E
:10091000870B0008870B0008870B0008870B00086F
:10092000870B000855090008870B0008870B000893
:10093000870B0008870B0008870B00080B0A0008CC
:10094000870B0008E50A0008870B0008870B0008E2
:10095000710B0008904804F051FA03469DB28F488D
:1009600004F04CFA03469BB2C3F1EF039EB28C48ED
:1009700004F044FA03461FFA83F88A4804F03EFA6A
:1009800003469BB2C3F1EF031FFA83F9864804F0D4
:1009900035FA0346DCB2854800F00CF903460193B2
:1009A00000944B4642463146284600F0CDFB0346B4
:1009B000FB80E8E0784804F021FA03469CB27748CF
:1009C00004F01CFA03469BB2C3F1EF039DB27448D6
:1009D00004F014FA03469EB2724804F00FFA03467C
:1009E0001FFA83F8704800F0E5F803461A46012321
:1009F0000293019201230093434632462946204642
:100A000000F080FE0346FB80BDE0634804F0F6F989
:100A100003469CB2614804F0F1F903469BB2C3F16E
:100A2000EF039DB25E4804F0E9F903469EB25D48CB
:100A300004F0E4F903469BB2C3F1EF031FFA83F815
:100A4000594800F0B7F803461A4601230293019271
:100A500001230093434632462946204601F0B0F870
:100A60000346FB808FE04C4804F0C8F903469EB271
:100A70004A4804F0C3F903469BB2C3F1EF031FFADF
:100A800083F8474804F0BAF903461FFA83F945484A
:100A900004F0B4F903469BB2C3F1EF031FFA83FAE3
:100AA000414804F0ABF903469CB2404804F0A6F973
:100AB00003469BB2C3F1EF039DB23D4800F07AF8C4
:100AC00003461A46012304930392012302930195DE
:100AD000009453464A464146304601F025F9034604
:100AE000FB8050E02C4804F089F903469CB22B4867
:100AF00004F084F903469BB2C3F1EF039DB2294889
:100B000000F058F803461E46274800F0F7F8034661
:100B100002930196012300930123214A294620468E
:100B200000F066F90346FB802DE01C4804F066F9EE
:100B300003469CB21A4804F061F903469BB2C3F124
:100B4000EF039DB2144800F003F903461A46294604
:100B5000204601F001FF0346FB8014E00E4800F040
:100B600029F80346184601F041FF0346FB800AE0DE
:100B7000094804F043F903469BB2184601F05AFFB6
:100B80000346FB8000BFFB8818460837BD46BDE81A
:100B9000F08700BF74330120A6330120D833012031
:100BA0000A3401203C3401206E340120A03401209D
:100BB000D234012080B582B000AF786079684148B6
:100BC00004F072F90346002B01D1032375E0796824
:100BD0003D4804F069F90346002B01D10B236CE07A
:100BE00079683A4804F060F90346002B01D11C23D0
:100BF00063E07968364804F057F90346002B01D1C9
:100C00005D235AE07968334804F04EF90346002B1F
:100C100001D11F2351E079682F4804F045F90346BC
:100C2000002B01D19B2348E079682C4804F03CF963
:100C30000346002B01D1E0233FE07968284804F007
:100C400033F90346002B01D1E92336E079682548C2
:100C500004F02AF90346002B01D1E3232DE0796843
:100C6000214804F021F90346002B01D1F32324E0AD
:100C700079681E4804F018F90346002B01D1882337
:100C80001BE079681A4804F00FF90346002B01D1E4
:100C9000FC2312E07968174804F006F90346002B9C
:100CA00001D1922309E07968134804F0FDF8034666
:100CB000002B01D1FF2300E0002318460837BD4672
:100CC00080BD00BF28B5000830B500083CB500085D
:100CD00044B5000850B5000858B5000864B50008D0
:100CE0006CB5000878B5000880B5000890B500081C
:100CF00098B50008A0B50008A8B5000880B582B076
:100D000000AF786079680F4804F0CEF80346002BF6
:100D100001D1012312E079680B4804F0C5F80346BD
:100D2000002B01D1022309E07968084804F0BCF8DF
:100D30000346002B01D1032300E0002318460837A7
:100D4000BD4680BDACB50008B4B50008B8B5000814
:100D500080B582B000AF7860786804F04FF8034641
:100D6000002B01D11B4B30E0786804F047F80346B4
:100D7000012B01D1184B28E0786804F03FF80346B6
:100D8000022B01D1154B20E0786804F037F80346B8
:100D9000032B01D1124B18E0786804F02FF80346BA
:100DA000042B01D10F4B10E0786804F027F80346BC
:100DB000052B01D10C4B08E0786804F01FF80346BE
:100DC000062B01D1094B00E0002318460837BD4629
:100DD00080BD00BFA0740008B4820008C89000085D
:100DE000DC9E0008985400089C640008F0AC0008E1
:100DF00080B58AB000AFBA601A460346FB810B4645
:100E0000BB811346FB71FB89B3F5A07F02D2BB897E
:100E1000EF2B01D9012386E1FB79012B02D0FB796D
:100E2000022B0FD197F83830012B07D097F83830C4
:100E3000022B03D097F83830032B03D197F83030CA
:100E40000A2B01D903236EE10023FB84002387F8DA
:100E50002530B86804F094F903463B830C23FB82E9
:100E60000723BB82002387F8243054E1FA89BB8A28
:100E700097F8301001FB03F397F82410013101FBC0
:100E800003F31A4497F83030B98A01FB03F397F85B
:100E9000251001FB03F303F5A0739A4206DBFB8CDC
:100EA0000133FB8497F8243087F8253097F82430F5
:100EB000BA6813441B78184601F0DAFD03469BB26A
:100EC000FA8A12FB03F37B8497F830309BB2FA8ADC
:100ED00012FB03F39BB2BA89D31A9BB2013B3B844A
:100EE0000EE10023FB83FBE00023BB83F1E0002342
:100EF0007B83E4E097F830309BB2BA8B12FB03F3AC
:100F00009AB2FB8913449AB27B8BD31A9AB297F8A0
:100F100030309BB2B98A11FB03F399B297F82430B1
:100F20009BB211FB03F39BB213449AB297F8303093
:100F30009BB2B98A11FB03F399B297F825309BB2A3
:100F400011FB03F39BB2D31A7B823A8CFB8B1344C5
:100F50009AB297F830309BB2F98C11FB03F39BB235
:100F6000F98A11FB03F39BB213443B823B8AEF2BBC
:100F700001D90223D7E0FB79012B48D197F838300B
:100F8000022B19D0032B2CD0012B40F095807B8CA9
:100F9000674AD35C1A46BB8BC3F1080342FA03F3DA
:100FA00003F00103002B7CD097F83420398A7B8A28
:100FB000184601F0ABFC74E07B8C5E4AD35C1A46A9
:100FC000BB8BC3F1080342FA03F303F00103002BC8
:100FD00069D097F83420398A7B8A184601F096FC4C
:100FE00061E07B8C544AD35C1A46BB8BC3F1080387
:100FF00042FA03F303F00103002B56D097F8342094
:10100000398A7B8A184601F081FC00BF4DE0FB79EC
:10101000022B51D197F83830022B18D0032B2BD04C
:10102000012B49D17B8C454AD35C1A46BB8BC3F15B
:10103000080342FA03F303F00103002B37D097F8BB
:101040003420398A7B8A184601F060FC2FE07B8CC3
:101050003B4AD35C1A46BB8BC3F1080342FA03F345
:1010600003F00103002B24D097F83420398A7B8ABF
:10107000184601F04BFC1CE07B8C324AD35C1A46CC
:10108000BB8BC3F1080342FA03F303F00103002B07
:1010900011D097F83420398A7B8A184601F036FC43
:1010A00009E000BF08E000BF06E000BF04E000BFA9
:1010B00002E000BF00E000BF7B8B01337B8397F829
:1010C00030309BB27A8B9A42FFF414AFBB8B013362
:1010D000BB83BB8B072B7FF60AAFFB8B0133FB83F4
:1010E00097F830309BB2FA8B9A42FFF4FDAE7B8CBE
:1010F00001337B8497F830309AB23B8C13443B84A5
:101100003A8CBB89013B9A42FFF6EBAE97F824304C
:10111000013387F8243097F824309BB23A8B9A42F7
:101120003FF6A4AE002318462837BD4680BD00BF59
:10113000C0B50008A8BE000834BA00081CC30008E7
:1011400090C7000804CC000890B591B000AF0446E9
:10115000084611461A462346FB800346BB800B46D1
:101160007B8013463B80FB88B3F5A07F09D27B8848
:10117000B3F5A07F05D2BB88EF2B02D83B88EF2BBD
:1011800001D90123B7E297F85030322B01D902235D
:10119000B1E297F85030FB827A88FB889A424DD1B1
:1011A00000237B8746E0FB880133FB807B8801338B
:1011B0007B80BB88BB873B88FB8700233B8732E073
:1011C000BB8F0133BB87FB8F0133FB87BA883B881A
:1011D0009A4210D3FB8FFB8609E097F85420F98ED2
:1011E0007B88184601F092FBFB8E0133FB86FA8E5A
:1011F000BB8F9A42F1D9BA883B889A4210D2BB8FF2
:10120000BB8609E097F85420B98E7B88184601F018
:101210007DFBBB8E0133BB86BA8EFB8F9A42F1D920
:101220003B8F01333B873A8FFB8A9A42C8D97B8F29
:1012300001337B877A8FFB8A9A42B4D93A88BB887C
:101240009A4252D100237B864AE0FB880133FB801F
:101250007B8801337B80BB88BB873B88FB8700236F
:101260003B8636E0BB8F0133BB87FB8F0133FB87A7
:101270007B88BB82FB887B82FA887B889A4210D964
:10128000BB8AFB8509E097F85420F98FFB8D18463F
:1012900001F03CFBFB8D0133FB85FA8D7B8A9A4282
:1012A000F1D97A8ABB8A9A4210D27B8ABB8509E03F
:1012B00097F85420B98FBB8D184601F027FBBB8DE2
:1012C0000133BB85BA8DBB8A9A42F1D93B8E01337B
:1012D0003B863A8EFB8A9A42C4D97B8E01337B8649
:1012E0007A8EFB8A9A42B0D904E23A88BB88D31A34
:1012F000184603F049FB04467A88FB88D31A18463F
:1013000003F042FB03461946204603F045FC034622
:10131000FB6000237B85E8E1FB880133FB807B8851
:1013200001337B80BB88BB873B88FB8700233B85E1
:10133000D3E1BB8F0133BB87FB8F0133FB87FA8877
:101340007B889A426DD2BA8FFB8F9A4269D24FF056
:101350007E51F86803F014FD0346002B34D08E490B
:10136000F86803F017FD0346002B2DD0FB88FB84A3
:1013700025E0FA8CFB88D31A184603F005FB0346D8
:10138000F968184603F054FB03461C46BB8F184609
:1013900003F0FAFA03461946204603F041FA0346E1
:1013A000184603F00BFD03467B8197F8542079899A
:1013B000FB8C184601F0AAFAFB8C0133FB84FA8CF3
:1013C0007B889A42D5D92CE0BB8FBB8425E0BA8CB0
:1013D000BB8FD31A184603F0D7FA0346F9681846AC
:1013E00003F0DAFB03461C46FB88184603F0CCFAF0
:1013F00003461946204603F013FA0346184603F045
:10140000DDFC03463B8197F85420B98C3B89184694
:1014100001F07CFABB8C0133BB84BA8CFB8F9A42FF
:10142000D5D9FA887B889A426DD9BA8FFB8F9A42B8
:1014300069D24FF07E51F86803F0A2FC0346002BFE
:1014400034D05549F86803F0A5FC0346002B2DD095
:101450007B887B8425E07A8CFB88D31A184603F0BE
:1014600093FA0346F968184603F0E2FA03461C466D
:10147000BB8F184603F088FA03461946204603F04E
:10148000CFF90346184603F099FC03467B8197F891
:10149000542079897B8C184601F038FA7B8C013313
:1014A0007B847A8CFB889A42D5D92CE0BB8F3B8415
:1014B00025E03A8CBB8FD31A184603F065FA034631
:1014C000F968184603F068FB03461C46FB8818467B
:1014D00003F05AFA03461946204603F0A1F90346E1
:1014E000184603F06BFC03463B8197F85420398C77
:1014F0003B89184601F00AFA3B8C01333B843A8C55
:10150000FB8F9A42D5D9FA887B889A4270D9BA8FD4
:10151000FB8F9A426CD94FF07E51F86803F030FC93
:101520000346002B34D01C49F86803F033FC034613
:10153000002B2DD07B88FB8325E0FA8BFB88D31A08
:10154000184603F021FA0346F968184603F070FACA
:1015500003461C46BB8F184603F016FA034619468D
:10156000204603F05DF90346184603F027FC0346C6
:101570007B8197F854207989FB8B184601F0C6F9D6
:10158000FB8B0133FB83FA8BFB889A42D5D92FE082
:10159000FB8FBB8328E000BF000080BFBA8BBB8FEE
:1015A000D31A184603F0F0F90346F968184603F019
:1015B000F3FA03461C46FB88184603F0E5F9034698
:1015C0001946204603F02CF90346184603F0F6FBB3
:1015D00003463B8197F85420B98B3B89184601F0AC
:1015E00095F9BB8B0133BB83BA8BBB8F9A42D5D99C
:1015F000FA887B889A426DD2BA8FFB8F9A4269D95A
:101600004FF07E51F86803F0BBFB0346002B34D04B
:101610003B49F86803F0BEFB0346002B2DD0FB8846
:101620007B8325E07A8BFB88D31A184603F0ACF94C
:101630000346F968184603F0FBF903461C46BB8FC6
:10164000184603F0A1F903461946204603F0E8F8CE
:101650000346184603F0B2FB03467B8197F85420FB
:1016600079897B8B184601F051F97B8B01337B83A1
:101670007A8B7B889A42D5D92CE0FB8F3B8325E07F
:101680003A8BBB8FD31A184603F07EF90346F968EC
:10169000184603F081FA03461C46FB88184603F0FF
:1016A00073F903461946204603F0BAF80346184674
:1016B00003F084FB03463B8197F85420398B3B8928
:1016C000184601F023F93B8B01333B833A8BBB8FE8
:1016D0009A42D5D93B8D01333B853A8DFB8A9A429C
:1016E0007FF627AE7B8D01337B857A8DFB8A9A420C
:1016F0007FF612AE002318464437BD4690BD00BFAA
:10170000000080BFB0B588B000AF0446084611465F
:101710001A462346FB800346BB800B467B8013465C
:101720003B80FB88002B16D0BB88002B13D07B8816
:10173000002B10D03B88002B0DD0FB88B3F5A07F89
:1017400009D2BB88EF2B06D87B88B3F5A07F02D2E5
:101750003B88EF2B01D901232BE2FA887B881344C5
:10176000B3F5A07F01DB012323E2FA887B88D31A3B
:10177000002B01DC01231CE2BA883B881344EF2BC9
:1017800001DD012315E2BA883B88D31A002B01DC66
:1017900001230EE27A883B889A420FD397F83030C3
:1017A0009AB279883B88B1FBF3F39BB27988B1FB9D
:1017B000F3F39BB29A4201D90223FAE17A883B887B
:1017C0009A420FD297F830309AB239887B88B1FBB1
:1017D000F3F39BB23988B1FBF3F39BB29A4201D980
:1017E0000223E6E197F83830002B0DD07A883B8849
:1017F0009A4202D33B8887F830307A883B889A42F5
:1018000002D27B8887F830300023FB81C9E17B88D6
:10181000013B7B803B88013B3B800023BB81B9E1DE
:1018200097F83030012B23D9BB89002B05D1FB88D9
:10183000013B7B82BB883B8220E0BB89012B05D129
:10184000FB887B82BB88013B3B8217E0BB89022B74
:1018500005D1BB883B82FB8801337B820EE0BB89CC
:10186000032B0BD1FB887B82BB8801333B8205E0D5
:10187000FB887B82BB883B820423BB810023FB6106
:101880003B88BB613A887B88798801FB03F3D31AD4
:101890003A8802FB03F27B88798801FB03F3002B73
:1018A00000DA03339B1013447B6171E0FB699AB249
:1018B0007B8A134498B2BB699BB23A8AD31A9BB213
:1018C00097F83420194601F021F8FB699BB27A8A17
:1018D000D31A98B2BB699AB23B8A13449BB297F869
:1018E0003420194601F012F8FB699AB27B8A13443E
:1018F00098B2BB699AB23B8A13449BB297F83420E2
:10190000194601F003F8FB699BB27A8AD31A98B2A0
:10191000BB699BB23A8AD31A9BB297F83420194616
:1019200000F0F4FF7B69002B13DAFB690133FB61E4
:101930003B885B003A8802FB03F3FA6902FB03F27F
:101940007B691A443B88398801FB03F313447B61AC
:101950001EE0FB690133FB61BB69013BBB613B8856
:101960005B003A8802FB03F3FA6902FB03F23B884F
:10197000398801FB03F31A447B691A447B885B00B6
:10198000798801FB03F3B96901FB03F3D31A7B6187
:10199000FB695B003A8802FB03F33A8802FB03F21F
:1019A000BB695B00798801FB03F3798801FB03F3D2
:1019B0009A42FFF67BAFF86902F0E6FF034618464D
:1019C00002F09AFC4FF000027C4B02F037FB03461A
:1019D0000C4625461C46F86902F0D6FF0346184619
:1019E00002F08AFC4FF00002744B02F027FB024623
:1019F0000B462046294602F0D3FC03460C462546FA
:101A00001C463B88184602F065FC02460B46204601
:101A1000294602F0C5FC03460C4625461C463B8879
:101A2000184602F057FC02460B462046294602F0B3
:101A3000B7FC03460C4625461C46BB69013BBA6908
:101A4000013A02FB03F37A8802FB03F37A8802FB74
:101A500003F3184602F03EFC02460B462046294698
:101A600002F0ECFA03460C4625461C467B887A8831
:101A700002FB03F33A8802FB03F33A8802FB03F309
:101A8000184602F027FC02460B462046294602F083
:101A9000D3FA03460C461846214602F093FE03464D
:101AA0007B6171E0FB699AB27B8A134498B2BB698F
:101AB0009BB23A8AD31A9BB297F83420194600F0A9
:101AC00025FFFB699BB27A8AD31A98B2BB699AB296
:101AD0003B8A13449BB297F83420194600F016FF56
:101AE000FB699AB27B8A134498B2BB699AB23B8A6B
:101AF00013449BB297F83420194600F007FFFB69A6
:101B00009BB27A8AD31A98B2BB699BB23A8AD31A2B
:101B10009BB297F83420194600F0F8FE7B69002B41
:101B200013DDBB69013BBB617B885B007A8802FBEC
:101B300003F3BA6902FB03F37A69D21A7B887988C6
:101B400001FB03F313447B611EE0BB69013BBB61F6
:101B5000FB690133FB613B885B003A8802FB03F3BE
:101B6000FA6902FB03F27B691A447B885B0079887F
:101B700001FB03F3B96901FB03F3D21A7B8879886F
:101B800001FB03F3D31A7B61BB69002B8ADABB89A3
:101B90000133BB81BB89032B7FF642AEFB89013346
:101BA000FB8197F830309BB2FA899A42FFF42FAE4E
:101BB000002318462037BD46B0BD00BF0000E03FFF
:101BC00090B587B000AF0446084611461A46234632
:101BD000FB800346BB800B467B8013463B807B88A3
:101BE000B3F5A07F02D2BB88EF2B01D9012396E089
:101BF00097F82820B9883B88CB1AD90F0B445B1083
:101C00009A4201DD02238AE097F83030002B13D18D
:101C100097F828207988FB88CB1AD90F0B445B10E2
:101C20009A4209DA97F82820B9883B88CB1AD90F4D
:101C30000B445B109A421DD13B88FB8214E0FB8869
:101C4000BB8209E097F82C20F98ABB8A184600F07D
:101C50005DFEBB8A0133BB82BA8A7B8801339A421C
:101C6000F0DBFB8A0133FB82FA8ABB8801339A429C
:101C7000E5DB53E00023FB744BE0FB883B8218E07C
:101C8000FB7C9AB23B88134499B297F82C203B8A8C
:101C9000184600F03BFEFB7C9BB2BA88D31A99B27F
:101CA00097F82C203B8A184600F030FE3B8A01331F
:101CB0003B823A8A7B8801339A42E1DB97F82830ED
:101CC0009AB23B881344FB8118E0FB7C9AB2FB88F4
:101CD00013449BB297F82C20F989184600F016FEA1
:101CE000FB7C9BB27A88D31A9BB297F82C20F98997
:101CF000184600F00BFEFB890133FB81FA89BB8893
:101D0000591C97F82830CB1A9A42DEDBFB7C013352
:101D1000FB74FA7C97F828309A42AED30023184619
:101D20001C37BD4690BD0000B0B5ADF5806D02AF6B
:101D300005460C4610461946BB1D2A461A803B1D17
:101D400022461A80BB1C02461A803B460A461A806D
:101D5000BB1D1B88B3F5A07F15D2BB1C1B88B3F538
:101D6000A07F10D2B7F80834B3F5A07F0BD23B1D8B
:101D70001B88EF2B07D83B461B88EF2B03D8B7F8FF
:101D80000C34EF2B02D9012300F0BABD97F81034C0
:101D9000322B02D9022300F0B3BD97F8183483F038
:101DA0000103DBB2002B51D03B461C88BB1C1A88B8
:101DB0003B1D1988BB1D188897F814340193012323
:101DC00000932346FFF7C0F9034687F8CF33B7F8EF
:101DD0000C44B7F808243B1D1988BB1D188897F8D8
:101DE00014340193012300932346FFF7ADF9034612
:101DF00087F8CE33B7F80C44B7F808243B46198867
:101E0000BB1C188897F814340193012300932346D0
:101E1000FFF79AF9034687F8CD3397F8CF33002BB5
:101E200003D097F8CF3300F06BBD97F8CE33002B7B
:101E300003D097F8CE3300F063BD97F8CD33002B75
:101E400000F05D8597F8CD3300F05ABD07F1080327
:101E50004FF470720021184602F0D4FF002387F877
:101E6000F733002387F8E93300F0F3BC97F8E93340
:101E7000012B14D0022B23D0002B32D1BB1D1B8889
:101E8000A7F8F4333B1D1B88A7F8F233BB1C1B8853
:101E9000A7F8F0333B461B88A7F8EE3321E0BB1DC3
:101EA0001B88A7F8F4333B1D1B88A7F8F233B7F85B
:101EB0000834A7F8F033B7F80C34A7F8EE3310E085
:101EC000BB1C1B88A7F8F4333B461B88A7F8F233EA
:101ED000B7F80834A7F8F033B7F80C34A7F8EE33A6
:101EE00000BFB7F8F023B7F8F4339A4240F0888087
:101EF000B7F8F223B7F8EE339A423DD3B7F8EE3392
:101F0000A7F8E63332E0B7F8E62307F1080333F821
:101F10002230B7F8F0239A4207D3B7F8E62307F147
:101F2000080333F82230002B07D1B7F8E62307F176
:101F30000803B7F8F01323F82210B7F8E63307F1D7
:101F400008029B0013445B88B7F8F0239A4208D933
:101F5000B7F8E63307F108029B001344B7F8F02303
:101F60005A80B7F8E6330133A7F8E633B7F8E6232B
:101F7000B7F8F2339A42C6D9B7F8F223B7F8EE337E
:101F80009A423DD2B7F8F233A7F8E43332E0B7F81B
:101F9000E42307F1080333F82230B7F8F0239A421C
:101FA00007D3B7F8E42307F1080333F82230002BF6
:101FB00007D1B7F8E42307F10803B7F8F01323F8C3
:101FC0002210B7F8E43307F108029B0013445B8842
:101FD000B7F8F0239A4208D9B7F8E43307F10802BA
:101FE0009B001344B7F8F0235A80B7F8E433013369
:101FF000A7F8E433B7F8E423B7F8EE339A42C6D92A
:10200000B7F8EE23B7F8F2339A4240F08A80B7F877
:10201000F423B7F8F0339A423DD9B7F8F033A7F874
:10202000E23332E0B7F8EE2307F1080333F8223049
:10203000B7F8E2239A4207D3B7F8EE2307F1080373
:1020400033F82230002B07D1B7F8EE2307F108034D
:10205000B7F8E21323F82210B7F8EE3307F10802BD
:102060009B0013445B88B7F8E2239A4208D9B7F87B
:10207000EE3307F108029B001344B7F8E2235A80BD
:10208000B7F8E2330133A7F8E233B7F8E223B7F841
:10209000F4339A42C6D9B7F8F423B7F8F0339A422A
:1020A00080F0D283B7F8F433A7F8E03332E0B7F822
:1020B000F22307F1080333F82230B7F8E0239A42FD
:1020C00007D3B7F8F22307F1080333F82230002BC7
:1020D00007D1B7F8F22307F10803B7F8E01323F8A4
:1020E0002210B7F8F23307F108029B0013445B8813
:1020F000B7F8E0239A4208D9B7F8F23307F108029B
:102100009B001344B7F8E0235A80B7F8E03301335B
:10211000A7F8E033B7F8E023B7F8F0339A42C6D90E
:1021200092E3B7F8EE23B7F8F233D31A184602F069
:102130002BFC0446B7F8F023B7F8F433D31A18464B
:1021400002F022FC03461946204602F025FD034614
:10215000C7F8C833B7F8F423B7F8F0339A4280F0E1
:10216000D780B7F8F223B7F8EE339A4280F0D080E8
:102170004FF07E51D7F8C80302F002FE0346002B51
:1021800067D0A549D7F8C80302F004FE0346002B28
:102190005FD0B7F8F433A7F8DE3353E0B7F8DE23A7
:1021A000B7F8F433D31A184602F0EEFB0346D7F81B
:1021B000C813184602F03CFC03461C46B7F8F2333D
:1021C000184602F0E1FB03461946204602F028FBC0
:1021D0000346184602F0F2FD0346A7F8EC33B7F8C1
:1021E000EC2307F1080333F82230B7F8DE239A42D4
:1021F00007D3B7F8EC2307F1080333F82230002B9C
:1022000007D1B7F8EC2307F10803B7F8DE1323F87A
:102210002210B7F8EC3307F108029B0013445B88E7
:10222000B7F8DE239A4208D9B7F8EC3307F1080271
:102230009B001344B7F8DE235A80B7F8DE3301332E
:10224000A7F8DE33B7F8DE23B7F8F0339A42A5D902
:102250005EE0B7F8F233A7F8DC3353E0B7F8DC23DD
:10226000B7F8F233D31A184602F08EFB0346D7F8BC
:10227000C813184602F090FC03461C46B7F8F43326
:10228000184602F081FB03461946204602F0C8FAC0
:102290000346184602F092FD0346A7F8EA33B7F862
:1022A000DC2307F1080333F82230B7F8EA239A4217
:1022B00007D3B7F8DC2307F1080333F82230002BEB
:1022C00007D1B7F8DC2307F10803B7F8EA1323F8BE
:1022D0002210B7F8DC3307F108029B0013445B8837
:1022E000B7F8EA239A4208D9B7F8DC3307F10802B5
:1022F0009B001344B7F8EA235A80B7F8DC33013364
:10230000A7F8DC33B7F8DC23B7F8EE339A42A5D947
:10231000B7F8F423B7F8F0339A4240F2D980B7F80F
:10232000F223B7F8EE339A4280F0D2804FF07E511C
:10233000D7F8C80302F024FD0346002B67D03649C6
:10234000D7F8C80302F026FD0346002B5FD0B7F88C
:10235000F033A7F8DA3353E0B7F8DA23B7F8F433F9
:10236000D31A184602F010FB0346D7F8C8131846D4
:1023700002F05EFB03461C46B7F8F233184602F043
:1023800003FB03461946204602F04AFA0346184664
:1023900002F014FD0346A7F8EC33B7F8EC2307F17D
:1023A000080333F82230B7F8DA239A4207D3B7F894
:1023B000EC2307F1080333F82230002B07D1B7F8DC
:1023C000EC2307F10803B7F8DA1323F82210B7F863
:1023D000EC3307F108029B0013445B88B7F8DA235B
:1023E0009A4208D9B7F8EC3307F108029B0013446E
:1023F000B7F8DA235A80B7F8DA330133A7F8DA33BB
:10240000B7F8DA23B7F8F4339A42A5D960E0B7F801
:10241000F233A7F8D83355E0000080BFB7F8D823CF
:10242000B7F8F233D31A184602F0AEFA0346D7F8DB
:10243000C813184602F0B0FB03461C46B7F8F43345
:10244000184602F0A1FA03461946204602F0E8F9C0
:102450000346184602F0B2FC0346A7F8EA33B7F881
:10246000D82307F1080333F82230B7F8EA239A4259
:1024700007D3B7F8D82307F1080333F82230002B2D
:1024800007D1B7F8D82307F10803B7F8EA1323F800
:102490002210B7F8D83307F108029B0013445B8879
:1024A000B7F8EA239A4208D9B7F8D83307F10802F7
:1024B0009B001344B7F8EA235A80B7F8D8330133A6
:1024C000A7F8D833B7F8D823B7F8EE339A42A5D98E
:1024D000B7F8F423B7F8F0339A4240F2D780B7F850
:1024E000F223B7F8EE339A4240F2D0804FF07E519B
:1024F000D7F8C80302F044FC0346002B67D0D94943
:10250000D7F8C80302F046FC0346002B5FD0B7F8AB
:10251000F033A7F8D63353E0B7F8D623B7F8F4333F
:10252000D31A184602F030FA0346D7F8C8131846F3
:1025300002F07EFA03461C46B7F8F233184602F062
:1025400023FA03461946204602F06AF90346184664
:1025500002F034FC0346A7F8EC33B7F8EC2307F19C
:10256000080333F82230B7F8D6239A4207D3B7F8D6
:10257000EC2307F1080333F82230002B07D1B7F81A
:10258000EC2307F10803B7F8D61323F82210B7F8A5
:10259000EC3307F108029B0013445B88B7F8D6239D
:1025A0009A4208D9B7F8EC3307F108029B001344AC
:1025B000B7F8D6235A80B7F8D6330133A7F8D63305
:1025C000B7F8D623B7F8F4339A42A5D95EE0B7F846
:1025D000EE33A7F8D43353E0B7F8D423B7F8F23387
:1025E000D31A184602F0D0F90346D7F8C813184694
:1025F00002F0D2FA03461C46B7F8F433184602F04C
:10260000C3F903461946204602F00AF90346184664
:1026100002F0D4FB0346A7F8EA33B7F8D42307F156
:10262000080333F82230B7F8EA239A4207D3B7F801
:10263000D42307F1080333F82230002B07D1B7F871
:10264000D42307F10803B7F8EA1323F82210B7F8E8
:10265000D43307F108029B0013445B88B7F8EA23E0
:102660009A4208D9B7F8D43307F108029B00134403
:10267000B7F8EA235A80B7F8D4330133A7F8D43334
:10268000B7F8D423B7F8F2339A42A5D9B7F8F423B0
:10269000B7F8F0339A4280F0D780B7F8F223B7F852
:1026A000EE339A4240F2D0804FF07E51D7F8C80303
:1026B00002F066FB0346002B67D06A49D7F8C803CF
:1026C00002F068FB0346002B5FD0B7F8F433A7F89D
:1026D000D23353E0B7F8D223B7F8F433D31A1846FD
:1026E00002F052F90346D7F8C813184602F0A0F9D1
:1026F00003461C46B7F8F233184602F045F9034684
:102700001946204602F08CF80346184602F056FBA4
:102710000346A7F8EC33B7F8EC2307F1080333F8C6
:102720002230B7F8D2239A4207D3B7F8EC2307F147
:10273000080333F82230002B07D1B7F8EC2307F158
:102740000803B7F8D21323F82210B7F8EC3307F1D7
:1027500008029B0013445B88B7F8D2239A4208D939
:10276000B7F8EC3307F108029B001344B7F8D22303
:102770005A80B7F8D2330133A7F8D233B7F8D2234F
:10278000B7F8F0339A42A5D95EE0B7F8EE33A7F870
:10279000D03353E0B7F8D023B7F8F233D31A184642
:1027A00002F0F2F80346D7F8C813184602F0F4F91D
:1027B00003461C46B7F8F433184602F0E5F8034622
:1027C0001946204602F02CF80346184602F0F6FAA5
:1027D0000346A7F8EA33B7F8D02307F1080333F824
:1027E0002230B7F8EA239A4207D3B7F8D02307F18B
:1027F000080333F82230002B07D1B7F8D02307F1B4
:102800000803B7F8EA1323F82210B7F8D03307F11A
:1028100008029B0013445B88B7F8EA239A4208D960
:10282000B7F8D03307F108029B001344B7F8EA2346
:102830005A80B7F8D0330133A7F8D033B7F8D02394
:10284000B7F8F2339A42A5D997F8E933013387F8FC
:10285000E93397F8E933022B7FF608AB0023A7F89A
:10286000EC3348E0000080BF0123A7F8EA3335E0ED
:10287000B7F8EC2307F1080333F82230B7F8EA235E
:102880009A420BD1012387F8F73397F81424B7F84D
:10289000EC13B7F8EA33184600F038F897F8F73336
:1028A000002B08D097F81424B7F8EC13B7F8EA33E4
:1028B000184600F02BF8B7F8EC3307F108029B003C
:1028C00013445B88B7F8EA239A4202D1002387F8C1
:1028D000F733B7F8EA330133A7F8EA33B7F8EA3346
:1028E000B3F5A07FC4D3002387F8F733B7F8EC33F0
:1028F0000133A7F8EC33B7F8EC33EF2BB4D900234E
:10290000184607F57E77BD46B0BD00BF80B483B0E2
:1029100000AF0346FB800B46BB801346FB70FB8871
:10292000B3F5A07F0FD2BB88EF2B0CD8BA88134623
:102930009B0013449B011A44FB8813440549FA7811
:10294000CA54002300E0012318460C37BD4680BC62
:10295000704700BF2006002080B584B000AF03465A
:102960003A60FB800B46BB80FB883A6812881344B0
:10297000B3F5A07F02DABB88EF2B01D9012331E048
:102980003B68002B01D103232CE00023FB603B6854
:102990005B88BA88D31A9BB201337B811CE0FB8829
:1029A0003B810FE03A68FB68134404331A78798955
:1029B0003B891846FFF7AAFFFB680133FB603B89A0
:1029C00001333B813A89FB88396809880B449A4274
:1029D000E8DB7B8901337B817A89BB8801339A42AA
:1029E000DDDB002318461037BD4680BD80B584B0BE
:1029F00000AF0346FB710023FB8112E00023BB8183
:102A000008E0FA79F989BB891846FFF77FFFBB898F
:102A10000133BB81BB89B3F5A07FF2D3FB890133BE
:102A2000FB81FB89EF2BE9D9002318461037BD46FF
:102A300080BD000080B485B000AF0346FB8000235A
:102A4000FB6007E0094B1B88B3F5FA7F02D1FB68F6
:102A50000133FB60FB881B011A46FB689A42F1D8E0
:102A6000002318461437BD4680BC7047140600206A
:102A700080B485B000AF0346FB71FB79203B5E2B31
:102A800000F2D98101A252F823F000BF092C0008FE
:102A90000F2C0008152C00081B2C0008212C000806
:102AA000272C00082D2C0008372E0008332C000896
:102AB000392C00083F2C0008452C00084B2C00083E
:102AC000512C0008572C00085D2C0008632C0008CE
:102AD000692C00086F2C0008752C00087B2C00085E
:102AE000812C0008872C00088D2C0008932C0008EE
:102AF000992C00089F2C0008A52C0008AB2C00087E
:102B0000B12C0008B72C0008BD2C0008C32C00080D
:102B1000C92C0008CF2C0008D52C0008DB2C00089D
:102B2000E12C0008E72C0008ED2C0008F32C00082D
:102B3000F92C0008FF2C0008052D00080B2D0008BB
:102B4000112D0008172D00081D2D0008232D000849
:102B5000292D00082F2D0008352D00083B2D0008D9
:102B6000412D0008472D00084D2D0008532D000869
:102B7000592D00085F2D0008652D0008372E00082C
:102B80006B2D0008712D0008772D00087D2D0008A1
:102B9000832D0008892D00088F2D0008952D000831
:102BA0009B2D0008A12D0008A72D0008AD2D0008C1
:102BB000B32D0008B92D0008BF2D0008C52D000851
:102BC000CB2D0008D12D0008D72D0008DD2D0008E1
:102BD000E32D0008E92D0008EF2D0008F52D000871
:102BE000FB2D0008012E0008072E00080D2E0008FE
:102BF000132E0008192E00081F2E0008252E00088D
:102C00002B2E0008312E00080023FB7313E1012353
:102C1000FB7310E10223FB730DE10323FB730AE155
:102C20000423FB7307E10523FB7304E10623FB7315
:102C300001E10823FB73FEE00923FB73FBE00A2399
:102C4000FB73F8E00B23FB73F5E00C23FB73F2E05E
:102C50000D23FB73EFE00E23FB73ECE00F23FB73FC
:102C6000E9E01023FB73E6E01123FB73E3E012239A
:102C7000FB73E0E01323FB73DDE01423FB73DAE066
:102C80001523FB73D7E01623FB73D4E01723FB73E4
:102C9000D1E01823FB73CEE01923FB73CBE01A239A
:102CA000FB73C8E01B23FB73C5E01C23FB73C2E06E
:102CB0001D23FB73BFE01E23FB73BCE01F23FB73CC
:102CC000B9E02023FB73B6E02123FB73B3E022239A
:102CD000FB73B0E02323FB73ADE02423FB73AAE076
:102CE0002523FB73A7E02623FB73A4E02723FB73B4
:102CF000A1E02823FB739EE02923FB739BE02A239A
:102D0000FB7398E02B23FB7395E02C23FB7392E07D
:102D10002D23FB738FE02E23FB738CE02F23FB739B
:102D200089E03023FB7386E03123FB7383E0322399
:102D3000FB7380E03323FB737DE03423FB737AE085
:102D40003523FB7377E03623FB7374E03723FB7383
:102D500071E03823FB736EE03923FB736BE03A2399
:102D6000FB7368E03B23FB7365E03D23FB7362E08C
:102D70003E23FB735FE03F23FB735CE04023FB7368
:102D800059E04123FB7356E04223FB7353E0432396
:102D9000FB7350E04423FB734DE04523FB734AE093
:102DA0004623FB7347E04723FB7344E04823FB7350
:102DB00041E04923FB733EE04A23FB733BE04B2396
:102DC000FB7338E04C23FB7335E04D23FB7332E09B
:102DD0004E23FB732FE04F23FB732CE05023FB7338
:102DE00029E05123FB7326E05223FB7323E0532396
:102DF000FB7320E05423FB731DE05523FB731AE0A3
:102E00005623FB7317E05723FB7314E05823FB731F
:102E100011E05923FB730EE05A23FB730BE05B2395
:102E2000FB7308E05C23FB7305E05D23FB7302E0AA
:102E30005E23FB7300BFFB7B18461437BD4680BC86
:102E4000704700BF80B489B000AF78600023BB61D9
:102E500000237B610023FB6102233B610023FB60B5
:102E60000223BB60474B9B6803F00C03BB61BB694B
:102E7000042B07D0082B09D0002B3DD17B68424A98
:102E80001A603DE07B68414A1A6039E03D4B5B685F
:102E90009B0D03F00103FB603A4B5B6803F03F03BB
:102EA000BB60FB68002B0CD0384ABB68B2FBF3F365
:102EB000344A52689209C2F3080202FB03F3FB6131
:102EC0000BE0314ABB68B2FBF3F32E4A5268920919
:102ED000C2F3080202FB03F3FB612A4B5B681B0C85
:102EE00003F0030301335B003B61FA693B69B2FB0A
:102EF000F3F27B681A6003E07B68234A1A6000BF24
:102F0000204B9B6803F0F003BB61BB691B09BB61ED
:102F10001F4ABB6913441B78DBB27B617B681A686C
:102F20007B69DA407B685A60164B9B6803F4E05378
:102F3000BB61BB699B0ABB61154ABB6913441B7823
:102F4000DBB27B617B685A687B69DA407B689A6098
:102F50000C4B9B6803F46043BB61BB695B0BBB61BB
:102F60000B4ABB6913441B78DBB27B617B685A68F0
:102F70007B69DA407B68DA6000BF2437BD4680BCDD
:102F8000704700BF003802400024F40000127A00AD
:102F90000000002080B483B000AF78600B46FB7067
:102FA000FB78002B06D00949084B1A6B7B6813434A
:102FB0000B6306E00549054B1A6B7B68DB43134046
:102FC0000B6300BF0C37BD4680BC70470038024021
:102FD00080B483B000AF78600B46FB70FB78002BA9
:102FE00006D00949084B1A6C7B6813430B6406E052
:102FF0000549054B1A6C7B68DB4313400B6400BF2B
:103000000C37BD4680BC70470038024080B483B0A6
:1030100000AF78600B46FB70FB78002B06D00949A7
:10302000084B5A6C7B6813434B6406E00549054B1B
:103030005A6C7B68DB4313404B6400BF0C37BD46C2
:1030400080BC70470038024080B487B000AF786021
:10305000396000237B6100233B610023FB60002378
:103060007B6176E001227B6902FA03F33B613B68F6
:103070001A683B691340FB60FA683B699A4265D164
:103080007B681A687B695B00032101FA03F3DB4369
:103090001A407B681A607B681A683B681B7919467E
:1030A0007B695B0001FA03F31A437B681A603B6893
:1030B0001B79012B03D03B681B79022B2ED17B6837
:1030C0009A687B695B00032101FA03F3DB431A4032
:1030D0007B689A607B689A683B685B7919467B6974
:1030E0005B0001FA03F31A437B689A607B685A68B5
:1030F0007B699BB2194601238B40DB431A407B68F6
:103100005A607B685B683A68927911467A6992B234
:1031100001FA02F292B21A437B685A607B68DA685D
:103120007B699BB25B00032101FA03F3DB431A4086
:103130007B68DA607B68DA683B68DB7919467B6913
:103140005B0001FA03F31A437B68DA607B690133A1
:103150007B617B690F2B85D900BF1C37BD4680BCC6
:10316000704780B485B000AF78600B467B80134613
:103170007B700023FB600023BB607A787B8803F0C0
:1031800007039B0002FA03F3FB607B88DB089BB21A
:1031900018467B88DB089BB21A467B68083253F8D6
:1031A00022207B8803F007039B000F2101FA03F321
:1031B000DB4302EA03017B6800F1080243F82210B6
:1031C0007B88DB089BB21A467B68083253F82220C2
:1031D000FB681343BB607B88DB089BB21A467B68A5
:1031E0000832B96843F8221000BF1437BD4680BCCE
:1031F0007047000080B500AF124A124B1B6843F0C5
:10320000010313600F4B00229A600E4A0D4B1B689E
:1032100023F0847323F4803313600A4B0A4A5A6004
:10322000084A084B1B6823F480231360054B0022D7
:10323000DA6000F00DF8054B4FF000629A6000BFB5
:1032400080BD00BF003802401030002400ED00E0D7
:1032500080B483B000AF00237B6000233B60354A1D
:10326000344B1B6843F480331360324B1B6803F408
:1032700000333B607B6801337B603B68002B03D1EC
:103280007B68B3F5A06FF0D12A4B1B6803F40033C1
:10329000002B02D001233B6001E000233B603B6830
:1032A000012B42D1234A234B1B6C43F08053136400
:1032B000214A214B1B6843F4804313601D4A1D4B78
:1032C0009B6893601B4A1B4B9B6843F400439360CD
:1032D000184A184B9B6843F4A0539360154B174A48
:1032E0005A60144A134B1B6843F08073136000BF8D
:1032F000104B1B6803F00073002BF9D0104B40F209
:1033000005621A600B4A0B4B9B6823F00303936022
:10331000084A084B9B6843F00203936000BF054BCB
:103320009B6803F00C03082BF9D100BF0C37BD4696
:1033300080BC7047003802400070004008544007CD
:10334000003C024080B483B000AF78607B681B68AB
:1033500023F001027B681A607B6800221A607B6898
:1033600000225A607B6800229A607B680022DA6043
:103370007B6800221A617B6821225A617B68454A7A
:10338000934203D1444B3D229A607EE07B68434ADE
:10339000934204D1404B4FF474629A6075E07B68AD
:1033A0003F4A934204D13C4B4FF474129A606CE054
:1033B0007B683C4A934204D1374B4FF074629A6069
:1033C00063E07B68384A934203D1334B374ADA6073
:1033D0005BE07B68364A934203D12F4B354ADA6073
:1033E00053E07B68344A934203D12B4B334ADA6073
:1033F0004BE07B68324A934204D1274B4FF03D5259
:10340000DA6042E07B682F4A934203D12E4B3D2283
:103410009A603AE07B682D4A934204D12A4B4FF4DC
:1034200074629A6031E07B68294A934204D1264B4A
:103430004FF474129A6028E07B68264A934204D1C4
:10344000214B4FF074629A601FE07B68224A9342DE
:1034500003D11D4B154ADA6017E07B681F4A93427F
:1034600003D1194B134ADA600FE07B681C4A934280
:1034700003D1154B114ADA6007E07B68194A934281
:1034800003D1114B4FF03D52DA6000BF0C37BD46FF
:1034900080BC70471060024000600240286002401B
:1034A0004060024058600240706002403D000020D1
:1034B00088600240400F0020A060024000003D20D4
:1034C000B860024010640240006402402864024078
:1034D00040640240586402407064024088640240C4
:1034E000A0640240B864024080B485B000AF786048
:1034F00039600023FB607B681B68FB60FA68244B23
:103500001340FB603B681A683B68DB681A433B6802
:103510005B691A433B689B691A433B68DB691A4342
:103520003B681B6A1A433B685B6A1A433B689B6AA9
:103530001A433B685B6B1A433B689B6B1343FA6807
:103540001343FB607B68FA681A607B685B69FB6009
:10355000FB6823F00703FB603B68DA6A3B681B6B80
:103560001343FA681343FB607B68FA685A613B684F
:103570001A697B685A603B685A687B689A603B6846
:103580009A687B68DA6000BF1437BD4680BC70471C
:103590003F801CF080B483B000AF78600B46FB70B6
:1035A000FB78002B06D07B681B6843F001027B6828
:1035B0001A6005E07B681B6823F001027B681A60D3
:1035C00000BF0C37BD4680BC704780B485B000AFEB
:1035D000F860B9601346FB71BB6803F08003002BF1
:1035E0000FD0FB79002B06D0FB685B6943F08002AB
:1035F000FB685A6105E0FB685B6923F08002FB68A9
:103600005A61BB68802B14D0FB79002B08D0FB6873
:103610001A68BB6803F01E031A43FB681A6008E0CF
:10362000FB681A68BB6803F01E03DB431A40FB68A3
:103630001A6000BF1437BD4680BC704780B487B0A5
:1036400000AF786039600023FB750023FB60002326
:10365000BB607B68214A934202D8214B3B6101E069
:10366000204B3B613B6823F0F02323F0C313002B76
:103670000AD03B68DB0A03F01E03FB607B681A6814
:10368000FB681340BB6004E07B685B6903F0800368
:10369000BB603B6803F00053002B03D03B695B68C1
:1036A000FB6002E03B691B68FB60FB6823F0F023D2
:1036B00023F08213FB60FA683B681340002B05D0AF
:1036C000BB68002B02D00123FB7501E00023FB75D2
:1036D000FB7D18461C37BD4680BC70470F64024016
:1036E000006002400064024080B485B000AF7860A2
:1036F00039607B68104A934202D8104BFB6001E0AE
:103700000F4BFB603B6803F00053002B07D03B6876
:1037100023F0F02323F08213FA68D36006E03B68BD
:1037200023F0F02323F08213FA68936000BF14376C
:10373000BD4680BC704700BF0F640240006002407D
:103740000064024080B582B000AF1B4B00221A809B
:10375000194B00225A60184B00229A600023BB804C
:1037600017E00023FB800DE0BA8813469B0013444A
:103770009B011A44FB881344104A0021D154FB8852
:103780000133FB80FB88B3F5A07FEDD9BB88013303
:10379000BB80BB88EF2BE4D900F014F800F066F88A
:1037A00000F0F6F800F0C8F8054B1B68024A936079
:1037B00000BF0837BD4680BD14060020200600204B
:1037C0008864024080B582B000AF01211020FFF76D
:1037D000E1FB4FF47F433B6001233B710023BB714E
:1037E0000123FB7103237B713B4619461D48FFF7FC
:1037F0002BFC1C4B4FF47F425A8301210220FFF720
:10380000C9FB4FF400633B6002233B7103237B71D0
:103810000023BB710123FB713B4619461248FFF799
:1038200013FC01220B211048FFF79BFC0121022011
:10383000FFF7B0FB4FF480533B6001233B71002343
:10384000BB710123FB7103237B713B46194606487C
:10385000FFF7FAFB044B4FF480521A8300BF08377E
:10386000BD4680BD001002400004024080B588B013
:1038700000AF01210120FFF7C9FB0B23BB6100232F
:10388000BB820023BB830023FB8207F1140319468C
:10389000284800F0ABF901210120FFF799FB40F621
:1038A0006B23BB610023BB820023BB830023FB820D
:1038B00007F1140319464FF0804000F097F9602398
:1038C0003B8001237B804FF4D273BB600223BB811A
:1038D0003B4619464FF0804000F030FA08214FF087
:1038E000804000F017FB60233B8001237B804FF476
:1038F000A073BB600223BB813B4619464FF080405A
:1039000000F0A2FA08214FF0804000F01EFB0121D8
:10391000084800F0D5F901214FF0804000F0D0F9BF
:1039200001214FF0804000F0EAF900BF2037BD468A
:1039300080BD00BF0000014080B582B000AF012211
:1039400010211248FFF741FE44233B7100237B7195
:103950000023BB710123FB713B1D184600F0E4F806
:10396000012208214FF0804000F00CFB1C233B712A
:1039700000237B710023BB710123FB713B1D1846A3
:1039800000F0D2F800BF0837BD4680BD8864024011
:1039900080B590B000AF01214FF48000FFF7FAFA34
:1039A00000211B48FFF7F6FD1948FFF7CBFC4FF04D
:1039B00040637B60174BBB60174BFB6040233B6150
:1039C00040F241137B610023BB614FF48063FB61D4
:1039D00000233B6200237B620023BB624FF4403331
:1039E000FB6200233B6301237B630023BB63002353
:1039F000FB633B1D19460648FFF776FD01224FF495
:103A00008071064800F0F1FA00BF4037BD4680BD26
:103A1000886402401510024020060020000001408A
:103A200080B500AF08214FF0804000F0CEFA264B61
:103A30001B8801339AB2244B1A80234B1B88B3F5A1
:103A4000037F05D9204B00221A80204A1E4B5A6062
:103A50001D4B1B88012B04D81D4B4FF480525A83F9
:103A600003E01B4B4FF480521A83174B1B88232B08
:103A700027D9154B1B8840F20222934221D8154AC0
:103A8000114B9B681360134A0F4B5B68D360124A5B
:103A9000114B1B889BB243F001039BB213800D4A6C
:103AA0000C4B1B6843F001031360074B1B8803F0AA
:103AB0000103002B05D0044B5B6803F24113024A5B
:103AC000536000BF80BD00BF140600202006002008
:103AD00000040240886402400000014080B500AF4D
:103AE0000D490E48FFF7AAFD0346002B12D00A49E4
:103AF0000A48FFF7F9FD0A4A094B1B889BB223F0DD
:103B000001039BB21380054B00221A60054B4FF452
:103B10007F425A8300BF80BD008800208864024035
:103B2000000001400010024080B485B000AF786012
:103B30000023FB730023BB730F237B737B68DB784D
:103B4000002B39D0274BDB68DB431B0ADBB203F0C9
:103B50000703FB73FB7BC3F10403BB737A7BFB7B23
:103B600042FA03F37B737B685B781A46BB7B02FAED
:103B700003F3FB737B689A787B7B1340DAB2FB7BA1
:103B80001343FB73FB7B1B01FB73174A7B681B789A
:103B90001344FA7B83F80023134A7B681B785B0984
:103BA000DBB218467B681B7803F01F03012101FA82
:103BB00003F342F820300FE00B497B681B785B0968
:103BC000DBB218467B681B7803F01F0301229A4082
:103BD00000F1200341F8232000BF1437BD4680BC0C
:103BE000704700BF00ED00E000E100E080B485B068
:103BF00000AF786039600023FB817B681B88FB8104
:103C00007B68284A934213D07B68274A93420FD09F
:103C10007B68B3F1804F0BD07B68244A934207D076
:103C20007B68234A934203D07B68224A934208D19F
:103C3000FB8923F07003FB813B685A88FB8913439F
:103C4000FB817B681C4A93420CD07B681B4A9342E1
:103C500008D0FB8923F44073FB813B681A89FB89F8
:103C60001343FB817B68FA891A803B685A687B683A
:103C7000DA623B681A887B681A857B68094A934236
:103C800003D07B68084A934204D13B689B7A9AB27E
:103C90007B681A867B6801229A8200BF1437BD4672
:103CA00080BC704700000140000401400004004057
:103CB00000080040000C00400010004000140040CC
:103CC00080B483B000AF78600B46FB70FB78002BAC
:103CD00008D07B681B889BB243F080039AB27B6854
:103CE0001A8007E07B681B889BB223F080039AB29E
:103CF0007B681A8000BF0C37BD4680BC704780B41B
:103D000083B000AF78600B46FB70FB78002B08D0C7
:103D10007B681B889BB243F001039AB27B681A80D0
:103D200007E07B681B889BB223F001039AB27B6893
:103D30001A8000BF0C37BD4680BC704780B485B088
:103D400000AF7860396000237B810023FB81002372
:103D5000BB817B681B8C9BB223F480739AB27B6817
:103D60001A847B681B8CFB817B689B88BB817B688A
:103D70009B8B7B817B8923F070037B817B8923F084
:103D800003037B813B681A887B8913437B81FB8912
:103D900023F40073FB813B689B891B029AB2FB8969
:103DA0001343FB813B685B881B029AB2FB89134378
:103DB000FB817B68224A934203D07B68214A93426D
:103DC0002BD1FB8923F40063FB813B68DB891B0259
:103DD0009AB2FB891343FB81FB8923F48063FB8147
:103DE0003B689B881B029AB2FB891343FB81BB890A
:103DF00023F48053BB81BB8923F40053BB813B6810
:103E00001B8A1B019AB2BB891343BB813B685B8A47
:103E10001B019AB2BB891343BB817B68BA899A8024
:103E20007B687A899A833B689A687B68DA637B68E7
:103E3000FA891A8400BF1437BD4680BC704700BFA2
:103E4000000001400004014080B485B000AF7860FC
:103E500039600023BB8100237B810023FB817B68C9
:103E60001B8C9BB223F480539AB27B681A847B68C4
:103E70001B8C7B817B689B88FB817B689B8BBB81D8
:103E8000BB8923F4E043BB81BB8923F44073BB812E
:103E90003B681B881B029AB2BB891343BB817B8999
:103EA00023F400537B813B689B891B039AB27B8977
:103EB00013437B813B685B881B039AB27B89134366
:103EC0007B817B68114A934203D07B68104A9342FE
:103ED0000AD1FB8923F48043FB813B681B8A9B0149
:103EE0009AB2FB891343FB817B68FA899A807B68CD
:103EF000BA899A833B689A687B681A647B687A8976
:103F00001A8400BF1437BD4680BC704700000140D2
:103F10000004014080B485B000AF78600B467B8020
:103F20000023FB817B689B8BFB81FB8923F00803CB
:103F3000FB81FA897B881343FB817B68FA899A832A
:103F400000BF1437BD4680BC704780B485B000AF59
:103F500078600B467B800023FB817B689B8BFB8119
:103F6000FB8923F40063FB817B881B029AB2FB89E7
:103F70001343FB817B68FA899A8300BF1437BD46DF
:103F800080BC704780B483B000AF78600B467B8004
:103F900013467B707B78002B08D07B689B899AB294
:103FA0007B8813439AB27B689A8109E07B689B897E
:103FB0009AB27B88DB439BB213409AB27B689A81AA
:103FC00000BF0C37BD4680BC704780B483B000AFE3
:103FD00078600B467B807B88DB439AB27B681A82D1
:103FE00000BF0C37BD4680BC704780B483B000AFC3
:103FF00078600B467B8013467B707B78002B08D063
:104000007B689B899AB27B8813439AB27B689A81BA
:1040100009E07B689B899AB27B88DB439BB21340A3
:104020009AB27B689A8100BF0C37BD4680BC70474E
:1040300081F0004102E000BF83F0004330B54FEA59
:1040400041044FEA430594EA050F08BF90EA020FC6
:104050001FBF54EA000C55EA020C7FEA645C7FEA59
:10406000655C00F0E2804FEA5454D4EB5555B8BF7C
:104070006D420CDD2C4480EA020281EA030382EAED
:10408000000083EA010180EA020281EA0303362D7F
:1040900088BF30BD11F0004F4FEA01314FF4801C52
:1040A0004CEA113102D0404261EB410113F0004F64
:1040B0004FEA03334CEA133302D0524263EB43031B
:1040C00094EA050F00F0A780A4F10104D5F1200EB9
:1040D0000DDB02FA0EFC22FA05F2801841F1000114
:1040E00003FA0EF2801843FA05F359410EE0A5F1E8
:1040F00020050EF1200E012A03FA0EFC28BF4CF019
:10410000020C43FA05F3C01851EBE37101F00045CE
:1041100007D54FF0000EDCF1000C7EEB00006EEBDB
:104120000101B1F5801F1BD3B1F5001F0CD3490865
:104130005FEA30004FEA3C0C04F101044FEA4452BC
:1041400012F5800F80F09A80BCF1004F08BF5FEA43
:10415000500C50F1000041EB045141EA050130BD23
:104160005FEA4C0C404141EB010111F4801FA4F1C6
:104170000104E9D191F0000F04BF01460020B1FA1B
:1041800081F308BF2033A3F10B03B3F120020CDA53
:104190000C3208DD02F1140CC2F10C0201FA0CF031
:1041A00021FA02F10CE002F11402D8BFC2F1200C96
:1041B00001FA02F120FA0CFCDCBF41EA0C0190404C
:1041C000E41AA2BF01EB0451294330BD6FEA040495
:1041D0001F3C1CDA0C340EDC04F11404C4F1200280
:1041E00020FA04F001FA02F340EA030021FA04F392
:1041F00045EA030130BDC4F10C04C4F1200220FAE9
:1042000002F001FA04F340EA0300294630BD21FA26
:1042100004F0294630BD94F0000F83F4801306BFEC
:1042200081F480110134013D4EE77FEA645C18BFE0
:104230007FEA655C29D094EA050F08BF90EA020F77
:1042400005D054EA000C04BF1946104630BD91EA6F
:10425000030F1EBF0021002030BD5FEA545C05D172
:104260004000494128BF41F0004130BD14F58004B1
:104270003CBF01F5801130BD01F0004545F0FE4125
:1042800041F470014FF0000030BD7FEA645C1ABF5A
:10429000194610467FEA655C1CBF0B46024650EA91
:1042A000013406BF52EA033591EA030F41F40021BD
:1042B00030BD00BF90F0000F04BF0021704730B543
:1042C0004FF4806404F132044FF000054FF0000118
:1042D00050E700BF90F0000F04BF0021704730B5D9
:1042E0004FF4806404F1320410F0004548BF4042AE
:1042F0004FF000013EE700BF42004FEAE2014FEA03
:1043000031014FEA02701FBF12F07F4393F07F4FDD
:1043100081F06051704792F0000F14BF93F07F4F0F
:10432000704730B54FF4607401F0004521F0004152
:1043300020E700BF50EA010208BF704730B54FF0D8
:1043400000050AE050EA010208BF704730B511F0DD
:10435000004502D5404261EB41014FF4806404F115
:1043600032045FEA915C3FF4DCAE4FF003025FEA97
:10437000DC0C18BF03325FEADC0C18BF033202EB1F
:10438000DC02C2F1200300FA03FC20FA02F001FA79
:1043900003FE40EA0E0021FA02F11444C1E600BF18
:1043A00070B54FF0FF0C4CF4E06C1CEA11541DBFCB
:1043B0001CEA135594EA0C0F95EA0C0F00F0DEF896
:1043C0002C4481EA030621EA4C5123EA4C5350EA7B
:1043D000013518BF52EA033541F4801143F48013CC
:1043E00038D0A0FB02CE4FF00005E1FB02E506F05D
:1043F0000042E0FB03E54FF00006E1FB03569CF0B2
:10440000000F18BF4EF0010EA4F1FF04B6F5007FB7
:1044100064F5407404D25FEA4E0E6D4146EB060629
:1044200042EAC62141EA55514FEAC52040EA5E50B2
:104430004FEACE2EB4F1FD0C88BFBCF5E06F1ED85C
:10444000BEF1004F08BF5FEA500E50F1000041EB93
:10445000045170BD06F0004646EA010140EA020040
:1044600081EA0301B4EB5C04C2BFD4EB0C0541EA62
:10447000045170BD41F480114FF0000E013C00F377
:10448000AB8014F1360FDEBF002001F0004170BD9B
:10449000C4F10004203C35DA0C341BDC04F11404B4
:1044A000C4F1200500FA05F320FA04F001FA05F240
:1044B00040EA020001F0004221F0004110EBD3700D
:1044C00021FA04F642EB06015EEA430E08BF20EA39
:1044D000D37070BDC4F10C04C4F1200500FA04F3DC
:1044E00020FA05F001FA04F240EA020001F000416E
:1044F00010EBD37041F100015EEA430E08BF20EAE1
:10450000D37070BDC4F1200500FA05F24EEA020E28
:1045100020FA04F301FA05F243EA020321FA04F057
:1045200001F0004121FA04F220EA020000EBD3700E
:104530005EEA430E08BF20EAD37070BD94F0000F0E
:104540000FD101F00046400041EB010111F4801F42
:1045500008BF013CF7D041EA060195F0000F18BFF3
:10456000704703F00046520043EB030313F4801F2F
:1045700008BF013DF7D043EA0603704794EA0C0FE9
:104580000CEA135518BF95EA0C0F0CD050EA4106FF
:1045900018BF52EA4306D1D181EA030101F000417C
:1045A0004FF0000070BD50EA410606BF10461946A4
:1045B00052EA430619D094EA0C0F02D150EA0136B0
:1045C00013D195EA0C0F05D152EA03361CBF1046F1
:1045D00019460AD181EA030101F0004141F0FE4190
:1045E00041F470014FF0000070BD41F0FE4141F414
:1045F000780170BD70B54FF0FF0C4CF4E06C1CEA14
:1046000011541DBF1CEA135594EA0C0F95EA0C0FC8
:1046100000F0A7F8A4EB050481EA030E52EA033583
:104620004FEA013100F088804FEA03334FF08055A4
:1046300045EA131343EA12634FEA022245EA1115D1
:1046400045EA10654FEA00260EF000419D4208BF82
:10465000964244F1FD0404F5407402D25B084FEA2F
:104660003202B61A65EB03055B084FEA32024FF4DB
:1046700080104FF4002CB6EB020E75EB030E22BF38
:10468000B61A754640EA0C005B084FEA3202B6EBF8
:10469000020E75EB030E22BFB61A754640EA5C00A7
:1046A0005B084FEA3202B6EB020E75EB030E22BF37
:1046B000B61A754640EA9C005B084FEA3202B6EB38
:1046C000020E75EB030E22BFB61A754640EADC00F7
:1046D00055EA060E18D04FEA051545EA16754FEA59
:1046E00006164FEAC30343EA52734FEAC2025FEA77
:1046F0001C1CC0D111F4801F0BD141EA00014FF006
:1047000000004FF0004CB6E711F4801F04BF0143D6
:104710000020B4F1FD0C88BFBCF5E06F3FF6AFAEF2
:10472000B5EB030C04BFB6EB020C5FEA500C50F182
:10473000000041EB045170BD0EF0004E4EEA113105
:1047400014EB5C04C2BFD4EB0C0541EA045170BD0C
:1047500041F480114FF0000E013C90E645EA060E50
:104760008DE60CEA135594EA0C0F08BF95EA0C0F7E
:104770003FF43BAF94EA0C0F0AD150EA01347FF4C6
:1047800034AF95EA0C0F7FF425AF104619462CE79D
:1047900095EA0C0F06D152EA03353FF4FDAE104600
:1047A000194622E750EA410618BF52EA43067FF451
:1047B000C5AE50EA41047FF40DAF52EA43057FF4E1
:1047C000EBAE12E74FEA410212F5001215D211D5F5
:1047D0006FF47873B3EB625212D94FEAC12343F0FE
:1047E000004343EA505311F0004F23FA02F018BF80
:1047F000404270474FF00000704750EA013005D149
:1048000011F0004008BF6FF0004070474FF000000B
:10481000704700BF80F0004002E000BF81F000411F
:1048200042001FBF5FEA410392EA030F7FEA226C56
:104830007FEA236C6AD04FEA1262D2EB1363C1BFE6
:10484000D218414048404140B8BF5B42192B88BF55
:10485000704710F0004F40F4000020F07F4018BF78
:10486000404211F0004F41F4000121F07F4118BF98
:10487000494292EA030F3FD0A2F1010241FA03FC40
:1048800010EB0C00C3F1200301FA03F100F0004328
:1048900002D5494260EB4000B0F5000F13D3B0F1F0
:1048A000807F06D340084FEA310102F10102FE2A5F
:1048B00051D2B1F1004F40EBC25008BF20F00100CF
:1048C00040EA03007047490040EB000010F4000F7D
:1048D000A2F10102EDD1B0FA80FCACF1080CB2EB10
:1048E0000C0200FA0CF0AABF00EBC250524218436F
:1048F000BCBFD0401843704792F0000F81F4000114
:1049000006BF80F400000132013BB5E74FEA4103E6
:104910007FEA226C18BF7FEA236C21D092EA030F52
:1049200004D092F0000F08BF0846704790EA010FCC
:104930001CBF0020704712F07F4F04D1400028BFF9
:1049400040F00040704712F100723CBF00F50000DB
:10495000704700F0004343F0FE4040F40000704711
:104960007FEA226216BF08467FEA236301464202BD
:1049700006BF5FEA412390EA010F40F480007047D0
:104980004FF0000304E000BF10F0004348BF404276
:104990005FEA000C08BF704743F0964301464FF0B2
:1049A00000001CE050EA010208BF70474FF000030E
:1049B0000AE000BF50EA010208BF704711F000434F
:1049C00002D5404261EB41015FEA010C02BF84461F
:1049D0000146002043F0B64308BFA3F18053A3F57E
:1049E0000003BCFA8CF2083AA3EBC25310DB01FAC5
:1049F00002FC634400FA02FCC2F12002BCF1004F49
:104A000020FA02F243EB020008BF20F001007047D9
:104A100002F1200201FA02FCC2F1200250EA4C002D
:104A200021FA02F243EB020008BF20EADC70704773
:104A30004FF0FF0C1CEAD0521EBF1CEAD15392EA81
:104A40000C0F93EA0C0F6FD01A4480EA010C40025D
:104A500018BF5FEA41211ED04FF0006343EA5010B7
:104A600043EA5111A0FB01310CF00040B1F5000FF9
:104A70003EBF490041EAD3715B0040EA010062F1A8
:104A80007F02FD2A1DD8B3F1004F40EBC25008BF92
:104A900020F00100704790F0000F0CF0004C08BFB0
:104AA00049024CEA502040EA51207F3AC2BFD2F17D
:104AB000FF0340EAC250704740F400004FF000038B
:104AC000013A5DDC12F1190FDCBF00F000407047C5
:104AD000C2F10002410021FA02F1C2F1200200FA03
:104AE00002FC5FEA310040F1000053EA4C0308BFCA
:104AF00020EADC70704792F0000F00F0004C02BF1B
:104B0000400010F4000F013AF9D040EA0C0093F095
:104B1000000F01F0004C02BF490011F4000F013BEF
:104B2000F9D041EA0C018FE70CEAD15392EA0C0F5D
:104B300018BF93EA0C0F0AD030F0004C18BF31F0C8
:104B4000004CD8D180EA010000F00040704790F09E
:104B5000000F17BF90F0004F084691F0000F91F042
:104B6000004F14D092EA0C0F01D142020FD193EA08
:104B70000C0F03D14B0218BF084608D180EA010090
:104B800000F0004040F0FE4040F40000704740F06C
:104B9000FE4040F4400070474FF0FF0C1CEAD0523A
:104BA0001EBF1CEAD15392EA0C0F93EA0C0F69D096
:104BB000A2EB030280EA010C49024FEA402037D001
:104BC0004FF0805343EA111143EA10130CF00040F8
:104BD0008B4238BF5B0042F17D024FF4000C8B42E8
:104BE00024BF5B1A40EA0C00B3EB510F24BFA3EBC8
:104BF000510340EA5C00B3EB910F24BFA3EB910398
:104C000040EA9C00B3EBD10F24BFA3EBD10340EAF1
:104C1000DC001B0118BF5FEA1C1CE0D1FD2A3FF637
:104C200050AF8B4240EBC25008BF20F001007047EC
:104C30000CF0004C4CEA50207F32C2BFD2F1FF038F
:104C400040EAC250704740F400004FF00003013AC0
:104C500037E792F0000F00F0004C02BF400010F464
:104C6000000F013AF9D040EA0C0093F0000F01F078
:104C7000004C02BF490011F4000F013BF9D041EA9A
:104C80000C0195E70CEAD15392EA0C0F08D14202CD
:104C90007FF47DAF93EA0C0F7FF470AF084676E7A0
:104CA00093EA0C0F04D14B023FF44CAF08466EE779
:104CB00030F0004C18BF31F0004CCAD130F0004247
:104CC0007FF45CAF31F000437FF43CAF5FE700BF9F
:104CD0004FF0FF3C06E000BF4FF0010C02E000BFC8
:104CE0004FF0010C4DF804CD4FEA40024FEA41036A
:104CF0007FEA226C18BF7FEA236C11D001B052EA20
:104D0000530C18BF90EA010F58BFB2EB030088BFE5
:104D1000C81738BF6FEAE17018BF40F00100704754
:104D20007FEA226C02D15FEA402C05D17FEA236C36
:104D3000E4D15FEA412CE1D05DF8040B704700BF7D
:104D4000844608466146FFE70FB5FFF7C9FF002814
:104D500048BF10F1000F0FBD4DF808EDFFF7F4FF4D
:104D60000CBF012000205DF808FB00BF4DF808EDE6
:104D7000FFF7EAFF34BF012000205DF808FB00BF09
:104D80004DF808EDFFF7E0FF94BF012000205DF82B
:104D900008FB00BF4DF808EDFFF7D2FF94BF0120DC
:104DA00000205DF808FB00BF4DF808EDFFF7C8FFD5
:104DB00034BF012000205DF808FB00BF42000ED286
:104DC000B2F1FE4F0BD34FF09E03B3EB126209D446
:104DD0004FEA002343F0004323FA02F070474FF0FC
:104DE0000000704712F1610F01D1420202D14FF071
:104DF000FF3070474FF00000704700BF0A220021CB
:104E000000F0C0BA70B4860746D0541E002A41D0C4
:104E1000CAB2034602E014F1FF343BD303F8012B7E
:104E20009D07F8D1032C2ED9CDB245EA05250F2CCC
:104E300045EA054519D903F110022646103E0F2E0A
:104E400042F8105C42F80C5C42F8085C42F8045CE2
:104E500002F11002F2D8A4F1100222F00F0204F0C5
:104E60000F041032032C13440DD91E462246043A77
:104E7000032A46F8045BFAD8221F22F00302043208
:104E8000134404F003042CB1C9B21C4403F8011B01
:104E90009C42FBD170BC704714460346C2E700BF7A
:104EA000A2EB0300704700BF02780B78012A28BFED
:104EB0009A42F5D16DE9044540EA0104CDE9026763
:104EC0006FF0000C4FEA447212B380EA010414F050
:104ED000070F6AD100F0070420F0070004F0030573
:104EE00021F007014FEAC505F0E8042314F0040F90
:104EF000F1E804670CFA05F462EA040266EA0406C3
:104F00000AD063EA0403624667EA0407664603E0E0
:104F1000F0E80423F1E8046782FA4CF582EA06041B
:104F2000A4FA8CF46CBB83FA4CF583EA0705A5FA66
:104F30008CF595B950E9022351E9026782FA4CF5E4
:104F400082EA0604A4FA8CF483FA4CF583EA070596
:104F5000A5FA8CF52543DBD09CB92DBAB5FA85F4BA
:104F600024F0070427FA04F1DDE9026723FA04F3C9
:104F700003F0FF0001F0FF01FDE80445A0EB010094
:104F8000704724BAB4FA84F424F0070426FA04F132
:104F9000DDE9026722FA04F202F0FF0001F0FF01EE
:104FA000FDE80445A0EB0100704714F0030F3CD16D
:104FB00010F0030428D150F8082B51F8083B82FA6E
:104FC0004CF582EA0305A5FA8CF55DB950F8042C7E
:104FD00051F8043C82FA4CF582EA0305A5FA8CF5F7
:104FE000002DE8D02DBAB5FA85F424F0070423FA91
:104FF00004F122FA04F202F0FF0001F0FF01FDE8E3
:105000000445A0EB010070474FEAC40420F0030000
:1050100050F8082B21F0030151F8083B0CFA04F476
:1050200062EA040263EA0403C9E710F003041AD039
:10503000A1EB040120F00300E40750F8042B06D094
:105040000FD28B785FFAA2F4E41A06D12BB1CB7899
:105050005FFAB2F4E41A00D11BB920465DF8104B98
:10506000704701F1040150F8042BCC0721F0030133
:1050700051F8043B48D824D222F07F4482FA4CF500
:1050800094EA1325A5FA8CF50AD165B951F8043BC9
:1050900084EA0204B4EB036F0ED150F8042BEBE763
:1050A0004FEA132355E035F07F454DD10878FDE8F0
:1050B0000445C0F1000070474FEA126203F0FF039D
:1050C00047E002EA1C4482FA4CF594EA1345A5FA3B
:1050D0008CF50AD165B951F8043B84EA0204B4EBBB
:1050E000034F0CD150F8042BEBE74FEA134330E0A9
:1050F00015EA1C4528D10B884FEA124229E04FEAF5
:10510000124203EA1C4324E002F0FF0482FA4CF549
:1051100094EA1365A5FA8CF50AD165B951F8043BF8
:1051200084EA0204B4EB032F09D150F8042BEBE717
:105130004FEA13630DE015F0FF0F05D10B684FEA3E
:10514000122223F07F4304E04FF00000FDE8044505
:10515000704712BA1BBA82FA4CF482EA0304A4FA2A
:105160008CF5B5FA85F402FA04F203FA04F34FEA77
:105170001260FDE80445A0EB1360704700000000DA
:1051800090F800F06DE9024520F007016FF0000C87
:1051900010F0070491F820F040F049804FF000042F
:1051A0006FF00700D1E9002391F840F000F108000A
:1051B00082FA4CF2A4FA8CF283FA4CF3A2FA8CF342
:1051C0004BBBD1E9022382FA4CF200F10800A4FAA9
:1051D0008CF283FA4CF3A2FA8CF3E3B9D1E90423FD
:1051E00082FA4CF200F10800A4FA8CF283FA4CF334
:1051F000A2FA8CF37BB9D1E9062301F1200182FAEE
:105200004CF200F10800A4FA8CF283FA4CF3A2FAF3
:105210008CF3002BC6D0002A04BF04301A4612BA01
:10522000B2FA82F2FDE8024500EBD2007047D1E904
:10523000002304F00305C4F100004FEAC50514F093
:10524000040F91F840F00CFA05F562EA05021CBF64
:1052500063EA050362464FF00004A9E72DE9F84F21
:10526000DDF828900F46804616461D468A4600E027
:10527000A2465446484614F801BB00F099F8584439
:10528000427812F00802F3D1BBF12D0F4FD0BBF1E1
:105290002B0F04BF94F800B00AF102041DB1102DC9
:1052A00056D0AC4604E0BBF1300F60D00A25AC46C6
:1052B000002A0CBF6FF000494FF000490021B9FBF4
:1052C000FCFE08460CFB1E9A05E029D00CFB0030C2
:1052D000012114F801BBABF13003092B05D9ABF167
:1052E0004103192B0BD8ABF137039D420FDDB1F110
:1052F000FF3FEED08645E8D24FF0FF31E9E7ABF152
:105300006103192B03D8ABF157039D42EFDC4B1C13
:1053100013D002B1404246B1C1B93760BDE8F88F41
:105320009A45D3DA4FF0FF31D3E7BDE8F88F94F810
:1053300000B001220AF10204B0E72223C8F80030CD
:10534000EEB1671E48463760BDE8F88F8146F8E742
:10535000BBF1300FA5D1237803F0DF03582BA0D188
:105360004FF0100C94F801B065460234A0E72378A2
:1053700003F0DF03582BF3D00825AC4698E74846E6
:10538000BDE8F88F30B5084C084B25686C6B83B0CE
:10539000002C08BF1C46009413460A4601462846C6
:1053A000FFF75CFF03B030BD100000204004002078
:1053B000D0F8EC00704700BF82B049B15AB16BB170
:1053C00013780B601278101C18BF012002B07047D0
:1053D00001A9002AF3D1104602B070476FF0010016
:1053E000F4E700BF21B1FF2A04D80A7001207047FA
:1053F000084670478A2303604FF0FF30704700BFB4
:10540000737563636573210A000000004552524FB3
:105410005231202D20636F6F7264696E6174656E06
:105420002062756974656E2073636865726D210A08
:10543000000000004552524F5232202D207465204A
:1054400067726F746520706172616D657465722139
:105450000A0000004552524F5233202D20666F75CE
:10546000746965766520706172616D65746572211D
:105470000A0000005647412064656D6F204A6F7333
:105480002D4E69656C732D54696A6D656E202863B5
:1054900029323031370A000040004000000000008F
:1054A00000000000000000000000000000000000FC
:1054B0000000000000004448686C8C8C8C8C6C6888
:1054C0004844000000000000000000000000000050
:1054D00000000000000000000000000000000000CC
:1054E00000000000000000000000000000000000BC
:1054F00000004468B1D5F9F9F9F9F9F9F9F9F9F9C0
:10550000F9F9D5B168440000000000000000000077
:10551000000000000000000000000000000000008B
:10552000000000000000000000000000000000007B
:1055300068B1F9F9F9F9F9F9F9F9F9F9F9F9F9F9B4
:10554000F9F9F9F9F9F9B16800000000000000006C
:10555000000000000000000000000000000000004B
:1055600000000000000000000000000000448CD596
:10557000F9F9F9F9F9F9F9F9F9F9F9F9F9F9F9F99B
:10558000F9F9F9F9F9F9F9F9F58C4400000000008E
:10559000000000000000000000000000000000000B
:1055A0000000000000000000000000006CF5F9F9A8
:1055B000F9F9F9F9F9F9F9F9F9F9F9F9F9F9F9F95B
:1055C000F9F9F9F9F9F9F9F9F9F9F56C00000000C0
:1055D00000000000000000000000000000000000CB
:1055E0000000000000000000000048D5F9F9F9F9BA
:1055F000F9F9F9F9F9F9F9F9F9F9F9F9F9F9F9F91B
:10560000F9F9F9F9F9F9F9F9F9F9F9F9D5480000D1
:10561000000000000000000000000000000000008A
:105620000000000000000000008CF9F9F9F9F9F918
:10563000F9F9F9F9F9F9F9F9F9F9F9F9F9F9F9F9DA
:10564000F9F9F9F9F9F9F9F9F9F9F9F9F9F98C0030
:10565000000000000000000000000000000000004A
:105660000000000000000044B1F9F9F9F9F9F9F976
:10567000F9F9F9F9F9F9F9F9F9F9F9F9F9F9F9F99A
:10568000F9F9F9F9F9F9F9F9F9F9F9F9F9F9F9B1D2
:1056900044000000000000000000000000000000C6
:1056A00000000000000044D5F9F9F9F9F9F9F9F919
:1056B000F9F9F9F9F9F9F9F9F9F9F9F9F9F9F9F95A
:1056C000F9F9F9F9F9F9F9F9F9F9F9F9F9F9F9F94A
:1056D000D5440000000000000000000000000000B1
:1056E000000000000044F5F9F9F9F9F9F9F9F9F9C0
:1056F000F9F9F9F9F9F9F9F9F9F9F9F9F9F9F9F91A
:10570000F9F9F9F9F9F9F9F9F9F9F9F9F9F9F9F909
:10571000F9F5440000000000000000000000000057
:105720000000000044F5F9F9F9F9F9F9F9F9F9F986
:10573000F9F9F9F9F9F9F9F9F9F9F9F9F9F9F9F9D9
:10574000F9F9F9F9F9F9F9F9F9F9F9F9F9F9F9F9C9
:10575000F9F9F5440000000000000000000000001E
:1057600000000044D5F9F9F9F9F9F9F9F9F9F9F96D
:10577000F9F9F9F9F9F9F9F9F9F9F9F9F9F9F9F999
:10578000F9F9F9F9F9F9F9F9F9F9F9F9F9F9F9F989
:10579000F9F9F9D544000000000000000000000005
:1057A000000000B1F9F9F9F9F9F9F9F9F9F9F9F99C
:1057B000F9F9F9F9F9F9F9F9F9F9F9F9F9F9F9F959
:1057C000F9F9F9F9F9F9F9F9F9F9F9F9F9F9F9F949
:1057D000F9F9F9F9B1000000000000000000000034
:1057E00000008CF9F9F9F9F9F9F9F9F9F9F9F9F988
:1057F000F9F9F9F9F9F9F9F9F9F9F9F9F9F9F9F919
:10580000F9F9F9F9F9F9F9F9F9F9F9F9F9F9F9F908
:10581000F9F9F9F9F98C000000000000000000001F
:105820000048F9F9F9F9F9F9F9F9F9F9F9F9F9F992
:10583000F9F9F9F9F9F9F9F9F9F9F9F9F9F9F9F9D8
:10584000F9F9F9F9F9F9F9F9F9F9F9F9F9F9F9F9C8
:10585000F9F9F9F9F9F9480000000000000000002A
:1058600000D5F9F9F9F9F9F9F9F9F9F9F9F9F9F9C5
:10587000F9F9F9F9F9F9F9F9F9F9F9F9F9F9F9F998
:10588000F9F9F9F9F9F9F9F9F9F9F9F9F9F9F9F988
:10589000F9F9F9F9F9F9D50000000000000000005D
:1058A0006CF9F9F9F9F9F9F9F9F9F9F9F9F9F9F9F5
:1058B000F9F9F9F9F9F9F9F9F9F9F9F9F9F9F9F958
:1058C000F9F9F9F9F9F9F9F9F9F9F9F9F9F9F9F948
:1058D000F9F9F9F9F9F9F98C000000000000004429
:1058E000F5F9F9F9F9F9F9F9F9F9F9F9F9F9F9F92C
:1058F000F9F9F9F9F9F9F9F9F9F9F9F9F9F9F9F918
:10590000F9F9F9F9F9F9F9F9F9F9F9F9F9F9F9F907
:10591000F9F9F9F9F9F9F9F5440000000000008CF3
:10592000F9F9F9F9F9F9F9F9F9F9F9F9F9F9F9F9E7
:10593000F9F9F9F9F9F9F9F9F9F9F9F9F9F9F9F9D7
:10594000F9F9F9F9F9F9F9F9F9F9F9F9F9F9F9F9C7
:10595000F9F9F9F9F9F9F9F98C000000000000D51E
:10596000F9F9F9F9F9F9F9F9F9F9F9F9F9F9F9F9A7
:10597000F9F9F9F9F9F9F9F9F9F9F9F9F9F9F9F997
:10598000F9F9F9F9F9F9F9F9F9F9F9F9F9F9F9F987
:10599000F9F9F9F9F9F9F9F9D5000000000068F909
:1059A000F9F9F9F9F9F9F9F9F9F9F9F9F9F9D5D5AF
:1059B000D5D5F9F9F9F9F9F9F9F9F9F9F9F9F9F99F
:1059C000F9F9F9F9F9F9D5D5D5D5F9F9F9F9F9F9D7
:1059D000F9F9F9F9F9F9F9F9F96800000000B1F9F4
:1059E000F9F9F9F9F9F9F9F9F9F9F9D56C4400007F
:1059F000000068D5F9F9F9F9F9F9F9F9F9F9F9F9BE
:105A0000F9F9F9F9D56800000000446CD5F9F9F905
:105A1000F9F9F9F9F9F9F9F9F9B100000044F9F9DE
:105A2000F9F9F9F9F9F9F9F9F9F9B100000000000B
:105A3000000000008CF9F9F9F9F9F9F9F9F9F9F927
:105A4000F9F9F98C000000000000000000B1F9F93C
:105A5000F9F9F9F9F9F9F9F9F9F944000068F9F9EE
:105A6000F9F9F9F9F9F9F9F9F9B1000000000000C4
:105A700000000000006CF9F9F9F9F9F9F9F9F9F900
:105A8000F9F96C0000000000000000000000B1F90E
:105A9000F9F9F9F9F9F9F9F9F9F9680000B1F9F941
:105AA000F9F9F9F9F9F9F9F9D5440000448CD5D59B
:105AB000D58D44000000B1F9F9F9F9F9F9F9F9F9CE
:105AC000F9B10000004491D5D5D58C44000000D533
:105AD000F9F9F9F9F9F9F9F9F9F9B10000D5F9F994
