:020000040800F2
:10000000643D012049070008A5070008A50700086E
:10001000A5070008A5070008A507000800000000C4
:10002000000000000000000000000000A50700081C
:10003000A507000800000000A5070008A5070008A4
:10004000A5070008A5070008A5070008A5070008E0
:10005000A5070008A5070008A5070008A5070008D0
:10006000A5070008A5070008A5070008A5070008C0
:10007000A5070008A5070008A5070008A5070008B0
:10008000A5070008A5070008A5070008A5070008A0
:10009000A5070008A5070008A5070008A507000890
:1000A000A5070008A5070008A5070008A507000880
:1000B000E12D0008A5070008A5070008A50700080E
:1000C000A5070008A5070008A5070008A507000860
:1000D000A5070008A50700080D060008A5070008E9
:1000E000A5070008A5070008A5070008A507000840
:1000F000A5070008A5070008A5070008A507000830
:10010000A5070008A5070008A5070008A50700081F
:10011000A5070008A5070008A5070008A50700080F
:10012000A5070008A5070008A5070008A5070008FF
:10013000A5070008A5070008A5070008A5070008EF
:10014000A5070008A5070008A5070008A5070008DF
:100150009D2E0008A5070008A5070008A5070008B0
:10016000A5070008A5070008A5070008A5070008BF
:10017000A5070008A5070008A5070008A5070008AF
:10018000A5070008A507000880B58AB000AF786011
:10019000396000237B6200233B620023FB61002364
:1001A000BB617B681B8A9BB27B627B6A23F44053F2
:1001B0007B623B68DB881A467B6A13437B627B6AFF
:1001C0009AB27B681A827B689B899BB27B627B6A4E
:1001D00023F4B05323F00C037B623B689A883B689E
:1001E0001B8913439AB23B685B8913439BB21A463F
:1001F0007B6A13437B627B6A9AB27B689A817B68D5
:100200009B8A9BB27B627B6A23F440737B623B6870
:100210009B891A467B6A13437B627B6A9AB27B682E
:100220009A8207F10803184601F0ECFF7B68304A18
:10023000934203D07B682F4A934202D17B693B6291
:1002400001E03B693B627B689B899BB21BB2002B40
:100250000CDA3A6A13469B0013449A001A443B682E
:100260001B685B00B2FBF3F3FB610BE03A6A1346D9
:100270009B0013449A001A443B681B689B00B2FB26
:10028000F3F3FB61FB691C4AA2FB03235B091B011F
:100290007B627B6A1B09642202FB03F3FA69D31AAF
:1002A000BB617B689B899BB21BB2002B0CDABB69DC
:1002B000DB003233104AA2FB03235B0903F0070380
:1002C0007A6A13437B620BE0BB691B0132330A4A33
:1002D000A2FB03235B0903F00F037A6A13437B62DB
:1002E0007B6A9AB27B681A8100BF2837BD4680BD01
:1002F00000100140001401401F85EB5180B483B011
:1003000000AF78600B46FB70FB78002B08D07B6851
:100310009B899BB243F400539AB27B689A8107E0B1
:100320007B689B899BB223F400539AB27B689A81C5
:1003300000BF0C37BD4680BC704780B483B000AFAF
:1003400078600B467B807B88C3F308039AB27B6896
:100350009A8000BF0C37BD4680BC704780B487B020
:1003600000AF78600B467B8013467B7000233B61B7
:100370000023FB600023BB6000237B617B687B6103
:100380007B88DBB25B09DBB23B617B8803F01F0338
:10039000FB600122FB6802FA03F3BB603B69012B9F
:1003A00003D17B690C337B6109E03B69022B03D1EC
:1003B0007B6910337B6102E07B6914337B617B785E
:1003C000002B06D07B697A691168BA680A431A6003
:1003D00006E07B697A691168BA68D2430A401A60FC
:1003E00000BF1C37BD4680BC704780B485B000AFED
:1003F00078600B467B800023FB737B681B889AB276
:100400007B8813409BB2002B02D00123FB7301E0D9
:100410000023FB73FB7B18461437BD4680BC704736
:1004200080B487B000AF78600B467B800023FB6010
:1004300000237B610023BB600023FB747B88DBB25D
:100440005B09DBB2BB607B8803F01F037B61012289
:100450007B6902FA03F37B61BB68012B07D17B68E0
:100460009B899BB21A467B6913407B6111E0BB6894
:10047000022B07D17B681B8A9BB21A467B6913400B
:100480007B6106E07B689B8A9BB21A467B691340BE
:100490007B617B881B0A9BB2FB600122FB6802FA2E
:1004A00003F3FB607B681B889BB21A46FB68134012
:1004B000FB607B69002B05D0FB68002B02D0012379
:1004C000FB7401E00023FB74FB7C18461C37BD461F
:1004D00080BC704780B485B000AF78600B467B80ED
:1004E0000023FB810023BB817B881B0AFB81FB89E6
:1004F000012202FA03F3BB81BB89DB439AB27B681A
:100500001A8000BF1437BD4680BC704780B586B0E6
:1005100000AF01214FF4003001F03AFF012101202A
:1005200001F018FF0C233B6102233B750023BB75D0
:100530000123FB7502237B7507F11003194616484A
:1005400001F062FF07220221134801F0EAFF0722AF
:100550000321114801F0E5FF4FF4E1333B60002334
:10056000BB800023FB8000233B810023BB810C2345
:100570007B813B4619460948FFF706FE012240F2FF
:1005800025510648FFF7EAFE01210448FFF7B6FEB1
:1005900000BF1837BD4680BD000002400044004047
:1005A00080B582B000AF0346FB7100BF80210848D0
:1005B000FFF71BFF0346002BF8D0FB799BB21946CF
:1005C0000348FFF7BAFE00BF0837BD4680BD00BF35
:1005D0000044004080B584B000AF78600023FB6029
:1005E00009E0FB687A6813441B781846FFF7D8FFC8
:1005F000FB680133FB60FB687A6813441B78002BAF
:10060000EFD100BF1037BD4680BD000080B582B07D
:1006100000AF40F225512748FFF702FF0346002BA9
:1006200044D040F225512348FFF754FF214B9B88CB
:100630009BB2FB70FB78402B05D9FB785A2B02D874
:10064000FB782033FB70FB780D2B1DD800237B60DB
:100650000BE0194A7B6813441B789BB21946154876
:10066000FFF76BFE7B6801337B60144B1B687A6875
:100670009A42EEDB114B00221A60FB789BB21946BE
:100680000C48FFF75AFE09E00C4B1B680A49FA7840
:10069000CA540A4B1B680133084A136000BF40214B
:1006A0000448FFF7A2FE0346002BF8D000BF08372E
:1006B000BD4680BD00440040B0050020AC050020D0
:1006C00080B582B000AFFF23FB7120210748FFF700
:1006D0008CFE0346012B03D1044B9B889BB2FB711C
:1006E000FB7918460837BD4680BD00BF0044004076
:1006F00080B582B000AF78603960FFF7E1FF034654
:100700001A467B681A707B681B78FF2B17D07B68B2
:100710001B780A2B13D03B68002B04D07B681B7816
:100720001846FFF73DFF7B681B780D2B03D17B68D4
:1007300000221A7005E07B6801337B60DDE700BFB3
:10074000DBE70837BD4680BD80B582B000AF104BF7
:100750007B60104B3B6007E03B681A1D3A607A688B
:10076000111D796012681A603B680B4A9342F3D3FB
:100770000A480B494FF000028842B8BF40F8042BEA
:10078000FADB00F0C7FA00BF0837BD4680BD00BFE6
:10079000E9C4000800000020AC050020AC050020E2
:1007A0006835012080B400AFFEE7000090B583B04B
:1007B00000AF0023FB710023BB714FF4FA720021DC
:1007C0001A4803F0FFFC00237B7112E0BA797B79B1
:1007D000F9791748445C1549322000FB02F20A44BB
:1007E000134422461A707B7901337B71FB79013304
:1007F000FB71FB790E4AD35C2C2B04D0FB790C4A9D
:10080000D35C002BE2D1FB79094AD35C002B06D0E4
:10081000BB790133BB71FB790133FB71D3E700BFB7
:10082000BB7918460C37BD4690BD00BF1033012080
:100830000435012080B582B000AF78607968414806
:1008400003F012FD0346002B01D1032375E0796804
:100850003D4803F009FD0346002B01D10B236CE05A
:1008600079683A4803F000FD0346002B01D11C23B0
:1008700063E07968364803F0F7FC0346002B01D1AA
:100880005D235AE07968334803F0EEFC0346002B01
:1008900001D11F2351E079682F4803F0E5FC03469E
:1008A000002B01D19B2348E079682C4803F0DCFC45
:1008B0000346002B01D1E0233FE07968284803F08C
:1008C000D3FC0346002B01D1E92336E079682548A3
:1008D00003F0CAFC0346002B01D1E3232DE0796825
:1008E000214803F0C1FC0346002B01D1F32324E08F
:1008F00079681E4803F0B8FC0346002B01D1882319
:100900001BE079681A4803F0AFFC0346002B01D1C5
:10091000FC2312E07968174803F0A6FC0346002B7D
:1009200001D1922309E07968134803F09DFC034646
:10093000002B01D1FF2300E0002318460837BD46F5
:1009400080BD00BF50A8000858A8000864A800088F
:100950006CA8000878A8000880A800088CA80008E7
:1009600094A80008A0A80008A8A80008B8A8000833
:10097000C0A80008C8A80008D0A8000880B582B0A8
:1009800000AF786079680F4803F06EFC0346002BD7
:1009900001D1012312E079680B4803F065FC03469E
:1009A000002B01D1022309E07968084803F05CFCC0
:1009B0000346002B01D1032300E00023184608372B
:1009C000BD4680BDD4A80008DCA80008E0A8000847
:1009D00080B582B000AF7860786803F0EFFB034623
:1009E000002B01D1174B28E0786803F0E7FB0346A2
:1009F000012B01D1144B20E0786803F0DFFB0346A4
:100A0000022B01D1114B18E0786803F0D7FB0346A5
:100A1000032B01D10E4B10E0786803F0CFFB0346A7
:100A2000042B01D10B4B08E0786803F0C7FB0346A9
:100A3000052B01D1084B00E0002318460837BD46BE
:100A400080BD00BFC8670008DC750008F08300089F
:100A500004920008C0470008C45700082DE9F04779
:100A600086B006AFA34B1B78623B152B00F23D818D
:100A700001A252F823F000BF9B0C0008C90C00082B
:100A8000D70B00082D0B0008EB0C0008EB0C00083E
:100A9000EB0C0008EB0C0008EB0C0008EB0C00085A
:100AA000D10A0008EB0C0008EB0C0008EB0C000866
:100AB000EB0C0008EB0C00087F0B0008EB0C0008A7
:100AC000510C0008EB0C0008EB0C0008D90C0008D6
:100AD000894803F073FB03469DB2884803F06EFB20
:100AE00003469BB2C3F1EF039EB2854803F066FB59
:100AF00003461FFA83F8834803F060FB03469BB26A
:100B0000C3F1EF031FFA83F97F4803F057FB034655
:100B1000DCB27E48FFF78EFE0346019300944B46FD
:100B200042463146284600F0BBFADEE0724803F048
:100B300045FB03469CB2714803F040FB03469BB261
:100B4000C3F1EF039DB26E4803F038FB03469EB23B
:100B50006C4803F033FB03461FFA83F86A48FFF73B
:100B600069FE03461A460123029301920123009372
:100B7000434632462946204600F070FDB5E05E4807
:100B800003F01CFB03469CB25C4803F017FB0346D2
:100B90009BB2C3F1EF039DB2594803F00FFB03462C
:100BA0009EB2584803F00AFB03469BB2C3F1EF0321
:100BB0001FFA83F85448FFF73DFE03461A46012307
:100BC0000293019201230093434632462946204670
:100BD00000F092FF89E0484803F0F0FA03469EB225
:100BE000464803F0EBFA03469BB2C3F1EF031FFA4A
:100BF00083F8434803F0E2FA03461FFA83F94148B9
:100C000003F0DCFA03469BB2C3F1EF031FFA83FA49
:100C10003D4803F0D3FA03469CB23C4803F0CEFAB9
:100C200003469BB2C3F1EF039DB23948FFF702FEC2
:100C300003461A460123049303920123029301956C
:100C4000009453464A464146304601F008F84CE0CD
:100C5000294803F0B3FA03469CB2284803F0AEFAE1
:100C600003469BB2C3F1EF039DB2224B93F896303B
:100C700098462448FFF7DEFD03461E462248FFF74C
:100C80007DFE034602930196012300930123424611
:100C90002946204600F082F827E0184803F08EFA33
:100CA00003469CB2164803F089FA03469BB2C3F18F
:100CB000EF039DB21048FFF78BFE03461A46294604
:100CC000204601F02DF810E00B48FFF7B3FD034676
:100CD000184601F06AF808E0074803F06FFA034687
:100CE0009BB2184601F084F800BF00231846BD46A9
:100CF000BDE8F08710330120423301207433012016
:100D0000A6330120D83301200A3401203C340120CD
:100D10006E34012080B582B000AF01F04BFC01F0D1
:100D2000F1FE002001F041F8FFF7F0FB1648FFF755
:100D300051FC00211548FFF7DBFC1448FFF74AFC83
:100D40001348FFF747FCFFF731FD0346BB71FFF780
:100D500085FE1048FFF73EFC0023FB710EE0FB7997
:100D6000322202FB03F30C4A13441846FFF732FC0D
:100D70000748FFF72FFCFB790133FB71FA79BB7948
:100D80009A42ECD9D5E700BFE8A800080435012055
:100D90000CA9000810A900081033012080B58AB002
:100DA00000AFBA601A460346FB810B46BB8113466F
:100DB000FB710023FB84002387F82530B86803F01B
:100DC000BFFB03463B830C23FB820723BB8200232C
:100DD00087F824304CE1FA89BB8A97F8301001FB80
:100DE00003F397F82410013101FB03F31A4497F839
:100DF0003030B98A01FB03F397F8251001FB03F3A8
:100E000003F5A0739A4206DBFB8C0133FB8497F851
:100E1000243087F8253097F82430BA6813441B78BB
:100E2000184601F005F803469BB2FA8A12FB03F359
:100E30007B8497F830309BB2FA8A12FB03F39BB2A3
:100E4000BA89D31A9BB2013B3B8406E10023FB83A2
:100E5000F3E00023BB83E9E000237B83DCE097F829
:100E600030309BB2BA8B12FB03F39AB2FB89134466
:100E70009AB27B8BD31A9AB297F830309BB2B98A68
:100E800011FB03F399B297F824309BB211FB03F3E3
:100E90009BB213449AB297F830309BB2B98A11FBD7
:100EA00003F399B297F825309BB211FB03F39BB281
:100EB000D31A7B823A8CFB8B13449AB297F830306A
:100EC0009BB2F98C11FB03F39BB2F98A11FB03F37C
:100ED0009BB213443B82FB79012B4BD197F83830FE
:100EE000022B18D0032B2BD0012B43D17B8C664ACD
:100EF000D35C1A46BB8BC3F1080342FA03F303F039
:100F00000103002B31D097F83420398A7B8A1846A8
:100F100000F0E0FE29E07B8C5C4AD35C1A46BB8B78
:100F2000C3F1080342FA03F303F00103002B1ED0C0
:100F300097F83420398A7B8A184600F0CBFE16E0F9
:100F40007B8C534AD35C1A46BB8BC3F1080342FA2D
:100F500003F303F00103002B0BD097F83420398AF8
:100F60007B8A184600F0B6FE03E000BF02E000BF37
:100F700000E000BFFB79022B4BD197F83830022BF1
:100F800018D0032B2BD0012B43D17B8C414AD35C4F
:100F90001A46BB8BC3F1080342FA03F303F00103C3
:100FA000002B31D097F83420398A7B8A184600F01C
:100FB00091FE29E07B8C384AD35C1A46BB8BC3F187
:100FC000080342FA03F303F00103002B1ED097F845
:100FD0003420398A7B8A184600F07CFE16E07B8C30
:100FE0002E4AD35C1A46BB8BC3F1080342FA03F3C3
:100FF00003F00103002B0BD097F83420398A7B8A49
:10100000184600F067FE03E000BF02E000BF00E00A
:1010100000BF7B8B01337B8397F830309BB27A8B98
:101020009A42FFF41CAFBB8B0133BB83BB8B072BF6
:101030007FF612AFFB8B0133FB8397F830309BB206
:10104000FA8B9A42FFF405AF7B8C01337B8497F8CF
:1010500030309AB23B8C13443B843A8CBB89013BC1
:101060009A42FFF6F3AE97F82430013387F8243024
:1010700097F824309BB23A8B9A423FF6ACAE00BF51
:101080002837BD4680BD00BF1CA9000804B2000877
:1010900090AD000878B60008ECBA000860BF000800
:1010A00090B591B000AF0446084611461A46234653
:1010B000FB800346BB800B467B8013463B80FB884E
:1010C000B3F5A07F09D87B88B3F5A07F05D8BB888E
:1010D000F02B02D83B88F02B01D90123B7E297F817
:1010E0005030322B01D90223B1E297F85030FB8205
:1010F0007A88FB889A424DD100237B8746E0FB88A3
:101100000133FB807B8801337B80BB88BB873B88B6
:10111000FB8700233B8732E0BB8F0133BB87FB8F0C
:101120000133FB87BA883B889A4210D3FB8FFB863A
:1011300009E097F85420F98E7B88184600F0CAFD24
:10114000FB8E0133FB86FA8EBB8F9A42F1D9BA88A7
:101150003B889A4210D2BB8FBB8609E097F8542097
:10116000B98E7B88184600F0B5FDBB8E0133BB8677
:10117000BA8EFB8F9A42F1D93B8F01333B873A8F6E
:10118000FB8A9A42C8D97B8F01337B877A8FFB8A8F
:101190009A42B4D93A88BB889A4252D100237B86BE
:1011A0004AE0FB880133FB807B8801337B80BB886E
:1011B000BB873B88FB8700233B8636E0BB8F013330
:1011C000BB87FB8F0133FB877B88BB82FB887B82DD
:1011D000FA887B889A4210D9BB8AFB8509E097F888
:1011E0005420F98FFB8D184600F074FDFB8D013300
:1011F000FB85FA8D7B8A9A42F1D97A8ABB8A9A4218
:1012000010D27B8ABB8509E097F85420B98FBB8D3B
:10121000184600F05FFDBB8D0133BB85BA8DBB8ADC
:101220009A42F1D93B8E01333B863A8EFB8A9A4231
:10123000C4D97B8E01337B867A8EFB8A9A42B0D9E1
:1012400004E23A88BB88D31A184602F07DFD0446B2
:101250007A88FB88D31A184602F076FD03461946B1
:10126000204602F079FE0346FB6000237B85E8E11F
:10127000FB880133FB807B8801337B80BB88BB8785
:101280003B88FB8700233B85D3E1BB8F0133BB87C2
:10129000FB8F0133FB87FA887B889A426DD2BA8F25
:1012A000FB8F9A4269D24FF07E51F86802F048FFF6
:1012B0000346002B34D08E49F86802F04BFF0346FA
:1012C000002B2DD0FB88FB8425E0FA8CFB88D31AF9
:1012D000184602F039FD0346F968184602F088FD09
:1012E00003461C46BB8F184602F02EFD03461946E6
:1012F000204602F075FC0346184602F03FFF034605
:101300007B8197F854207989FB8C184600F0E2FC29
:10131000FB8C0133FB84FA8C7B889A42D5D92CE074
:10132000BB8FBB8425E0BA8CBB8FD31A184602F062
:101330000BFD0346F968184602F00EFE03461C46F4
:10134000FB88184602F000FD03461946204602F0CD
:1013500047FC0346184602F011FF03463B8197F80D
:101360005420B98C3B89184600F0B4FCBB8C013387
:10137000BB84BA8CFB8F9A42D5D9FA887B889A4273
:101380006DD9BA8FFB8F9A4269D24FF07E51F868BF
:1013900002F0D6FE0346002B34D05549F86802F01F
:1013A000D9FE0346002B2DD07B887B8425E07A8CE8
:1013B000FB88D31A184602F0C7FC0346F9681846A2
:1013C00002F016FD03461C46BB8F184602F0BCFC1B
:1013D00003461946204602F003FC0346184602F075
:1013E000CDFE03467B8197F8542079897B8C184683
:1013F00000F070FC7B8C01337B847A8CFB889A42F2
:10140000D5D92CE0BB8F3B8425E03A8CBB8FD31A17
:10141000184602F099FC0346F968184602F09CFD54
:1014200003461C46FB88184602F08EFC034619460C
:10143000204602F0D5FB0346184602F09FFE034605
:101440003B8197F85420398C3B89184600F042FCC8
:101450003B8C01333B843A8CFB8F9A42D5D9FA8876
:101460007B889A4270D9BA8FFB8F9A426CD94FF021
:101470007E51F86802F064FE0346002B34D01C490C
:10148000F86802F067FE0346002B2DD07B88FB83B3
:1014900025E0FA8BFB88D31A184602F055FC034668
:1014A000F968184602F0A4FC03461C46BB8F184698
:1014B00002F04AFC03461946204602F091FB03461F
:1014C000184602F05BFE03467B8197F85420798929
:1014D000FB8B184600F0FEFBFB8B0133FB83FA8B82
:1014E000FB889A42D5D92FE0FB8FBB8328E000BF51
:1014F000000080BFBA8BBB8FD31A184602F024FCC1
:101500000346F968184602F027FD03461C46FB888F
:10151000184602F019FC03461946204602F060FB0B
:101520000346184602F02AFE03463B8197F85420F2
:10153000B98B3B89184600F0CDFBBB8B0133BB83D5
:10154000BA8BBB8F9A42D5D9FA887B889A426DD2E2
:10155000BA8FFB8F9A4269D94FF07E51F86802F03A
:10156000EFFD0346002B34D03B49F86802F0F2FD52
:101570000346002B2DD0FB887B8325E07A8BFB88EC
:10158000D31A184602F0E0FB0346F968184602F049
:101590002FFC03461C46BB8F184602F0D5FB0346C2
:1015A0001946204602F01CFB0346184602F0E6FDF1
:1015B00003467B8197F8542079897B8B184600F08D
:1015C00089FB7B8B01337B837A8B7B889A42D5D9CD
:1015D0002CE0FB8F3B8325E03A8BBB8FD31A184658
:1015E00002F0B2FB0346F968184602F0B5FC034668
:1015F0001C46FB88184602F0A7FB03461946204606
:1016000002F0EEFA0346184602F0B8FD03463B81AD
:1016100097F85420398B3B89184600F05BFB3B8BD5
:1016200001333B833A8BBB8F9A42D5D93B8D013333
:101630003B853A8DFB8A9A427FF627AE7B8D01333C
:101640007B857A8DFB8A9A427FF612AE002318467C
:101650004437BD4690BD00BF000080BFB0B588B024
:1016600000AF0446084611461A462346FB8003464F
:10167000BB800B467B8013463B80FB88002B16D03B
:10168000BB88002B13D07B88002B10D03B88002B0D
:101690000DD0FB88B3F5A07F09D2BB88EF2B06D80D
:1016A0007B88B3F5A07F02D83B88F02B01D90123BA
:1016B0001BE27A883B889A420FD397F830309AB26F
:1016C00079883B88B1FBF3F39BB27988B1FBF3F3E4
:1016D0009BB29A4201D9022307E27A883B889A4258
:1016E0000FD297F830309AB239887B88B1FBF3F388
:1016F0009BB23988B1FBF3F39BB29A4201D9022322
:10170000F3E197F83830002B1DD07A883B889A4255
:101710000AD37A883B88B2FBF3F39BB27A88B2FB98
:10172000F3F39BB287F830307A883B889A420AD22A
:101730003A887B88B2FBF3F39BB23A88B2FBF3F3AF
:101740009BB287F830300023FB81C6E17B88013BE8
:101750007B803B88013B3B800023BB81B6E197F84F
:101760003030012B20D9BB89002B04D1FB88013BF1
:101770007B82BB883B82BB89012B04D1FB887B82A7
:10178000BB88013B3B82BB89022B04D1BB883B82D7
:10179000FB8801337B82BB89032B0BD1FB887B82C7
:1017A000BB8801333B8205E0FB887B82BB883B82A0
:1017B0000423BB810023FB613B88BB613A887B88A3
:1017C000798801FB03F3D31A3A8802FB03F27B8882
:1017D000798801FB03F3002B00DA03339B101344D9
:1017E0007B6171E0FB699AB27B8A134498B2BB6952
:1017F0009BB23A8AD31A9BB297F83420194600F06C
:1018000069FAFB699BB27A8AD31A98B2BB699AB219
:101810003B8A13449BB297F83420194600F05AFAD9
:10182000FB699AB27B8A134498B2BB699AB23B8A2D
:1018300013449BB297F83420194600F04BFAFB6929
:101840009BB27A8AD31A98B2BB699BB23A8AD31AEE
:101850009BB297F83420194600F03CFA7B69002BC4
:1018600013DAFB690133FB613B885B003A8802FBBA
:1018700003F3FA6902FB03F27B691A443B88398857
:1018800001FB03F313447B611EE0FB690133FB6141
:10189000BB69013BBB613B885B003A8802FB03F3F9
:1018A000FA6902FB03F23B88398801FB03F31A440F
:1018B0007B691A447B885B00798801FB03F3B96973
:1018C00001FB03F3D31A7B61FB695B003A8802FBDF
:1018D00003F33A8802FB03F2BB695B00798801FBE2
:1018E00003F3798801FB03F39A42FFF67BAFF869B3
:1018F00002F02AFA0346184601F0DEFE4FF000021D
:101900007C4B01F07BFD03460C4625461C46F869DE
:1019100002F01AFA0346184601F0CEFE4FF000021C
:10192000744B01F06BFD02460B462046294601F040
:1019300017FF03460C4625461C463B88184601F017
:10194000A9FE02460B462046294601F009FF034640
:101950000C4625461C463B88184601F09BFE024675
:101960000B462046294601F0FBFE03460C46254661
:101970001C46BB69013BBA69013A02FB03F37A8852
:1019800002FB03F37A8802FB03F3184601F082FEA0
:1019900002460B462046294601F030FD03460C4620
:1019A00025461C467B887A8802FB03F33A8802FBB3
:1019B00003F33A8802FB03F3184601F06BFE02467C
:1019C0000B462046294601F017FD03460C461846F3
:1019D000214602F0D7F803467B6171E0FB699AB2B9
:1019E0007B8A134498B2BB699BB23A8AD31A9BB2E2
:1019F00097F83420194600F06DF9FB699BB27A8A9A
:101A0000D31A98B2BB699AB23B8A13449BB297F837
:101A10003420194600F05EF9FB699AB27B8A1344C0
:101A200098B2BB699AB23B8A13449BB297F83420B0
:101A3000194600F04FF9FB699BB27A8AD31A98B223
:101A4000BB699BB23A8AD31A9BB297F834201946E5
:101A500000F040F97B69002B13DDBB69013BBB61E2
:101A60007B885B007A8802FB03F3BA6902FB03F30D
:101A70007A69D21A7B88798801FB03F313447B616E
:101A80001EE0BB69013BBB61FB690133FB613B8825
:101A90005B003A8802FB03F3FA6902FB03F27B69FD
:101AA0001A447B885B00798801FB03F3B96901FB69
:101AB00003F3D21A7B88798801FB03F3D31A7B6185
:101AC000BB69002B8ADABB890133BB81BB89032B3D
:101AD0007FF645AEFB890133FB8197F830309BB22E
:101AE000FA899A42FFF432AE002318462037BD46E9
:101AF000B0BD00BF0000E03F90B587B000AF044626
:101B0000084611461A462346FB800346BB800B4617
:101B10007B8013463B807B88B3F5A07F02D2BB88D5
:101B2000EF2B01D9012396E097F82820B9883B884C
:101B3000CB1AD90F0B445B109A4201DD02238AE0D5
:101B400097F83030002B13D197F828207988FB883C
:101B5000CB1AD90F0B445B109A4209DA97F8282068
:101B6000B9883B88CB1AD90F0B445B109A421DD120
:101B70003B88FB8214E0FB88BB8209E097F82C20AD
:101B8000F98ABB8A184600F0A5F8BB8A0133BB82EC
:101B9000BA8A7B8801339A42F0DBFB8A0133FB82ED
:101BA000FA8ABB8801339A42E5DB53E00023FB74D9
:101BB0004BE0FB883B8218E0FB7C9AB23B881344E5
:101BC00099B297F82C203B8A184600F083F8FB7CEA
:101BD0009BB2BA88D31A99B297F82C203B8A184640
:101BE00000F078F83B8A01333B823A8A7B880133E4
:101BF0009A42E1DB97F828309AB23B881344FB8184
:101C000018E0FB7C9AB2FB8813449BB297F82C2017
:101C1000F989184600F05EF8FB7C9BB27A88D31AEB
:101C20009BB297F82C20F989184600F053F8FB89ED
:101C30000133FB81FA89BB88591C97F82830CB1AED
:101C40009A42DEDBFB7C0133FB74FA7C97F8283088
:101C50009A42AED3002318461C37BD4690BD90B5BE
:101C600085B002AF0446084611461A462346FB805B
:101C70000346BB800B467B8013463B803C887A88BA
:101C8000B988F88897F82430019397F820300093AA
:101C90002346FFF705FABC8B3A8BB988F88897F88A
:101CA0002430019397F8203000932346FFF7F8F98A
:101CB000BC8B3A8B3988788897F82430019397F851
:101CC000203000932346FFF7EBF9002318460C372A
:101CD000BD4690BD80B483B000AF0346FB800B4689
:101CE000BB801346FB70FB88B3F5A07F0FD2BB8887
:101CF000EF2B0CD8BA8813469B0013449B011A445F
:101D0000FB8813440549FA78CA54002300E00123F4
:101D100018460C37BD4680BC704700BF2006002027
:101D200080B584B000AF03463A60FB800B46BB80B1
:101D3000FB883A6812881344B3F5A07F02DABB88A7
:101D4000EF2B01D901232CE00023FB603B685B886B
:101D5000BA88D31A9BB201337B811CE0FB883B819C
:101D60000FE03A68FB68134404331A7879893B8999
:101D70001846FFF7AFFFFB680133FB603B89013377
:101D80003B813A89FB88396809880B449A42E8DB31
:101D90007B8901337B817A89BB8801339A42DDDB01
:101DA000002318461037BD4680BD80B584B000AF13
:101DB0000346FB710023FB8112E00023BB8108E096
:101DC000FA79F989BB891846FFF784FFBB8901338B
:101DD000BB81BB89B3F5A07FF2D3FB890133FB81C3
:101DE000FB89EF2BE9D9002318461037BD4680BD8B
:101DF00080B485B000AF0346FB800023FB81FB88E5
:101E00001B01FB8007E0094B1B88B3F5FA7F02D169
:101E1000FB890133FB81FA89FB889A42F3D30023C3
:101E200018461437BD4680BC704700BF140600201A
:101E300080B485B000AF0346FB71FB79203B5E2B7D
:101E400000F2D98101A252F823F000BFC91F000897
:101E5000CF1F0008D51F0008DB1F0008E11F000886
:101E6000E71F0008ED1F0008F7210008F31F000816
:101E7000F91F0008FF1F0008052000080B200008BC
:101E800011200008172000081D200008232000084A
:101E9000292000082F200008352000083B200008DA
:101EA00041200008472000084D200008532000086A
:101EB000592000085F200008652000086B200008FA
:101EC00071200008772000087D200008832000088A
:101ED000892000088F200008952000089B2000081A
:101EE000A1200008A7200008AD200008B3200008AA
:101EF000B9200008BF200008C5200008CB2000083A
:101F0000D1200008D7200008DD200008E3200008C9
:101F1000E9200008EF200008F5200008FB20000859
:101F200001210008072100080D21000813210008E5
:101F3000192100081F21000825210008F7210008A9
:101F40002B21000831210008372100083D2100081D
:101F500043210008492100084F21000855210008AD
:101F60005B21000861210008672100086D2100083D
:101F700073210008792100087F21000885210008CD
:101F80008B21000891210008972100089D2100085D
:101F9000A3210008A9210008AF210008B5210008ED
:101FA000BB210008C1210008C7210008CD2100087D
:101FB000D3210008D9210008DF210008E52100080D
:101FC000EB210008F12100080023FB7313E101233A
:101FD000FB7310E10223FB730DE10323FB730AE1A2
:101FE0000423FB7307E10523FB7304E10623FB7362
:101FF00001E10823FB73FEE00923FB73FBE00A23E6
:10200000FB73F8E00B23FB73F5E00C23FB73F2E0AA
:102010000D23FB73EFE00E23FB73ECE00F23FB7348
:10202000E9E01023FB73E6E01123FB73E3E01223E6
:10203000FB73E0E01323FB73DDE01423FB73DAE0B2
:102040001523FB73D7E01623FB73D4E01723FB7330
:10205000D1E01823FB73CEE01923FB73CBE01A23E6
:10206000FB73C8E01B23FB73C5E01C23FB73C2E0BA
:102070001D23FB73BFE01E23FB73BCE01F23FB7318
:10208000B9E02023FB73B6E02123FB73B3E02223E6
:10209000FB73B0E02323FB73ADE02423FB73AAE0C2
:1020A0002523FB73A7E02623FB73A4E02723FB7300
:1020B000A1E02823FB739EE02923FB739BE02A23E6
:1020C000FB7398E02B23FB7395E02C23FB7392E0CA
:1020D0002D23FB738FE02E23FB738CE02F23FB73E8
:1020E00089E03023FB7386E03123FB7383E03223E6
:1020F000FB7380E03323FB737DE03423FB737AE0D2
:102100003523FB7377E03623FB7374E03723FB73CF
:1021100071E03823FB736EE03923FB736BE03A23E5
:10212000FB7368E03B23FB7365E03D23FB7362E0D8
:102130003E23FB735FE03F23FB735CE04023FB73B4
:1021400059E04123FB7356E04223FB7353E04323E2
:10215000FB7350E04423FB734DE04523FB734AE0DF
:102160004623FB7347E04723FB7344E04823FB739C
:1021700041E04923FB733EE04A23FB733BE04B23E2
:10218000FB7338E04C23FB7335E04D23FB7332E0E7
:102190004E23FB732FE04F23FB732CE05023FB7384
:1021A00029E05123FB7326E05223FB7323E05323E2
:1021B000FB7320E05423FB731DE05523FB731AE0EF
:1021C0005623FB7317E05723FB7314E05823FB736C
:1021D00011E05923FB730EE05A23FB730BE05B23E2
:1021E000FB7308E05C23FB7305E05D23FB7302E0F7
:1021F0005E23FB7300BFFB7B18461437BD4680BCD3
:10220000704700BF80B489B000AF78600023BB6125
:1022100000237B610023FB6102233B610023FB6001
:102220000223BB60474B9B6803F00C03BB61BB6997
:10223000042B07D0082B09D0002B3DD17B68424AE4
:102240001A603DE07B68414A1A6039E03D4B5B68AB
:102250009B0D03F00103FB603A4B5B6803F03F0307
:10226000BB60FB68002B0CD0384ABB68B2FBF3F3B1
:10227000344A52689209C2F3080202FB03F3FB617D
:102280000BE0314ABB68B2FBF3F32E4A5268920965
:10229000C2F3080202FB03F3FB612A4B5B681B0CD1
:1022A00003F0030301335B003B61FA693B69B2FB56
:1022B000F3F27B681A6003E07B68234A1A6000BF70
:1022C000204B9B6803F0F003BB61BB691B09BB613A
:1022D0001F4ABB6913441B78DBB27B617B681A68B9
:1022E0007B69DA407B685A60164B9B6803F4E053C5
:1022F000BB61BB699B0ABB61154ABB6913441B7870
:10230000DBB27B617B685A687B69DA407B689A60E4
:102310000C4B9B6803F46043BB61BB695B0BBB6107
:102320000B4ABB6913441B78DBB27B617B685A683C
:102330007B69DA407B68DA6000BF2437BD4680BC29
:10234000704700BF003802400024F40000127A00F9
:102350000000002080B483B000AF78600B46FB70B3
:10236000FB78002B06D00949084B1A6B7B68134396
:102370000B6306E00549054B1A6B7B68DB43134092
:102380000B6300BF0C37BD4680BC7047003802406D
:1023900080B483B000AF78600B46FB70FB78002BF5
:1023A00006D00949084B1A6C7B6813430B6406E09E
:1023B0000549054B1A6C7B68DB4313400B6400BF77
:1023C0000C37BD4680BC70470038024080B483B0F3
:1023D00000AF78600B46FB70FB78002B06D00949F4
:1023E000084B5A6C7B6813434B6406E00549054B68
:1023F0005A6C7B68DB4313404B6400BF0C37BD460F
:1024000080BC70470038024080B487B000AF78606D
:10241000396000237B6100233B610023FB600023C4
:102420007B6176E001227B6902FA03F33B613B6842
:102430001A683B691340FB60FA683B699A4265D1B0
:102440007B681A687B695B00032101FA03F3DB43B5
:102450001A407B681A607B681A683B681B791946CA
:102460007B695B0001FA03F31A437B681A603B68DF
:102470001B79012B03D03B681B79022B2ED17B6883
:102480009A687B695B00032101FA03F3DB431A407E
:102490007B689A607B689A683B685B7919467B69C0
:1024A0005B0001FA03F31A437B689A607B685A6801
:1024B0007B699BB2194601238B40DB431A407B6842
:1024C0005A607B685B683A68927911467A6992B281
:1024D00001FA02F292B21A437B685A607B68DA68AA
:1024E0007B699BB25B00032101FA03F3DB431A40D3
:1024F0007B68DA607B68DA683B68DB7919467B6960
:102500005B0001FA03F31A437B68DA607B690133ED
:102510007B617B690F2B85D900BF1C37BD4680BC12
:10252000704780B485B000AF78600B467B8013465F
:102530007B700023FB600023BB607A787B8803F00C
:1025400007039B0002FA03F3FB607B88DB089BB266
:1025500018467B88DB089BB21A467B68083253F822
:1025600022207B8803F007039B000F2101FA03F36D
:10257000DB4302EA03017B6800F1080243F8221002
:102580007B88DB089BB21A467B68083253F822200E
:10259000FB681343BB607B88DB089BB21A467B68F1
:1025A0000832B96843F8221000BF1437BD4680BC1A
:1025B0007047000080B500AF124A124B1B6843F011
:1025C000010313600F4B00229A600E4A0D4B1B68EB
:1025D00023F0847323F4803313600A4B0A4A5A6051
:1025E000084A084B1B6823F480231360054B002224
:1025F000DA6000F00DF8054B4FF000629A6000BF02
:1026000080BD00BF003802401030002400ED00E023
:1026100080B483B000AF00237B6000233B60354A69
:10262000344B1B6843F480331360324B1B6803F454
:1026300000333B607B6801337B603B68002B03D138
:102640007B68B3F5A06FF0D12A4B1B6803F400330D
:10265000002B02D001233B6001E000233B603B687C
:10266000012B42D1234A234B1B6C43F0805313644C
:10267000214A214B1B6843F4804313601D4A1D4BC4
:102680009B6893601B4A1B4B9B6843F40043936019
:10269000184A184B9B6843F4A0539360154B174A94
:1026A0005A60144A134B1B6843F08073136000BFD9
:1026B000104B1B6803F00073002BF9D0104B40F255
:1026C00005621A600B4A0B4B9B6823F0030393606F
:1026D000084A084B9B6843F00203936000BF054B18
:1026E0009B6803F00C03082BF9D100BF0C37BD46E3
:1026F00080BC70470038024000700040085440071A
:10270000003C024080B483B000AF78607B681B68F7
:1027100023F001027B681A607B6800221A607B68E4
:1027200000225A607B6800229A607B680022DA608F
:102730007B6800221A617B6821225A617B68454AC6
:10274000934203D1444B3D229A607EE07B68434A2A
:10275000934204D1404B4FF474629A6075E07B68F9
:102760003F4A934204D13C4B4FF474129A606CE0A0
:102770007B683C4A934204D1374B4FF074629A60B5
:1027800063E07B68384A934203D1334B374ADA60BF
:102790005BE07B68364A934203D12F4B354ADA60BF
:1027A00053E07B68344A934203D12B4B334ADA60BF
:1027B0004BE07B68324A934204D1274B4FF03D52A5
:1027C000DA6042E07B682F4A934203D12E4B3D22D0
:1027D0009A603AE07B682D4A934204D12A4B4FF429
:1027E00074629A6031E07B68294A934204D1264B97
:1027F0004FF474129A6028E07B68264A934204D111
:10280000214B4FF074629A601FE07B68224A93422A
:1028100003D11D4B154ADA6017E07B681F4A9342CB
:1028200003D1194B134ADA600FE07B681C4A9342CC
:1028300003D1154B114ADA6007E07B68194A9342CD
:1028400003D1114B4FF03D52DA6000BF0C37BD464B
:1028500080BC704710600240006002402860024067
:102860004060024058600240706002403D0000201D
:1028700088600240400F0020A060024000003D2020
:10288000B8600240106402400064024028640240C4
:102890004064024058640240706402408864024010
:1028A000A0640240B864024080B485B000AF786094
:1028B00039600023FB607B681B68FB60FA68244B6F
:1028C0001340FB603B681A683B68DB681A433B684F
:1028D0005B691A433B689B691A433B68DB691A438F
:1028E0003B681B6A1A433B685B6A1A433B689B6AF6
:1028F0001A433B685B6B1A433B689B6B1343FA6854
:102900001343FB607B68FA681A607B685B69FB6055
:10291000FB6823F00703FB603B68DA6A3B681B6BCC
:102920001343FA681343FB607B68FA685A613B689B
:102930001A697B685A603B685A687B689A603B6892
:102940009A687B68DA6000BF1437BD4680BC704768
:102950003F801CF080B483B000AF78600B46FB7002
:10296000FB78002B06D07B681B6843F001027B6874
:102970001A6005E07B681B6823F001027B681A601F
:1029800000BF0C37BD4680BC704780B485B000AF37
:10299000F860B9601346FB71BB6803F08003002B3D
:1029A0000FD0FB79002B06D0FB685B6943F08002F7
:1029B000FB685A6105E0FB685B6923F08002FB68F5
:1029C0005A61BB68802B14D0FB79002B08D0FB68C0
:1029D0001A68BB6803F01E031A43FB681A6008E01C
:1029E000FB681A68BB6803F01E03DB431A40FB68F0
:1029F0001A6000BF1437BD4680BC704780B487B0F2
:102A000000AF786039600023FB750023FB60002372
:102A1000BB607B68214A934202D8214B3B6101E0B5
:102A2000204B3B613B6823F0F02323F0C313002BC2
:102A30000AD03B68DB0A03F01E03FB607B681A6860
:102A4000FB681340BB6004E07B685B6903F08003B4
:102A5000BB603B6803F00053002B03D03B695B680D
:102A6000FB6002E03B691B68FB60FB6823F0F0231E
:102A700023F08213FB60FA683B681340002B05D0FB
:102A8000BB68002B02D00123FB7501E00023FB751E
:102A9000FB7D18461C37BD4680BC70470F64024062
:102AA000006002400064024080B485B000AF7860EE
:102AB00039607B68104A934202D8104BFB6001E0FA
:102AC0000F4BFB603B6803F00053002B07D03B68C3
:102AD00023F0F02323F08213FA68D36006E03B680A
:102AE00023F0F02323F08213FA68936000BF1437B9
:102AF000BD4680BC704700BF0F64024000600240CA
:102B00000064024080B582B000AF1B4B00221A80E7
:102B1000194B00225A60184B00229A600023BB8098
:102B200017E00023FB800DE0BA8813469B00134496
:102B30009B011A44FB881344104A0021D154FB889E
:102B40000133FB80FB88B3F5A07FEDD9BB8801334F
:102B5000BB80BB88EF2BE4D900F014F800F066F8D6
:102B600000F0F6F800F0C8F8054B1B68024A9360C5
:102B700000BF0837BD4680BD140600202006002097
:102B80008864024080B582B000AF01211020FFF7B9
:102B9000E1FB4FF47F433B6001233B710023BB719A
:102BA0000123FB7103237B713B4619461D48FFF748
:102BB0002BFC1C4B4FF47F425A8301210220FFF76C
:102BC000C9FB4FF400633B6002233B7103237B711D
:102BD0000023BB710123FB713B4619461248FFF7E6
:102BE00013FC01220B211048FFF79BFC012102205E
:102BF000FFF7B0FB4FF480533B6001233B71002390
:102C0000BB710123FB7103237B713B4619460648C8
:102C1000FFF7FAFB044B4FF480521A8300BF0837CA
:102C2000BD4680BD001002400004024080B588B05F
:102C300000AF01210120FFF7C9FB0B23BB6100237B
:102C4000BB820023BB830023FB8207F114031946D8
:102C5000284800F0ABF901210120FFF799FB40F66D
:102C60006B23BB610023BB820023BB830023FB8259
:102C700007F1140319464FF0804000F097F96023E4
:102C80003B8001237B804FF4D273BB600223BB8166
:102C90003B4619464FF0804000F030FA08214FF0D3
:102CA000804000F017FB60233B8001237B804FF4C2
:102CB000A073BB600223BB813B4619464FF08040A6
:102CC00000F0A2FA08214FF0804000F01EFB012125
:102CD000084800F0D5F901214FF0804000F0D0F90C
:102CE00001214FF0804000F0EAF900BF2037BD46D7
:102CF00080BD00BF0000014080B582B000AF01225E
:102D000010211248FFF741FE44233B7100237B71E1
:102D10000023BB710123FB713B1D184600F0E4F852
:102D2000012208214FF0804000F00CFB1C233B7176
:102D300000237B710023BB710123FB713B1D1846EF
:102D400000F0D2F800BF0837BD4680BD886402405D
:102D500080B590B000AF01214FF48000FFF7FAFA80
:102D600000211B48FFF7F6FD1948FFF7CBFC4FF099
:102D700040637B60174BBB60174BFB6040233B619C
:102D800040F241137B610023BB614FF48063FB6120
:102D900000233B6200237B620023BB624FF440337D
:102DA000FB6200233B6301237B630023BB6300239F
:102DB000FB633B1D19460648FFF776FD01224FF4E1
:102DC0008071064800F0F1FA00BF4037BD4680BD73
:102DD00088640240151002402006002000000140D7
:102DE00080B500AF08214FF0804000F0CEFA264BAE
:102DF0001B8801339AB2244B1A80234B1B88B3F5EE
:102E0000037F05D9204B00221A80204A1E4B5A60AE
:102E10001D4B1B88012B04D81D4B4FF480525A8345
:102E200003E01B4B4FF480521A83174B1B88232B54
:102E300027D9154B1B8840F20222934221D8154A0C
:102E4000114B9B681360134A0F4B5B68D360124AA7
:102E5000114B1B889BB243F001039BB213800D4AB8
:102E60000C4B1B6843F001031360074B1B8803F0F6
:102E70000103002B05D0044B5B6803F24113024AA7
:102E8000536000BF80BD00BF140600202006002054
:102E900000040240886402400000014080B500AF99
:102EA0000D490E48FFF7AAFD0346002B12D00A4930
:102EB0000A48FFF7F9FD0A4A094B1B889BB223F029
:102EC00001039BB21380054B00221A60054B4FF49F
:102ED0007F425A8300BF80BD008800208864024082
:102EE000000001400010024080B485B000AF78605F
:102EF0000023FB730023BB730F237B737B68DB789A
:102F0000002B39D0274BDB68DB431B0ADBB203F015
:102F10000703FB73FB7BC3F10403BB737A7BFB7B6F
:102F200042FA03F37B737B685B781A46BB7B02FA39
:102F300003F3FB737B689A787B7B1340DAB2FB7BED
:102F40001343FB73FB7B1B01FB73174A7B681B78E6
:102F50001344FA7B83F80023134A7B681B785B09D0
:102F6000DBB218467B681B7803F01F03012101FACE
:102F700003F342F820300FE00B497B681B785B09B4
:102F8000DBB218467B681B7803F01F0301229A40CE
:102F900000F1200341F8232000BF1437BD4680BC58
:102FA000704700BF00ED00E000E100E080B485B0B4
:102FB00000AF786039600023FB817B681B88FB8150
:102FC0007B68284A934213D07B68274A93420FD0EC
:102FD0007B68B3F1804F0BD07B68244A934207D0C3
:102FE0007B68234A934203D07B68224A934208D1EC
:102FF000FB8923F07003FB813B685A88FB891343EC
:10300000FB817B681C4A93420CD07B681B4A93422D
:1030100008D0FB8923F44073FB813B681A89FB8944
:103020001343FB817B68FA891A803B685A687B6886
:10303000DA623B681A887B681A857B68094A934282
:1030400003D07B68084A934204D13B689B7A9AB2CA
:103050007B681A867B6801229A8200BF1437BD46BE
:1030600080BC7047000001400004014000040040A3
:1030700000080040000C0040001000400014004018
:1030800080B483B000AF78600B46FB70FB78002BF8
:1030900008D07B681B889BB243F080039AB27B68A0
:1030A0001A8007E07B681B889BB223F080039AB2EA
:1030B0007B681A8000BF0C37BD4680BC704780B467
:1030C00083B000AF78600B46FB70FB78002B08D014
:1030D0007B681B889BB243F001039AB27B681A801D
:1030E00007E07B681B889BB223F001039AB27B68E0
:1030F0001A8000BF0C37BD4680BC704780B485B0D5
:1031000000AF7860396000237B810023FB810023BE
:10311000BB817B681B8C9BB223F480739AB27B6863
:103120001A847B681B8CFB817B689B88BB817B68D6
:103130009B8B7B817B8923F070037B817B8923F0D0
:1031400003037B813B681A887B8913437B81FB895E
:1031500023F40073FB813B689B891B029AB2FB89B5
:103160001343FB813B685B881B029AB2FB891343C4
:10317000FB817B68224A934203D07B68214A9342B9
:103180002BD1FB8923F40063FB813B68DB891B02A5
:103190009AB2FB891343FB81FB8923F48063FB8193
:1031A0003B689B881B029AB2FB891343FB81BB8956
:1031B00023F48053BB81BB8923F40053BB813B685C
:1031C0001B8A1B019AB2BB891343BB813B685B8A94
:1031D0001B019AB2BB891343BB817B68BA899A8071
:1031E0007B687A899A833B689A687B68DA637B6834
:1031F000FA891A8400BF1437BD4680BC704700BFEF
:10320000000001400004014080B485B000AF786048
:1032100039600023BB8100237B810023FB817B6815
:103220001B8C9BB223F480539AB27B681A847B6810
:103230001B8C7B817B689B88FB817B689B8BBB8124
:10324000BB8923F4E043BB81BB8923F44073BB817A
:103250003B681B881B029AB2BB891343BB817B89E5
:1032600023F400537B813B689B891B039AB27B89C3
:1032700013437B813B685B881B039AB27B891343B2
:103280007B817B68114A934203D07B68104A93424A
:103290000AD1FB8923F48043FB813B681B8A9B0195
:1032A0009AB2FB891343FB817B68FA899A807B6819
:1032B000BA899A833B689A687B681A647B687A89C2
:1032C0001A8400BF1437BD4680BC7047000001401F
:1032D0000004014080B485B000AF78600B467B806D
:1032E0000023FB817B689B8BFB81FB8923F0080318
:1032F000FB81FA897B881343FB817B68FA899A8377
:1033000000BF1437BD4680BC704780B485B000AFA5
:1033100078600B467B800023FB817B689B8BFB8165
:10332000FB8923F40063FB817B881B029AB2FB8933
:103330001343FB817B68FA899A8300BF1437BD462B
:1033400080BC704780B483B000AF78600B467B8050
:1033500013467B707B78002B08D07B689B899AB2E0
:103360007B8813439AB27B689A8109E07B689B89CA
:103370009AB27B88DB439BB213409AB27B689A81F6
:1033800000BF0C37BD4680BC704780B483B000AF2F
:1033900078600B467B807B88DB439AB27B681A821D
:1033A00000BF0C37BD4680BC704780B483B000AF0F
:1033B00078600B467B8013467B707B78002B08D0AF
:1033C0007B689B899AB27B8813439AB27B689A8107
:1033D00009E07B689B899AB27B88DB439BB21340F0
:1033E0009AB27B689A8100BF0C37BD4680BC70479B
:1033F00081F0004102E000BF83F0004330B54FEAA6
:1034000041044FEA430594EA050F08BF90EA020F12
:103410001FBF54EA000C55EA020C7FEA645C7FEAA5
:10342000655C00F0E2804FEA5454D4EB5555B8BFC8
:103430006D420CDD2C4480EA020281EA030382EA39
:10344000000083EA010180EA020281EA0303362DCB
:1034500088BF30BD11F0004F4FEA01314FF4801C9E
:103460004CEA113102D0404261EB410113F0004FB0
:103470004FEA03334CEA133302D0524263EB430367
:1034800094EA050F00F0A780A4F10104D5F1200E05
:103490000DDB02FA0EFC22FA05F2801841F1000160
:1034A00003FA0EF2801843FA05F359410EE0A5F134
:1034B00020050EF1200E012A03FA0EFC28BF4CF065
:1034C000020C43FA05F3C01851EBE37101F000451B
:1034D00007D54FF0000EDCF1000C7EEB00006EEB28
:1034E0000101B1F5801F1BD3B1F5001F0CD34908B2
:1034F0005FEA30004FEA3C0C04F101044FEA445209
:1035000012F5800F80F09A80BCF1004F08BF5FEA8F
:10351000500C50F1000041EB045141EA050130BD6F
:103520005FEA4C0C404141EB010111F4801FA4F112
:103530000104E9D191F0000F04BF01460020B1FA67
:1035400081F308BF2033A3F10B03B3F120020CDA9F
:103550000C3208DD02F1140CC2F10C0201FA0CF07D
:1035600021FA02F10CE002F11402D8BFC2F1200CE2
:1035700001FA02F120FA0CFCDCBF41EA0C01904098
:10358000E41AA2BF01EB0451294330BD6FEA0404E1
:103590001F3C1CDA0C340EDC04F11404C4F12002CC
:1035A00020FA04F001FA02F340EA030021FA04F3DE
:1035B00045EA030130BDC4F10C04C4F1200220FA35
:1035C00002F001FA04F340EA0300294630BD21FA73
:1035D00004F0294630BD94F0000F83F4801306BF39
:1035E00081F480110134013D4EE77FEA645C18BF2D
:1035F0007FEA655C29D094EA050F08BF90EA020FC4
:1036000005D054EA000C04BF1946104630BD91EABB
:10361000030F1EBF0021002030BD5FEA545C05D1BE
:103620004000494128BF41F0004130BD14F58004FD
:103630003CBF01F5801130BD01F0004545F0FE4171
:1036400041F470014FF0000030BD7FEA645C1ABFA6
:10365000194610467FEA655C1CBF0B46024650EADD
:10366000013406BF52EA033591EA030F41F4002109
:1036700030BD00BF90F0000F04BF0021704730B58F
:103680004FF4806404F132044FF000054FF0000164
:1036900050E700BF90F0000F04BF0021704730B525
:1036A0004FF4806404F1320410F0004548BF4042FA
:1036B0004FF000013EE700BF42004FEAE2014FEA4F
:1036C00031014FEA02701FBF12F07F4393F07F4F2A
:1036D00081F06051704792F0000F14BF93F07F4F5C
:1036E000704730B54FF4607401F0004521F000419F
:1036F00020E700BF50EA010208BF704730B54FF025
:1037000000050AE050EA010208BF704730B511F029
:10371000004502D5404261EB41014FF4806404F161
:1037200032045FEA915C3FF4DCAE4FF003025FEAE3
:10373000DC0C18BF03325FEADC0C18BF033202EB6B
:10374000DC02C2F1200300FA03FC20FA02F001FAC5
:1037500003FE40EA0E0021FA02F11444C1E600BF64
:1037600070B54FF0FF0C4CF4E06C1CEA11541DBF17
:103770001CEA135594EA0C0F95EA0C0F00F0DEF8E2
:103780002C4481EA030621EA4C5123EA4C5350EAC7
:10379000013518BF52EA033541F4801143F4801318
:1037A00038D0A0FB02CE4FF00005E1FB02E506F0A9
:1037B0000042E0FB03E54FF00006E1FB03569CF0FE
:1037C000000F18BF4EF0010EA4F1FF04B6F5007F04
:1037D00064F5407404D25FEA4E0E6D4146EB060676
:1037E00042EAC62141EA55514FEAC52040EA5E50FF
:1037F0004FEACE2EB4F1FD0C88BFBCF5E06F1ED8A9
:10380000BEF1004F08BF5FEA500E50F1000041EBDF
:10381000045170BD06F0004646EA010140EA02008C
:1038200081EA0301B4EB5C04C2BFD4EB0C0541EAAE
:10383000045170BD41F480114FF0000E013C00F3C3
:10384000AB8014F1360FDEBF002001F0004170BDE7
:10385000C4F10004203C35DA0C341BDC04F1140400
:10386000C4F1200500FA05F320FA04F001FA05F28C
:1038700040EA020001F0004221F0004110EBD37059
:1038800021FA04F642EB06015EEA430E08BF20EA85
:10389000D37070BDC4F10C04C4F1200500FA04F328
:1038A00020FA05F001FA04F240EA020001F00041BA
:1038B00010EBD37041F100015EEA430E08BF20EA2D
:1038C000D37070BDC4F1200500FA05F24EEA020E75
:1038D00020FA04F301FA05F243EA020321FA04F0A4
:1038E00001F0004121FA04F220EA020000EBD3705B
:1038F0005EEA430E08BF20EAD37070BD94F0000F5B
:103900000FD101F00046400041EB010111F4801F8E
:1039100008BF013CF7D041EA060195F0000F18BF3F
:10392000704703F00046520043EB030313F4801F7B
:1039300008BF013DF7D043EA0603704794EA0C0F35
:103940000CEA135518BF95EA0C0F0CD050EA41064B
:1039500018BF52EA4306D1D181EA030101F00041C8
:103960004FF0000070BD50EA410606BF10461946F0
:1039700052EA430619D094EA0C0F02D150EA0136FC
:1039800013D195EA0C0F05D152EA03361CBF10463D
:1039900019460AD181EA030101F0004141F0FE41DC
:1039A00041F470014FF0000070BD41F0FE4141F460
:1039B000780170BD70B54FF0FF0C4CF4E06C1CEA60
:1039C00011541DBF1CEA135594EA0C0F95EA0C0F15
:1039D00000F0A7F8A4EB050481EA030E52EA0335D0
:1039E0004FEA013100F088804FEA03334FF08055F1
:1039F00045EA131343EA12634FEA022245EA11151E
:103A000045EA10654FEA00260EF000419D4208BFCE
:103A1000964244F1FD0404F5407402D25B084FEA7B
:103A20003202B61A65EB03055B084FEA32024FF427
:103A300080104FF4002CB6EB020E75EB030E22BF84
:103A4000B61A754640EA0C005B084FEA3202B6EB44
:103A5000020E75EB030E22BFB61A754640EA5C00F3
:103A60005B084FEA3202B6EB020E75EB030E22BF83
:103A7000B61A754640EA9C005B084FEA3202B6EB84
:103A8000020E75EB030E22BFB61A754640EADC0043
:103A900055EA060E18D04FEA051545EA16754FEAA5
:103AA00006164FEAC30343EA52734FEAC2025FEAC3
:103AB0001C1CC0D111F4801F0BD141EA00014FF052
:103AC00000004FF0004CB6E711F4801F04BF014323
:103AD0000020B4F1FD0C88BFBCF5E06F3FF6AFAE3F
:103AE000B5EB030C04BFB6EB020C5FEA500C50F1CF
:103AF000000041EB045170BD0EF0004E4EEA113152
:103B000014EB5C04C2BFD4EB0C0541EA045170BD58
:103B100041F480114FF0000E013C90E645EA060E9C
:103B20008DE60CEA135594EA0C0F08BF95EA0C0FCA
:103B30003FF43BAF94EA0C0F0AD150EA01347FF412
:103B400034AF95EA0C0F7FF425AF104619462CE7E9
:103B500095EA0C0F06D152EA03353FF4FDAE10464C
:103B6000194622E750EA410618BF52EA43067FF49D
:103B7000C5AE50EA41047FF40DAF52EA43057FF42D
:103B8000EBAE12E74FEA410212F5001215D211D541
:103B90006FF47873B3EB625212D94FEAC12343F04A
:103BA000004343EA505311F0004F23FA02F018BFCC
:103BB000404270474FF00000704750EA013005D195
:103BC00011F0004008BF6FF0004070474FF0000058
:103BD000704700BF80F0004002E000BF81F000416C
:103BE00042001FBF5FEA410392EA030F7FEA226CA3
:103BF0007FEA236C6AD04FEA1262D2EB1363C1BF33
:103C0000D218414048404140B8BF5B42192B88BFA1
:103C1000704710F0004F40F4000020F07F4018BFC4
:103C2000404211F0004F41F4000121F07F4118BFE4
:103C3000494292EA030F3FD0A2F1010241FA03FC8C
:103C400010EB0C00C3F1200301FA03F100F0004374
:103C500002D5494260EB4000B0F5000F13D3B0F13C
:103C6000807F06D340084FEA310102F10102FE2AAB
:103C700051D2B1F1004F40EBC25008BF20F001001B
:103C800040EA03007047490040EB000010F4000FC9
:103C9000A2F10102EDD1B0FA80FCACF1080CB2EB5C
:103CA0000C0200FA0CF0AABF00EBC25052421843BB
:103CB000BCBFD0401843704792F0000F81F4000160
:103CC00006BF80F400000132013BB5E74FEA410333
:103CD0007FEA226C18BF7FEA236C21D092EA030F9F
:103CE00004D092F0000F08BF0846704790EA010F19
:103CF0001CBF0020704712F07F4F04D1400028BF46
:103D000040F00040704712F100723CBF00F5000027
:103D1000704700F0004343F0FE4040F4000070475D
:103D20007FEA226216BF08467FEA23630146420209
:103D300006BF5FEA412390EA010F40F4800070471C
:103D40004FF0000304E000BF10F0004348BF4042C2
:103D50005FEA000C08BF704743F0964301464FF0FE
:103D600000001CE050EA010208BF70474FF000035A
:103D70000AE000BF50EA010208BF704711F000439B
:103D800002D5404261EB41015FEA010C02BF84466B
:103D90000146002043F0B64308BFA3F18053A3F5CA
:103DA0000003BCFA8CF2083AA3EBC25310DB01FA11
:103DB00002FC634400FA02FCC2F12002BCF1004F95
:103DC00020FA02F243EB020008BF20F00100704726
:103DD00002F1200201FA02FCC2F1200250EA4C007A
:103DE00021FA02F243EB020008BF20EADC707047C0
:103DF0004FF0FF0C1CEAD0521EBF1CEAD15392EACE
:103E00000C0F93EA0C0F6FD01A4480EA010C4002A9
:103E100018BF5FEA41211ED04FF0006343EA501003
:103E200043EA5111A0FB01310CF00040B1F5000F45
:103E30003EBF490041EAD3715B0040EA010062F1F4
:103E40007F02FD2A1DD8B3F1004F40EBC25008BFDE
:103E500020F00100704790F0000F0CF0004C08BFFC
:103E600049024CEA502040EA51207F3AC2BFD2F1C9
:103E7000FF0340EAC250704740F400004FF00003D7
:103E8000013A5DDC12F1190FDCBF00F00040704711
:103E9000C2F10002410021FA02F1C2F1200200FA4F
:103EA00002FC5FEA310040F1000053EA4C0308BF16
:103EB00020EADC70704792F0000F00F0004C02BF67
:103EC000400010F4000F013AF9D040EA0C0093F0E2
:103ED000000F01F0004C02BF490011F4000F013B3C
:103EE000F9D041EA0C018FE70CEAD15392EA0C0FAA
:103EF00018BF93EA0C0F0AD030F0004C18BF31F015
:103F0000004CD8D180EA010000F00040704790F0EA
:103F1000000F17BF90F0004F084691F0000F91F08E
:103F2000004F14D092EA0C0F01D142020FD193EA54
:103F30000C0F03D14B0218BF084608D180EA0100DC
:103F400000F0004040F0FE4040F40000704740F0B8
:103F5000FE4040F4400070474FF0FF0C1CEAD05286
:103F60001EBF1CEAD15392EA0C0F93EA0C0F69D0E2
:103F7000A2EB030280EA010C49024FEA402037D04D
:103F80004FF0805343EA111143EA10130CF0004044
:103F90008B4238BF5B0042F17D024FF4000C8B4234
:103FA00024BF5B1A40EA0C00B3EB510F24BFA3EB14
:103FB000510340EA5C00B3EB910F24BFA3EB9103E4
:103FC00040EA9C00B3EBD10F24BFA3EBD10340EA3E
:103FD000DC001B0118BF5FEA1C1CE0D1FD2A3FF684
:103FE00050AF8B4240EBC25008BF20F00100704739
:103FF0000CF0004C4CEA50207F32C2BFD2F1FF03DC
:1040000040EAC250704740F400004FF00003013A0C
:1040100037E792F0000F00F0004C02BF400010F4B0
:10402000000F013AF9D040EA0C0093F0000F01F0C4
:10403000004C02BF490011F4000F013BF9D041EAE6
:104040000C0195E70CEAD15392EA0C0F08D1420219
:104050007FF47DAF93EA0C0F7FF470AF084676E7EC
:1040600093EA0C0F04D14B023FF44CAF08466EE7C5
:1040700030F0004C18BF31F0004CCAD130F0004293
:104080007FF45CAF31F000437FF43CAF5FE700BFEB
:104090004FF0FF3C06E000BF4FF0010C02E000BF14
:1040A0004FF0010C4DF804CD4FEA40024FEA4103B6
:1040B0007FEA226C18BF7FEA236C11D001B052EA6C
:1040C000530C18BF90EA010F58BFB2EB030088BF32
:1040D000C81738BF6FEAE17018BF40F001007047A1
:1040E0007FEA226C02D15FEA402C05D17FEA236C83
:1040F000E4D15FEA412CE1D05DF8040B704700BFCA
:10410000844608466146FFE70FB5FFF7C9FF002860
:1041100048BF10F1000F0FBD4DF808EDFFF7F4FF99
:104120000CBF012000205DF808FB00BF4DF808ED32
:10413000FFF7EAFF34BF012000205DF808FB00BF55
:104140004DF808EDFFF7E0FF94BF012000205DF877
:1041500008FB00BF4DF808EDFFF7D2FF94BF012028
:1041600000205DF808FB00BF4DF808EDFFF7C8FF21
:1041700034BF012000205DF808FB00BF42000ED2D2
:10418000B2F1FE4F0BD34FF09E03B3EB126209D492
:104190004FEA002343F0004323FA02F070474FF048
:1041A0000000704712F1610F01D1420202D14FF0BD
:1041B000FF3070474FF00000704700BF0A22002117
:1041C00000F0C0BA70B4860746D0541E002A41D011
:1041D000CAB2034602E014F1FF343BD303F8012BCB
:1041E0009D07F8D1032C2ED9CDB245EA05250F2C19
:1041F00045EA054519D903F110022646103E0F2E57
:1042000042F8105C42F80C5C42F8085C42F8045C2E
:1042100002F11002F2D8A4F1100222F00F0204F011
:104220000F041032032C13440DD91E462246043AC3
:10423000032A46F8045BFAD8221F22F00302043254
:10424000134404F003042CB1C9B21C4403F8011B4D
:104250009C42FBD170BC704714460346C2E700BFC6
:10426000A2EB0300704700BF02780B78012A28BF39
:104270009A42F5D16DE9044540EA0104CDE90267AF
:104280006FF0000C4FEA447212B380EA010414F09C
:10429000070F6AD100F0070420F0070004F00305BF
:1042A00021F007014FEAC505F0E8042314F0040FDC
:1042B000F1E804670CFA05F462EA040266EA04060F
:1042C0000AD063EA0403624667EA0407664603E02D
:1042D000F0E80423F1E8046782FA4CF582EA060468
:1042E000A4FA8CF46CBB83FA4CF583EA0705A5FAB3
:1042F0008CF595B950E9022351E9026782FA4CF531
:1043000082EA0604A4FA8CF483FA4CF583EA0705E2
:10431000A5FA8CF52543DBD09CB92DBAB5FA85F406
:1043200024F0070427FA04F1DDE9026723FA04F315
:1043300003F0FF0001F0FF01FDE80445A0EB0100E0
:10434000704724BAB4FA84F424F0070426FA04F17E
:10435000DDE9026722FA04F202F0FF0001F0FF013A
:10436000FDE80445A0EB0100704714F0030F3CD1B9
:1043700010F0030428D150F8082B51F8083B82FABA
:104380004CF582EA0305A5FA8CF55DB950F8042CCA
:1043900051F8043C82FA4CF582EA0305A5FA8CF543
:1043A000002DE8D02DBAB5FA85F424F0070423FADD
:1043B00004F122FA04F202F0FF0001F0FF01FDE82F
:1043C0000445A0EB010070474FEAC40420F003004D
:1043D00050F8082B21F0030151F8083B0CFA04F4C3
:1043E00062EA040263EA0403C9E710F003041AD086
:1043F000A1EB040120F00300E40750F8042B06D0E1
:104400000FD28B785FFAA2F4E41A06D12BB1CB78E5
:104410005FFAB2F4E41A00D11BB920465DF8104BE4
:10442000704701F1040150F8042BCC0721F003017F
:1044300051F8043B48D824D222F07F4482FA4CF54C
:1044400094EA1325A5FA8CF50AD165B951F8043B15
:1044500084EA0204B4EB036F0ED150F8042BEBE7AF
:104460004FEA132355E035F07F454DD10878FDE83C
:104470000445C0F1000070474FEA126203F0FF03E9
:1044800047E002EA1C4482FA4CF594EA1345A5FA87
:104490008CF50AD165B951F8043B84EA0204B4EB07
:1044A000034F0CD150F8042BEBE74FEA134330E0F5
:1044B00015EA1C4528D10B884FEA124229E04FEA41
:1044C000124203EA1C4324E002F0FF0482FA4CF596
:1044D00094EA1365A5FA8CF50AD165B951F8043B45
:1044E00084EA0204B4EB032F09D150F8042BEBE764
:1044F0004FEA13630DE015F0FF0F05D10B684FEA8B
:10450000122223F07F4304E04FF00000FDE8044551
:10451000704712BA1BBA82FA4CF482EA0304A4FA76
:104520008CF5B5FA85F402FA04F203FA04F34FEAC3
:104530001260FDE80445A0EB136070470000000026
:1045400090F800F06DE9024520F007016FF0000CD3
:1045500010F0070491F820F040F049804FF000047B
:104560006FF00700D1E9002391F840F000F1080056
:1045700082FA4CF2A4FA8CF283FA4CF3A2FA8CF38E
:104580004BBBD1E9022382FA4CF200F10800A4FAF5
:104590008CF283FA4CF3A2FA8CF3E3B9D1E9042349
:1045A00082FA4CF200F10800A4FA8CF283FA4CF380
:1045B000A2FA8CF37BB9D1E9062301F1200182FA3A
:1045C0004CF200F10800A4FA8CF283FA4CF3A2FA40
:1045D0008CF3002BC6D0002A04BF04301A4612BA4E
:1045E000B2FA82F2FDE8024500EBD2007047D1E951
:1045F000002304F00305C4F100004FEAC50514F0E0
:10460000040F91F840F00CFA05F562EA05021CBFB0
:1046100063EA050362464FF00004A9E72DE9F84F6D
:10462000DDF828900F46804616461D468A4600E073
:10463000A2465446484614F801BB00F099F8584485
:10464000427812F00802F3D1BBF12D0F4FD0BBF12D
:104650002B0F04BF94F800B00AF102041DB1102D15
:1046600056D0AC4604E0BBF1300F60D00A25AC4612
:10467000002A0CBF6FF000494FF000490021B9FB40
:10468000FCFE08460CFB1E9A05E029D00CFB00300E
:10469000012114F801BBABF13003092B05D9ABF1B3
:1046A0004103192B0BD8ABF137039D420FDDB1F15C
:1046B000FF3FEED08645E8D24FF0FF31E9E7ABF19E
:1046C0006103192B03D8ABF157039D42EFDC4B1C60
:1046D00013D002B1404246B1C1B93760BDE8F88F8E
:1046E0009A45D3DA4FF0FF31D3E7BDE8F88F94F85D
:1046F00000B001220AF10204B0E72223C8F800301A
:10470000EEB1671E48463760BDE8F88F8146F8E78E
:10471000BBF1300FA5D1237803F0DF03582BA0D1D4
:104720004FF0100C94F801B065460234A0E72378EE
:1047300003F0DF03582BF3D00825AC4698E7484632
:10474000BDE8F88F30B5084C084B25686C6B83B01A
:10475000002C08BF1C46009413460A460146284612
:10476000FFF75CFF03B030BD1000002040040020C4
:10477000D0F8EC00704700BF82B049B15AB16BB1BC
:1047800013780B601278101C18BF012002B070471C
:1047900001A9002AF3D1104602B070476FF0010062
:1047A000F4E700BF21B1FF2A04D80A700120704746
:1047B000084670478A2303604FF0FF30704700BF00
:1047C0004000400000000000000000000000000069
:1047D000000000000000000000000000000044484D
:1047E000686C8C8C8C8C6C68484400000000000065
:1047F00000000000000000000000000000000000B9
:1048000000000000000000000000000000000000A8
:10481000000000000000000000004468B1D5F9F974
:10482000F9F9F9F9F9F9F9F9F9F9D5B1684400009C
:104830000000000000000000000000000000000078
:104840000000000000000000000000000000000068
:10485000000000000000000068B1F9F9F9F9F9F969
:10486000F9F9F9F9F9F9F9F9F9F9F9F9F9F9B16891
:104870000000000000000000000000000000000038
:104880000000000000000000000000000000000028
:104890000000000000448CD5F9F9F9F9F9F9F9F9AB
:1048A000F9F9F9F9F9F9F9F9F9F9F9F9F9F9F9F978
:1048B000F58C440000000000000000000000000033
:1048C00000000000000000000000000000000000E8
:1048D000000000006CF5F9F9F9F9F9F9F9F9F9F9BD
:1048E000F9F9F9F9F9F9F9F9F9F9F9F9F9F9F9F938
:1048F000F9F9F56C00000000000000000000000065
:1049000000000000000000000000000000000000A7
:10491000000048D5F9F9F9F9F9F9F9F9F9F9F9F9CE
:10492000F9F9F9F9F9F9F9F9F9F9F9F9F9F9F9F9F7
:10493000F9F9F9F9D5480000000000000000000076
:104940000000000000000000000000000000000067
:10495000008CF9F9F9F9F9F9F9F9F9F9F9F9F9F92D
:10496000F9F9F9F9F9F9F9F9F9F9F9F9F9F9F9F9B7
:10497000F9F9F9F9F9F98C000000000000000000D5
:1049800000000000000000000000000000000044E3
:10499000B1F9F9F9F9F9F9F9F9F9F9F9F9F9F9F9CF
:1049A000F9F9F9F9F9F9F9F9F9F9F9F9F9F9F9F977
:1049B000F9F9F9F9F9F9F9B1440000000000000033
:1049C000000000000000000000000000000044D5CE
:1049D000F9F9F9F9F9F9F9F9F9F9F9F9F9F9F9F947
:1049E000F9F9F9F9F9F9F9F9F9F9F9F9F9F9F9F937
:1049F000F9F9F9F9F9F9F9F9D544000000000000D6
:104A00000000000000000000000000000044F5F974
:104A1000F9F9F9F9F9F9F9F9F9F9F9F9F9F9F9F906
:104A2000F9F9F9F9F9F9F9F9F9F9F9F9F9F9F9F9F6
:104A3000F9F9F9F9F9F9F9F9F9F54400000000007C
:104A400000000000000000000000000044F5F9F93B
:104A5000F9F9F9F9F9F9F9F9F9F9F9F9F9F9F9F9C6
:104A6000F9F9F9F9F9F9F9F9F9F9F9F9F9F9F9F9B6
:104A7000F9F9F9F9F9F9F9F9F9F9F5440000000043
:104A8000000000000000000000000044D5F9F9F922
:104A9000F9F9F9F9F9F9F9F9F9F9F9F9F9F9F9F986
:104AA000F9F9F9F9F9F9F9F9F9F9F9F9F9F9F9F976
:104AB000F9F9F9F9F9F9F9F9F9F9F9D5440000002A
:104AC0000000000000000000000000B1F9F9F9F951
:104AD000F9F9F9F9F9F9F9F9F9F9F9F9F9F9F9F946
:104AE000F9F9F9F9F9F9F9F9F9F9F9F9F9F9F9F936
:104AF000F9F9F9F9F9F9F9F9F9F9F9F9B100000059
:104B0000000000000000000000008CF9F9F9F9F93C
:104B1000F9F9F9F9F9F9F9F9F9F9F9F9F9F9F9F905
:104B2000F9F9F9F9F9F9F9F9F9F9F9F9F9F9F9F9F5
:104B3000F9F9F9F9F9F9F9F9F9F9F9F9F98C000044
:104B400000000000000000000048F9F9F9F9F9F947
:104B5000F9F9F9F9F9F9F9F9F9F9F9F9F9F9F9F9C5
:104B6000F9F9F9F9F9F9F9F9F9F9F9F9F9F9F9F9B5
:104B7000F9F9F9F9F9F9F9F9F9F9F9F9F9F948004F
:104B8000000000000000000000D5F9F9F9F9F9F97A
:104B9000F9F9F9F9F9F9F9F9F9F9F9F9F9F9F9F985
:104BA000F9F9F9F9F9F9F9F9F9F9F9F9F9F9F9F975
:104BB000F9F9F9F9F9F9F9F9F9F9F9F9F9F9D50082
:104BC00000000000000000006CF9F9F9F9F9F9F9AA
:104BD000F9F9F9F9F9F9F9F9F9F9F9F9F9F9F9F945
:104BE000F9F9F9F9F9F9F9F9F9F9F9F9F9F9F9F935
:104BF000F9F9F9F9F9F9F9F9F9F9F9F9F9F9F98C92
:104C00000000000000000044F5F9F9F9F9F9F9F99C
:104C1000F9F9F9F9F9F9F9F9F9F9F9F9F9F9F9F904
:104C2000F9F9F9F9F9F9F9F9F9F9F9F9F9F9F9F9F4
:104C3000F9F9F9F9F9F9F9F9F9F9F9F9F9F9F9F5E8
:104C4000440000000000008CF9F9F9F9F9F9F9F9CC
:104C5000F9F9F9F9F9F9F9F9F9F9F9F9F9F9F9F9C4
:104C6000F9F9F9F9F9F9F9F9F9F9F9F9F9F9F9F9B4
:104C7000F9F9F9F9F9F9F9F9F9F9F9F9F9F9F9F9A4
:104C80008C000000000000D5F9F9F9F9F9F9F9F9FB
:104C9000F9F9F9F9F9F9F9F9F9F9F9F9F9F9F9F984
:104CA000F9F9F9F9F9F9F9F9F9F9F9F9F9F9F9F974
:104CB000F9F9F9F9F9F9F9F9F9F9F9F9F9F9F9F964
:104CC000D5000000000068F9F9F9F9F9F9F9F9F9E6
:104CD000F9F9F9F9F9F9D5D5D5D5F9F9F9F9F9F9D4
:104CE000F9F9F9F9F9F9F9F9F9F9F9F9F9F9D5D57C
:104CF000D5D5F9F9F9F9F9F9F9F9F9F9F9F9F9F96C
:104D0000F96800000000B1F9F9F9F9F9F9F9F9F9D0
:104D1000F9F9F9D56C440000000068D5F9F9F9F902
:104D2000F9F9F9F9F9F9F9F9F9F9F9F9D56800009A
:104D30000000446CD5F9F9F9F9F9F9F9F9F9F9F93B
:104D4000F9B100000044F9F9F9F9F9F9F9F9F9F9BB
:104D5000F9F9B10000000000000000008CF9F9F939
:104D6000F9F9F9F9F9F9F9F9F9F9F98C0000000004
:104D70000000000000B1F9F9F9F9F9F9F9F9F9F9C8
:104D8000F9F944000068F9F9F9F9F9F9F9F9F9F9CB
:104D9000F9B100000000000000000000006CF9F90B
:104DA000F9F9F9F9F9F9F9F9F9F96C0000000000DD
:104DB000000000000000B1F9F9F9F9F9F9F9F9F981
:104DC000F9F9680000B1F9F9F9F9F9F9F9F9F9F91E
:104DD000D5440000448CD5D5D58D44000000B1F9F0
:104DE000F9F9F9F9F9F9F9F9F9B10000004491D5A7
:104DF000D5D58C44000000D5F9F9F9F9F9F9F9F99C
:104E0000F9F9B10000D5F9F9F9F9F9F9F9F9F9F970
:104E10006C000044D5F9F9F9F9F9F968000044F992
:104E2000F9F9F9F9F9F9F9F9F944000068F9F9F92A
:104E3000F9F9F9D54400006CF9F9F9F9F9F9F9F93A
:104E4000F9F9D50044F9F9F9F9F9F9F9F9F9F9F9A4
:104E5000440044D5F9F9F9F9F9F9F9F9480000D510
:104E6000F9F9F9F9F9F9F9F9D5000048F9F9F9F979
:104E7000F9F9F9F9D5440044F9F9F9F9F9F9F9F929
:104E8000F9F9F94444F9F9F9F9F9F9F9F9F9F9D520
:104E900000008CF9F9F9F9F9F9F9F9F9D50000B13F
:104EA000F9F9F9F9F9F9F9F9B10000D5F9F9F9F9D0
:104EB000F9F9F9F9F98D0000D5F9F9F9F9F9F9F9E4
:104EC000F9F9F94468F9F9F9F9F9F9F9F9F9F9D5BC
:104ED0000000D5F9F9F9F9F9F9F9F9F9F944008D72
:104EE000F9F9F9F9F9F9F9F98C0044F9F9F9F9F94D
:104EF000F9F9F9F9F9D50000D5F9F9F9F9F9F9F95C
:104F0000F9F9F9686CF9F9F9F9F9F9F9F9F9F9D553
:104F10004868F9F9F9F9F9F9F9F9F9F9F98C48B1A9
:104F2000F9F9F9F9F9F9F9F9B1488CF9F9F9F9F957
:104F3000F9F9F9F9F9F96848D5F9F9F9F9F9F9F947
:104F4000F9F9F96C8CF9F9F9F9F9F9F9F9F9F9F9CB
:104F5000F9F9F9F9F9F9F9F9F9F9F9F9F9F9F9F9C1
:104F6000F9F9F9F9F9F9F9F9F9F9F9F9F9F9F9F9B1
:104F7000F9F9F9F9F9F9F9F9F9F9F9F9F9F9F9F9A1
:104F8000F9F9F98C8CF9F9F9F9F9F9F9F9F9F9F96B
:104F9000F9F9F9F9F9F9F9F9F9F9F9F9F9F9F9F981
:104FA000F9F9F9F9F9F9F9F9F9F9F9F9F9F9F9F971
:104FB000F9F9F9F9F9F9F9F9F9F9F9F9F9F9F9F961
:104FC000F9F9F98C8CF9F9F9F9F9F9F9F9F9F9F92B
:104FD000F9F9F9F9F9F9F9F9F9F9F9F9F9F9F9F941
:104FE000F9F9F9F9F9F9F9F9F9F9F9F9F9F9F9F931
:104FF000F9F9F9F9F9F9F9F9F9F9F9F9F9F9F9F921
:10500000F9F9F98C8CF9F9F9F9F9F9F9F9F9F9F9EA
:10501000F9F9F9F9F9F9F9F9F9F9F9F9F9F9F9F900
:10502000F9F9F9F9F9F9F9F9F9F9F9F9F9F9F9F9F0
:10503000F9F9F9F9F9F9F9F9F9F9F9F9F9F9F9F9E0
:10504000F9F9F98C6CF9F9F9F9F9F9F9F9F9F9F9CA
:10505000F9F9F9F9F9F9F9F9F9F9F9F9F9F9F9F9C0
:10506000F9F9F9F9F9F9F9F9F9F9F9F9F9F9F9F9B0
:10507000F9F9F9F9F9F9F9F9F9F9F9F9F9F9F9F9A0
:10508000F9F9F96C68F9F9F9F9F9F9F9F9F9F9F9AE
:10509000F9F9F9F9F9F9F9F9F9F9F9F9F9F9F9F980
:1050A000F9F9F9F9F9F9F9F9F9F9F9F9F9F9F9F970
:1050B000F9F9F9F9F9F9F9F9F9F9F9F9F9F9F9F960
:1050C000F9F9F96844F9F9F9F9F9F9F9F9F9F9F996
:1050D000F9F9F9F9F9F9F9F9F9F9F9F9F9F9F9F940
:1050E000F9F9F9F9F9F9F9F9F9F9F9F9F9F9F9F930
:1050F000F9F9F9F9F9F9F9F9F9F9F9F9F9F9F9F920
:10510000F9F9F94444F9F9F9F9F9F9F9F9F9F9F979
:10511000F9F9F9F9F9F9F9F9F9F9F9F9F9F9F9F9FF
:10512000F9F9F9F9F9F9F9F9F9F9F9F9F9F9F9F9EF
:10513000F9F9F9F9F9F9F9F9F9F9F9F9F9F9F9F9DF
:10514000F9F9F94400D5F9F9F9F9F9F9F9F9F9F9A1
:10515000F9F9FEFEFEFEFEFEFEFEFEFEFEFEFEFE79
:10516000FEFEFEFEFEFEFEFEFEFEFEFEFEFEFEFE5F
:10517000FEFEFEFEFEFEF9F9F9F9F9F9F9F9F9F981
:10518000F9F9D50000B1F9F9F9F9F9F9F9F9F9F9ED
:10519000F9F9FFFFFFFFFFFFFFFFFFFFFFFFFFFF2B
:1051A000FFFFFFFFFFFFFFFFFFFFFFFFFFFFFFFF0F
:1051B000FFFFFFFFFFFFF9F9F9F9F9F9F9F9F9F93B
:1051C000F9F9B1000068F9F9F9F9F9F9F9F9F9F91A
:1051D000F9F9FFFFFFFFFFFFFFFFFFFFFFFFFFFFEB
:1051E000FFFFFFFFFFFFFFFFFFFFFFFFFFFFFFFFCF
:1051F000FFFFFFFFFFFFF9F9F9F9F9F9F9F9F9F9FB
:10520000F9F968000044F9F9F9F9F9F9F9F9F9F946
:10521000F9F9FFFFFFFFFFFFFFFFFFFFFFFFFFFFAA
:10522000FFFFFFFFFFFFFFFFFFFFFFFFFFFFFFFF8E
:10523000FFFFFFFFFFFFF9F9F9F9F9F9F9F9F9F9BA
:10524000F9F944000000B1F9F9F9F9F9F9F9F9F9B6
:10525000F9F9FEFFFFFFFFFFFFFFFFFFFFFFFFFF6B
:10526000FFFFFFFFFFFFFFFFFFFFFFFFFFFFFFFF4E
:10527000FFFFFFFFFFFEF9F9F9F9F9F9F9F9F9F97B
:10528000F9B10000000068F9F9F9F9F9F9F9F9F94B
:10529000F9F9D54949494949494949494949494992
:1052A000494949494949494949494949494949496E
:1052B0004949494949D5F9F9F9F9F9F9F9F9F9F9F2
:1052C000F9680000000000D5F9F9F9F9F9F9F9F9E0
:1052D000F9F9F544000000000000000000000000A3
:1052E00000000000000000000000000000000000BE
:1052F0000000000000F5F9F9F9F9F9F9F9F9F9F9FF
:10530000D50000000000008CF9F9F9F9F9F9F9F974
:10531000F9F9F9680000000000000000000000003A
:10532000000000000000000000000000000000007D
:105330000000000068F9F9F9F9F9F9F9F9F9F9F952
:105340008C00000000000044F5F9F9F9F9F9F9F9C9
:10535000F9F9F9D50000000000000000000000008D
:10536000000000000000000000000000000000003D
:1053700000000000D5F9F9F9F9F9F9F9F9F9F9F5A9
:1053800044000000000000006CF9F9F9F9F9F9F99E
:10539000F9F9F9F9680000000000000000000000C1
:1053A00000000000000000000000000000000000FD
:1053B00000000068F9F9F9F9F9F9F9F9F9F9F96C66
:1053C000000000000000000000D5F9F9F9F9F9F932
:1053D000F9F9F9F9F54400000000000000000000B0
:1053E00000000000000000000000000000000000BD
:1053F000000044D5F9F9F9F9F9F9F9F9F9F9D50005
:1054000000000000000000000048F9F9F9F9F9F97E
:10541000F9F9F9F9F9B100000000000000000000FE
:10542000000000000000000000000000000000007C
:105430000000B1F9F9F9F9F9F9F9F9F9F9F94800C0
:10544000000000000000000000008CF9F9F9F9F9F3
:10545000F9F9F9F9F9F98C000000000000000000EA
:10546000000000000000000000000000000000003C
:10547000008CF9F9F9F9F9F9F9F9F9F9F98C000061
:105480000000000000000000000000B1F9F9F9F987
:10549000F9F9F9F9F9F9F96C0000000000000000D1
:1054A00000000000000000000000000000000000FC
:1054B0006CF9F9F9F9F9F9F9F9F9F9F9B10000001C
:1054C000000000000000000000000044D5F9F9F9D8
:1054D000F9F9F9F9F9F9F9F98C0000000000000078
:1054E000004484A4A4844400000000000000008C58
:1054F000F9F9F9F9F9F9F9F9F9F9F9D544000000E0
:1055000000000000000000000000000044D5F9F990
:10551000F9F9F9F9F9F9F9F9F9B144000000004491
:10552000A4E8E8E8E8E8E8A4440000000044B1F991
:10553000F9F9F9F9F9F9F9F9F9F9F5440000000078
:105540000000000000000000000000000044D5F949
:10555000F9F9F9F9F9F9F9F9F9F9F56C000000C46C
:10556000E8E8E8E8E8E8E8E8C40000006CF5F9F9E4
:10557000F9F9F9F9F9F9F9F9F9F544000000000031
:10558000000000000000000000000000000044D502
:10559000F9F9F9F9F9F9F9F9F9F9F9F9D58CA8E86E
:1055A000E8E8E8E8E8E8E8E8E8A88CD5F9F9F9F9E6
:1055B000F9F9F9F9F9F9F9F9D5440000000000000A
:1055C0000000000000000000000000000000004497
:1055D000B1F9F9F9F9F9F9F9F9F9F9F9F9F9F9F587
:1055E000F1F1EDEDEDEDF1F1F5F9F9F9F9F9F9F97F
:1055F000F9F9F9F9F9F9F9B14400000000000000E7
:10560000000000000000000000000000000000009A
:10561000008CF9F9F9F9F9F9F9F9F9F9F9F9F9F960
:10562000F9F9F9F9F9F9F9F9F9F9F9F9F9F9F9F9EA
:10563000F9F9F9F9F9F98C00000000000000000008
:10564000000000000000000000000000000000005A
:10565000000048D5F9F9F9F9F9F9F9F9F9F9F9F981
:10566000F9F9F9F9F9F9F9F9F9F9F9F9F9F9F9F9AA
:10567000F9F9F9F9D5480000000000000000000029
:10568000000000000000000000000000000000001A
:10569000000000006CF5F9F9F9F9F9F9F9F9F9F9EF
:1056A000F9F9F9F9F9F9F9F9F9F9F9F9F9F9F9F96A
:1056B000F9F9F56C00000000000000000000000097
:1056C00000000000000000000000000000000000DA
:1056D0000000000000008CD5F9F9F9F9F9F9F9F9A1
:1056E000F9F9F9F9F9F9F9F9F9F9F9F9F9F9F9F92A
:1056F000D58C000000000000000000000000000049
:105700000000000000000000000000000000000099
:10571000000000000000000068B1F9F9F9F9F9F99A
:10572000F9F9F9F9F9F9F9F9F9F9F9F9F9F9B168C2
:105730000000000000000000000000000000000069
:105740000000000000000000000000000000000059
:10575000000000000000000000004468B1D5F9F925
:10576000F9F9F9F9F9F9F9F9F9F9D5B1684400004D
:105770000000000000000000000000000000000029
:105780000000000000000000000000000000000019
:105790000000000000000000000000000000444481
:1057A000686C8C8C8C8C6C68444400000000000099
:1057B00000000000000000000000000000000000E9
:1057C0000000000040004000000000000000000059
:1057D00000000000000000000000000000000000C9
:1057E0000000444464648484848464644444000009
:1057F00000000000000000000000000000000000A9
:105800000000000000000000000000000000000098
:1058100000000000000000000000000000004464E0
:1058200084C4E8E8E8E8E8E8E8E8E8E8E8E8C48408
:1058300064440000000000000000000000000000C0
:105840000000000000000000000000000000000058
:1058500000000000000000000000000064A4E8E870
:10586000E8E8E8E8E8E8E8E8E8E8E8E8E8E8E8E8B8
:10587000E8E8A46400000000000000000000000050
:105880000000000000000000000000000000000018
:105890000000000000000000000064C4E8E8E8E840
:1058A000E8E8E8E8E8E8E8E8E8E8E8E8E8E8E8E878
:1058B000E8E8E8E8C4640000000000000000000020
:1058C00000000000000000000000000000000000D8
:1058D000000000000000000064C8E8E8E8E8E8E82C
:1058E000E8E8E8E8E8E8E8E8E8E8E8E8E8E8E8E838
:1058F000E8E8E8E8E8E8C86400000000000000000C
:105900000000000000000000000000000000000097
:1059100000000000000044C4E8E8E8E8E8E8E8E83F
:10592000E8E8E8E8E8E8E8E8E8E8E8E8E8E8E8E8F7
:10593000E8E8E8E8E8E8E8E8C4440000000000001F
:105940000000000000000000000000000000000057
:10595000000000000084E8E8E8E8E8E8E8E8E8E8B3
:10596000E8E8E8E8E8E8E8E8E8E8E8E8E8E8E8E8B7
:10597000E8E8E8E8E8E8E8E8E8E884000000000093
:105980000000000000000000000000000000000017
:1059900000000044A4E8E8E8E8E8E8E8E8E8E8E827
:1059A000E8E8E8E8E8E8E8E8E8E8E8E8E8E8E8E877
:1059B000E8E8E8E8E8E8E8E8E8E8E8A44400000007
:1059C00000000000000000000000000000000000D7
:1059D000000044C4E8E8E8E8E8E8E8E8E8E8E8E8DF
:1059E000E8E8E8E8E8E8E8E8E8E8E8E8E8E8E8E837
:1059F000E8E8E8E8E8E8E8E8E8E8E8E8C4440000BF
:105A00000000000000000000000000000000000096
:105A10000044C8E8E8E8E8E8E8E8E8E8E8E8E8E8B2
:105A2000E8E8E8E8E8E8E8E8E8E8E8E8E8E8E8E8F6
:105A3000E8E8E8E8E8E8E8E8E8E8E8E8E8C8440092
:105A40000000000000000000000000000000000056
:105A500044C8E8E8E8E8E8E8E8E8E8E8E8E8E8E88A
:105A6000E8E8E8E8E8E8E8E8E8E8E8E8E8E8E8E8B6
:105A7000E8E8E8E8E8E8E8E8E8E8E8E8E8E8C8446A
:105A800000000000000000000000000000000044D2
:105A9000C4E8E8E8E8E8E8E8E8E8E8E8E8E8E8E8AA
:105AA000E8E8E8E8E8E8E8E8E8E8E8E8E8E8E8E876
:105AB000E8E8E8E8E8E8E8E8E8E8E8E8E8E8E8C48A
:105AC000440000000000000000000000000000A4EE
:105AD000E8E8E8E8E8E8E8E8E8E8E8E8E8E8E8E846
