:020000040800F2
:10000000043D0120F50700085108000851080008C8
:1000100051080008510800085108000800000000BD
:10002000000000000000000000000000510800086F
:10003000510800080000000051080008510800089D
:10004000510800085108000851080008510800082C
:10005000510800085108000851080008510800081C
:10006000510800085108000851080008510800080C
:1000700051080008510800085108000851080008FC
:1000800051080008510800085108000851080008EC
:1000900051080008510800085108000851080008DC
:1000A00051080008510800085108000851080008CC
:1000B000013B0008510800085108000851080008D9
:1000C00051080008510800085108000851080008AC
:1000D00051080008510800080D06000851080008E2
:1000E000510800085108000851080008510800088C
:1000F000510800085108000851080008510800087C
:10010000510800085108000851080008510800086B
:10011000510800085108000851080008510800085B
:10012000510800085108000851080008510800084B
:10013000510800085108000851080008510800083B
:10014000510800085108000851080008510800082B
:10015000BD3B00085108000851080008510800087C
:10016000510800085108000851080008510800080B
:1001700051080008510800085108000851080008FB
:10018000510800085108000880B58AB000AF7860B7
:10019000396000237B6200233B620023FB61002364
:1001A000BB617B681B8A9BB27B627B6A23F44053F2
:1001B0007B623B68DB881A467B6A13437B627B6AFF
:1001C0009AB27B681A827B689B899BB27B627B6A4E
:1001D00023F4B05323F00C037B623B689A883B689E
:1001E0001B8913439AB23B685B8913439BB21A463F
:1001F0007B6A13437B627B6A9AB27B689A817B68D5
:100200009B8A9BB27B627B6A23F440737B623B6870
:100210009B891A467B6A13437B627B6A9AB27B682E
:100220009A8207F10803184602F07CFE7B68304A88
:10023000934203D07B682F4A934202D17B693B6291
:1002400001E03B693B627B689B899BB21BB2002B40
:100250000CDA3A6A13469B0013449A001A443B682E
:100260001B685B00B2FBF3F3FB610BE03A6A1346D9
:100270009B0013449A001A443B681B689B00B2FB26
:10028000F3F3FB61FB691C4AA2FB03235B091B011F
:100290007B627B6A1B09642202FB03F3FA69D31AAF
:1002A000BB617B689B899BB21BB2002B0CDABB69DC
:1002B000DB003233104AA2FB03235B0903F0070380
:1002C0007A6A13437B620BE0BB691B0132330A4A33
:1002D000A2FB03235B0903F00F037A6A13437B62DB
:1002E0007B6A9AB27B681A8100BF2837BD4680BD01
:1002F00000100140001401401F85EB5180B483B011
:1003000000AF78600B46FB70FB78002B08D07B6851
:100310009B899BB243F400539AB27B689A8107E0B1
:100320007B689B899BB223F400539AB27B689A81C5
:1003300000BF0C37BD4680BC704780B483B000AFAF
:1003400078600B467B807B88C3F308039AB27B6896
:100350009A8000BF0C37BD4680BC704780B487B020
:1003600000AF78600B467B8013467B7000233B61B7
:100370000023FB600023BB6000237B617B687B6103
:100380007B88DBB25B09DBB23B617B8803F01F0338
:10039000FB600122FB6802FA03F3BB603B69012B9F
:1003A00003D17B690C337B6109E03B69022B03D1EC
:1003B0007B6910337B6102E07B6914337B617B785E
:1003C000002B06D07B697A691168BA680A431A6003
:1003D00006E07B697A691168BA68D2430A401A60FC
:1003E00000BF1C37BD4680BC704780B485B000AFED
:1003F00078600B467B800023FB737B681B889AB276
:100400007B8813409BB2002B02D00123FB7301E0D9
:100410000023FB73FB7B18461437BD4680BC704736
:1004200080B487B000AF78600B467B800023FB6010
:1004300000237B610023BB600023FB747B88DBB25D
:100440005B09DBB2BB607B8803F01F037B61012289
:100450007B6902FA03F37B61BB68012B07D17B68E0
:100460009B899BB21A467B6913407B6111E0BB6894
:10047000022B07D17B681B8A9BB21A467B6913400B
:100480007B6106E07B689B8A9BB21A467B691340BE
:100490007B617B881B0A9BB2FB600122FB6802FA2E
:1004A00003F3FB607B681B889BB21A46FB68134012
:1004B000FB607B69002B05D0FB68002B02D0012379
:1004C000FB7401E00023FB74FB7C18461C37BD461F
:1004D00080BC704780B485B000AF78600B467B80ED
:1004E0000023FB810023BB817B881B0AFB81FB89E6
:1004F000012202FA03F3BB81BB89DB439AB27B681A
:100500001A8000BF1437BD4680BC704780B586B0E6
:1005100000AF01214FF4003002F0CAFD012101209B
:1005200002F0A8FD0C233B6102233B750023BB7541
:100530000123FB7502237B7507F11003194616484A
:1005400002F0F2FD07220221134802F07AFE072290
:100550000321114802F075FE4FF4E1333B600023A4
:10056000BB800023FB8000233B810023BB810C2345
:100570007B813B4619460948FFF706FE012240F2FF
:1005800025510648FFF7EAFE01210448FFF7B6FEB1
:1005900000BF1837BD4680BD000002400044004047
:1005A00080B582B000AF0346FB7100BF80210848D0
:1005B000FFF71BFF0346002BF8D0FB799BB21946CF
:1005C0000348FFF7BAFE00BF0837BD4680BD00BF35
:1005D0000044004080B584B000AF78600023FB6029
:1005E00009E0FB687A6813441B781846FFF7D8FFC8
:1005F000FB680133FB60FB687A6813441B78002BAF
:10060000EFD100BF1037BD4680BD000080B582B07D
:1006100000AF40F225512748FFF702FF0346002BA9
:1006200044D040F225512348FFF754FF214B9B88CB
:100630009BB2FB70FB78402B05D9FB785A2B02D874
:10064000FB782033FB70FB780D2B1DD800237B60DB
:100650000BE0194A7B6813441B789BB21946154876
:10066000FFF76BFE7B6801337B60144B1B687A6875
:100670009A42EEDB114B00221A60FB789BB21946BE
:100680000C48FFF75AFE09E00C4B1B680A49FA7840
:10069000CA540A4B1B680133084A136000BF40214B
:1006A0000448FFF7A2FE0346002BF8D000BF08372E
:1006B000BD4680BD00440040B0050020AC050020D0
:1006C00080B582B000AFFF23FB7120210748FFF700
:1006D0008CFE0346012B03D1044B9B889BB2FB711C
:1006E000FB7918460837BD4680BD00BF0044004076
:1006F00080B582B000AF78603960FFF7E1FF034654
:100700001A467B681A707B681B78FF2B17D07B68B2
:100710001B780A2B13D03B68002B04D07B681B7816
:100720001846FFF73DFF7B681B780D2B03D17B68D4
:1007300000221A7005E07B6801337B60DDE700BFB3
:10074000DBE70837BD4680BD80B582B000AF034609
:10075000FB80FB88002B03D10F48FFF73BFF17E01E
:10076000FB88012B03D0FB88B3F5807F03D10B48B6
:10077000FFF730FF0CE0FB88022B03D10848FFF79E
:1007800029FF05E0FB88032B02D10648FFF722FF73
:1007900000BF0837BD4680BD005500080C55000855
:1007A000345500085455000880B582B000AF02F0FF
:1007B00091FD03F037F8002002F086F9FFF7A6FE5E
:1007C0000A48FFF707FF01210948FFF791FF084892
:1007D00000F042F80346FB71FB79002BF3D000F0E8
:1007E00081F803461846FFF7AFFFECE774550008A1
:1007F0001033012080B582B000AF104B7B60104BEE
:100800003B6007E03B681A1D3A607A68111D796009
:1008100012681A603B680B4A9342F3D30A480B49AB
:100820004FF000028842B8BF40F8042BFADBFFF714
:10083000BBFF00BF0837BD4680BD00BF8DD200089A
:1008400000000020AC050020AC050020043501208C
:1008500080B400AFFEE7000090B585B000AF7860CF
:100860000023FB730023BB734FF4C87200211C48A4
:1008700004F038FB00237B7313E0BA7B7B7BF97BAE
:10088000786801440C781649322000FB02F20A44D1
:10089000134422461A707B7B01337B73FB7B01334D
:1008A000FB73FB7B7A6813441B782C2B05D0FB7BF6
:1008B0007A6813441B78002BDFD1FB7B7A681344E2
:1008C0001B78002B06D0BB7B0133BB73FB7B013352
:1008D000FB73CFE700BFBB7B18461437BD4690BD06
:1008E000743301202DE9F04788B006AFAA4B1B787E
:1008F000623B152B00F2498101A252F823F000BFA0
:100900002F0B0008610B00086B0A0008B9090008EA
:100910008B0B00088B0B00088B0B00088B0B00085F
:100920008B0B00088B0B0008590900088B0B000883
:100930008B0B00088B0B00088B0B00088B0B00083F
:100940000F0A00088B0B0008E90A00088B0B00084F
:100950008B0B0008750B0008904804F0BFFA0346A3
:100960009DB28F4804F0BAFA03469BB2C3F1EF037D
:100970009EB28C4804F0B2FA03461FFA83F88A4804
:1009800004F0ACFA03469BB2C3F1EF031FFA83F9FC
:10099000864804F0A3FA0346DCB2854800F00CF95F
:1009A0000346019300944B4642463146284600F0E8
:1009B000BFFB0346FB80E8E0784804F08FFA03466B
:1009C0009CB2774804F08AFA03469BB2C3F1EF0366
:1009D0009DB2744804F082FA03469EB2724804F055
:1009E0007DFA03461FFA83F8704800F0E5F80346E5
:1009F0001A46012302930192012300934346324693
:100A00002946204600F072FE0346FB80BDE06348A5
:100A100004F064FA03469CB2614804F05FFA0346AE
:100A20009BB2C3F1EF039DB25E4804F057FA034650
:100A30009EB25D4804F052FA03469BB2C3F1EF0345
:100A40001FFA83F8594800F0B7F803461A46012305
:100A500002930192012300934346324629462046E1
:100A600001F092F80346FB808FE04C4804F036FA20
:100A700003469EB24A4804F031FA03469BB2C3F1E2
:100A8000EF031FFA83F8474804F028FA03461FFAD9
:100A900083F9454804F022FA03469BB2C3F1EF0301
:100AA0001FFA83FA414804F019FA03469CB2404801
:100AB00004F014FA03469BB2C3F1EF039DB23D4824
:100AC00000F07AF803461A460123049303920123A7
:100AD00002930195009453464A464146304601F040
:100AE00007F90346FB8050E02C4804F0F7F9034671
:100AF0009CB22B4804F0F2F903469BB2C3F1EF031A
:100B00009DB2294800F058F803461E46274800F0D9
:100B1000F7F8034602930196012300930123214A2B
:100B20002946204600F05CF90346FB802DE01C4876
:100B300004F0D4F903469CB21A4804F0CFF90346F6
:100B40009BB2C3F1EF039DB2144800F003F90346D2
:100B50001A462946204601F06DFF0346FB8014E04B
:100B60000E4800F029F80346184601F0ADFF034691
:100B7000FB800AE0094804F0B1F903469BB218462D
:100B800001F0C6FF0346FB8000BFFB88184608370C
:100B9000BD46BDE8F08700BF74330120A6330120B5
:100BA000D83301200A3401203C3401206E34012066
:100BB000A0340120D234012080B582B000AF78602B
:100BC0007968414804F0E0F90346002B01D1032382
:100BD00075E079683D4804F0D7F90346002B01D150
:100BE0000B236CE079683A4804F0CEF90346002BF9
:100BF00001D11C2363E07968364804F0C5F9034647
:100C0000002B01D15D235AE07968334804F0BCF928
:100C10000346002B01D11F2351E079682F4804F0CF
:100C2000B3F90346002B01D19B2348E079682C4897
:100C300004F0AAF90346002B01D1E0233FE07968D4
:100C4000284804F0A1F90346002B01D1E92336E03E
:100C50007968254804F098F90346002B01D1E32375
:100C60002DE07968214804F08FF90346002B01D16B
:100C7000F32324E079681E4804F086F90346002B2C
:100C800001D188231BE079681A4804F07DF90346F6
:100C9000002B01D1FC2312E07968174804F074F9A5
:100CA0000346002B01D1922309E07968134804F030
:100CB0006BF90346002B01D1FF2300E00023184607
:100CC0000837BD4680BD00BF28B6000830B6000812
:100CD0003CB6000844B6000850B6000858B60008F4
:100CE00064B600086CB6000878B6000880B6000844
:100CF00090B6000898B60008A0B60008A8B600088C
:100D000080B582B000AF786079680F4804F03CF994
:100D10000346002B01D1012312E079680B4804F04F
:100D200033F90346002B01D1022309E07968084812
:100D300004F02AF90346002B01D1032300E000232D
:100D400018460837BD4680BDACB60008B4B60008EA
:100D5000B8B6000880B582B000AF7860786804F05B
:100D6000BDF80346002B01D1174B28E0786804F04A
:100D7000B5F80346012B01D1144B20E0786804F04C
:100D8000ADF80346022B01D1114B18E0786804F04E
:100D9000A5F80346032B01D10E4B10E0786804F050
:100DA0009DF80346042B01D10B4B08E0786804F052
:100DB00095F80346052B01D1084B00E000231846A7
:100DC0000837BD4680BD00BFA0750008B483000889
:100DD000C8910008DC9F0008985500089C65000831
:100DE00080B58AB000AFBA601A460346FB810B4655
:100DF000BB811346FB71FB89B3F5A07F02D8BB8989
:100E0000F02B01D9012383E1FB79012B02D0FB797F
:100E1000022B0FD197F83830012B07D097F83830D4
:100E2000022B03D097F83830032B03D197F83030DA
:100E30000A2B01D903236BE10023FB84002387F8ED
:100E40002530B86804F01CFA03463B830C23FB8270
:100E50000723BB82002387F8243051E1FA89BB8A3B
:100E600097F8301001FB03F397F82410013101FBD0
:100E700003F31A4497F83030B98A01FB03F397F86B
:100E8000251001FB03F303F5A0739A4206DBFB8CEC
:100E90000133FB8497F8243087F8253097F8243005
:100EA000BA6813441B78184601F052FE03469BB201
:100EB000FA8A12FB03F37B8497F830309BB2FA8AEC
:100EC00012FB03F39BB2BA89D31A9BB2013B3B845A
:100ED0000BE10023FB83F8E00023BB83EEE000235B
:100EE0007B83E1E097F830309BB2BA8B12FB03F3BF
:100EF0009AB2FB8913449AB27B8BD31A9AB297F8B1
:100F000030309BB2B98A11FB03F399B297F82430C1
:100F10009BB211FB03F39BB213449AB297F83030A3
:100F20009BB2B98A11FB03F399B297F825309BB2B3
:100F300011FB03F39BB2D31A7B823A8CFB8B1344D5
:100F40009AB297F830309BB2F98C11FB03F39BB245
:100F5000F98A11FB03F39BB213443B823B8AF02BCB
:100F600001D90223D4E0FB79012B4BD197F838301B
:100F7000022B18D0032B2BD0012B43D17B8C664A3C
:100F8000D35C1A46BB8BC3F1080342FA03F303F0A8
:100F90000103002B31D097F83420398A7B8A184618
:100FA00001F022FD29E07B8C5C4AD35C1A46BB8BA6
:100FB000C3F1080342FA03F303F00103002B1ED030
:100FC00097F83420398A7B8A184601F00DFD16E027
:100FD0007B8C534AD35C1A46BB8BC3F1080342FA9D
:100FE00003F303F00103002B0BD097F83420398A68
:100FF0007B8A184601F0F8FC03E000BF02E000BF66
:1010000000E000BFFB79022B4BD197F83830022B60
:1010100018D0032B2BD0012B43D17B8C414AD35CBE
:101020001A46BB8BC3F1080342FA03F303F0010332
:10103000002B31D097F83420398A7B8A184601F08A
:10104000D3FC29E07B8C384AD35C1A46BB8BC3F1B6
:10105000080342FA03F303F00103002B1ED097F8B4
:101060003420398A7B8A184601F0BEFC16E07B8C5E
:101070002E4AD35C1A46BB8BC3F1080342FA03F332
:1010800003F00103002B0BD097F83420398A7B8AB8
:10109000184601F0A9FC03E000BF02E000BF00E039
:1010A00000BF7B8B01337B8397F830309BB27A8B08
:1010B0009A42FFF417AFBB8B0133BB83BB8B072B6B
:1010C0007FF60DAFFB8B0133FB8397F830309BB27B
:1010D000FA8B9A42FFF400AF7B8C01337B8497F844
:1010E00030309AB23B8C13443B843A8CBB89013B31
:1010F0009A42FFF6EEAE97F82430013387F8243099
:1011000097F824309BB23A8B9A423FF6A7AE002361
:1011100018462837BD4680BDC0B60008A8BF0008E5
:1011200034BB00081CC4000890C8000804CD0008A7
:1011300090B591B000AF0446084611461A462346C2
:10114000FB800346BB800B467B8013463B80FB88BD
:10115000B3F5A07F09D87B88B3F5A07F05D8BB88FD
:10116000F02B02D83B88F02B01D90123B7E297F886
:101170005030322B01D90223B1E297F85030FB8274
:101180007A88FB889A424DD100237B8746E0FB8812
:101190000133FB807B8801337B80BB88BB873B8826
:1011A000FB8700233B8732E0BB8F0133BB87FB8F7C
:1011B0000133FB87BA883B889A4210D3FB8FFB86AA
:1011C00009E097F85420F98E7B88184601F00CFC52
:1011D000FB8E0133FB86FA8EBB8F9A42F1D9BA8817
:1011E0003B889A4210D2BB8FBB8609E097F8542007
:1011F000B98E7B88184601F0F7FBBB8E0133BB86A6
:10120000BA8EFB8F9A42F1D93B8F01333B873A8FDD
:10121000FB8A9A42C8D97B8F01337B877A8FFB8AFE
:101220009A42B4D93A88BB889A4252D100237B862D
:101230004AE0FB880133FB807B8801337B80BB88DD
:10124000BB873B88FB8700233B8636E0BB8F01339F
:10125000BB87FB8F0133FB877B88BB82FB887B824C
:10126000FA887B889A4210D9BB8AFB8509E097F8F7
:101270005420F98FFB8D184601F0B6FBFB8D01332E
:10128000FB85FA8D7B8A9A42F1D97A8ABB8A9A4287
:1012900010D27B8ABB8509E097F85420B98FBB8DAB
:1012A000184601F0A1FBBB8D0133BB85BA8DBB8A0B
:1012B0009A42F1D93B8E01333B863A8EFB8A9A42A1
:1012C000C4D97B8E01337B867A8EFB8A9A42B0D951
:1012D00004E23A88BB88D31A184603F0C5FB0446DB
:1012E0007A88FB88D31A184603F0BEFB03461946DA
:1012F000204603F0C1FC0346FB6000237B85E8E148
:10130000FB880133FB807B8801337B80BB88BB87F4
:101310003B88FB8700233B85D3E1BB8F0133BB8731
:10132000FB8F0133FB87FA887B889A426DD2BA8F94
:10133000FB8F9A4269D24FF07E51F86803F090FD1E
:101340000346002B34D08E49F86803F093FD034622
:10135000002B2DD0FB88FB8425E0FA8CFB88D31A68
:10136000184603F081FB0346F968184603F0D0FBEA
:1013700003461C46BB8F184603F076FB034619460E
:10138000204603F0BDFA0346184603F087FD0346E6
:101390007B8197F854207989FB8C184601F024FB57
:1013A000FB8C0133FB84FA8C7B889A42D5D92CE0E4
:1013B000BB8FBB8425E0BA8CBB8FD31A184603F0D1
:1013C00053FB0346F968184603F056FC03461C46D7
:1013D000FB88184603F048FB03461946204603F0F5
:1013E0008FFA0346184603F059FD03463B8197F8F0
:1013F0005420B98C3B89184601F0F6FABB8C0133B6
:10140000BB84BA8CFB8F9A42D5D9FA887B889A42E2
:101410006DD9BA8FFB8F9A4269D24FF07E51F8682E
:1014200003F01EFD0346002B34D05549F86803F045
:1014300021FD0346002B2DD07B887B8425E07A8C10
:10144000FB88D31A184603F00FFB0346F9681846C9
:1014500003F05EFB03461C46BB8F184603F004FBFB
:1014600003461946204603F04BFA0346184603F09C
:1014700015FD03467B8197F8542079897B8C1846AB
:1014800001F0B2FA7B8C01337B847A8CFB889A4220
:10149000D5D92CE0BB8F3B8425E03A8CBB8FD31A87
:1014A000184603F0E1FA0346F968184603F0E4FB36
:1014B00003461C46FB88184603F0D6FA0346194635
:1014C000204603F01DFA0346184603F0E7FC0346E6
:1014D0003B8197F85420398C3B89184601F084FAF7
:1014E0003B8C01333B843A8CFB8F9A42D5D9FA88E6
:1014F0007B889A4270D9BA8FFB8F9A426CD94FF091
:101500007E51F86803F0ACFC0346002B34D01C4934
:10151000F86803F0AFFC0346002B2DD07B88FB83DB
:1015200025E0FA8BFB88D31A184603F09DFA034690
:10153000F968184603F0ECFA03461C46BB8F1846C0
:1015400003F092FA03461946204603F0D9F9034600
:10155000184603F0A3FC03467B8197F85420798951
:10156000FB8B184601F040FAFB8B0133FB83FA8BAF
:10157000FB889A42D5D92FE0FB8FBB8328E000BFC0
:10158000000080BFBA8BBB8FD31A184603F06CFAE9
:101590000346F968184603F06FFB03461C46FB88B8
:1015A000184603F061FA03461946204603F0A8F9ED
:1015B0000346184603F072FC03463B8197F854201B
:1015C000B98B3B89184601F00FFABB8B0133BB8303
:1015D000BA8BBB8F9A42D5D9FA887B889A426DD252
:1015E000BA8FFB8F9A4269D94FF07E51F86803F0A9
:1015F00037FC0346002B34D03B49F86803F03AFC33
:101600000346002B2DD0FB887B8325E07A8BFB885B
:10161000D31A184603F028FA0346F968184603F06F
:1016200077FA03461C46BB8F184603F01DFA0346A3
:101630001946204603F064F90346184603F02EFCD1
:1016400003467B8197F8542079897B8B184601F0FB
:10165000CBF97B8B01337B837A8B7B889A42D5D9FC
:101660002CE0FB8F3B8325E03A8BBB8FD31A1846C7
:1016700003F0FAF90346F968184603F0FDFA034649
:101680001C46FB88184603F0EFF90346194620462E
:1016900003F036F90346184603F000FC03463B818D
:1016A00097F85420398B3B89184601F09DF93B8B04
:1016B00001333B833A8BBB8F9A42D5D93B8D0133A3
:1016C0003B853A8DFB8A9A427FF627AE7B8D0133AC
:1016D0007B857A8DFB8A9A427FF612AE00231846EC
:1016E0004437BD4690BD00BF000080BFB0B588B094
:1016F00000AF0446084611461A462346FB800346BF
:10170000BB800B467B8013463B80FB88002B16D0AA
:10171000BB88002B13D07B88002B10D03B88002B7C
:101720000DD0FB88B3F5A07F09D2BB88EF2B06D87C
:101730007B88B3F5A07F02D83B88F02B01D9012329
:101740001BE27A883B889A420FD397F830309AB2DE
:1017500079883B88B1FBF3F39BB27988B1FBF3F353
:101760009BB29A4201D9022307E27A883B889A42C7
:101770000FD297F830309AB239887B88B1FBF3F3F7
:101780009BB23988B1FBF3F39BB29A4201D9022391
:10179000F3E197F83830002B1DD07A883B889A42C5
:1017A0000AD37A883B88B2FBF3F39BB27A88B2FB08
:1017B000F3F39BB287F830307A883B889A420AD29A
:1017C0003A887B88B2FBF3F39BB23A88B2FBF3F31F
:1017D0009BB287F830300023FB81C6E17B88013B58
:1017E0007B803B88013B3B800023BB81B6E197F8BF
:1017F0003030012B20D9BB89002B04D1FB88013B61
:101800007B82BB883B82BB89012B04D1FB887B8216
:10181000BB88013B3B82BB89022B04D1BB883B8246
:10182000FB8801337B82BB89032B0BD1FB887B8236
:10183000BB8801333B8205E0FB887B82BB883B820F
:101840000423BB810023FB613B88BB613A887B8812
:10185000798801FB03F3D31A3A8802FB03F27B88F1
:10186000798801FB03F3002B00DA03339B10134448
:101870007B6171E0FB699AB27B8A134498B2BB69C1
:101880009BB23A8AD31A9BB297F83420194601F0DA
:10189000ABF8FB699BB27A8AD31A98B2BB699AB249
:1018A0003B8A13449BB297F83420194601F09CF808
:1018B000FB699AB27B8A134498B2BB699AB23B8A9D
:1018C00013449BB297F83420194601F08DF8FB6958
:1018D0009BB27A8AD31A98B2BB699BB23A8AD31A5E
:1018E0009BB297F83420194601F07EF87B69002BF3
:1018F00013DAFB690133FB613B885B003A8802FB2A
:1019000003F3FA6902FB03F27B691A443B883988C6
:1019100001FB03F313447B611EE0FB690133FB61B0
:10192000BB69013BBB613B885B003A8802FB03F368
:10193000FA6902FB03F23B88398801FB03F31A447E
:101940007B691A447B885B00798801FB03F3B969E2
:1019500001FB03F3D31A7B61FB695B003A8802FB4E
:1019600003F33A8802FB03F2BB695B00798801FB51
:1019700003F3798801FB03F39A42FFF67BAFF86922
:1019800003F072F80346184602F026FD4FF00002FD
:101990007C4B02F0C3FB03460C4625461C46F86907
:1019A00003F062F80346184602F016FD4FF00002FD
:1019B000744B02F0B3FB02460B462046294602F068
:1019C0005FFD03460C4625461C463B88184602F040
:1019D000F1FC02460B462046294602F051FD034623
:1019E0000C4625461C463B88184602F0E3FC02469E
:1019F0000B462046294602F043FD03460C46254689
:101A00001C46BB69013BBA69013A02FB03F37A88C1
:101A100002FB03F37A8802FB03F3184602F0CAFCC8
:101A200002460B462046294602F078FB03460C4648
:101A300025461C467B887A8802FB03F33A8802FB22
:101A400003F33A8802FB03F3184602F0B3FC0246A4
:101A50000B462046294602F05FFB03460C4618461B
:101A6000214602F01FFF03467B6171E0FB699AB2D9
:101A70007B8A134498B2BB699BB23A8AD31A9BB251
:101A800097F83420194600F0AFFFFB699BB27A8AC1
:101A9000D31A98B2BB699AB23B8A13449BB297F8A7
:101AA0003420194600F0A0FFFB699AB27B8A1344E8
:101AB00098B2BB699AB23B8A13449BB297F8342020
:101AC000194600F091FFFB699BB27A8AD31A98B24B
:101AD000BB699BB23A8AD31A9BB297F83420194655
:101AE00000F082FF7B69002B13DDBB69013BBB610A
:101AF0007B885B007A8802FB03F3BA6902FB03F37D
:101B00007A69D21A7B88798801FB03F313447B61DD
:101B10001EE0BB69013BBB61FB690133FB613B8894
:101B20005B003A8802FB03F3FA6902FB03F27B696C
:101B30001A447B885B00798801FB03F3B96901FBD8
:101B400003F3D21A7B88798801FB03F3D31A7B61F4
:101B5000BB69002B8ADABB890133BB81BB89032BAC
:101B60007FF645AEFB890133FB8197F830309BB29D
:101B7000FA899A42FFF432AE002318462037BD4658
:101B8000B0BD00BF0000E03F90B587B000AF044695
:101B9000084611461A462346FB800346BB800B4687
:101BA0007B8013463B807B88B3F5A07F02D2BB8845
:101BB000EF2B01D9012396E097F82820B9883B88BC
:101BC000CB1AD90F0B445B109A4201DD02238AE045
:101BD00097F83030002B13D197F828207988FB88AC
:101BE000CB1AD90F0B445B109A4209DA97F82820D8
:101BF000B9883B88CB1AD90F0B445B109A421DD190
:101C00003B88FB8214E0FB88BB8209E097F82C201C
:101C1000F98ABB8A184600F0E7FEBB8A0133BB8213
:101C2000BA8A7B8801339A42F0DBFB8A0133FB825C
:101C3000FA8ABB8801339A42E5DB53E00023FB7448
:101C40004BE0FB883B8218E0FB7C9AB23B88134454
:101C500099B297F82C203B8A184600F0C5FEFB7C11
:101C60009BB2BA88D31A99B297F82C203B8A1846AF
:101C700000F0BAFE3B8A01333B823A8A7B8801330B
:101C80009A42E1DB97F828309AB23B881344FB81F3
:101C900018E0FB7C9AB2FB8813449BB297F82C2087
:101CA000F989184600F0A0FEFB7C9BB27A88D31A13
:101CB0009BB297F82C20F989184600F095FEFB8915
:101CC0000133FB81FA89BB88591C97F82830CB1A5D
:101CD0009A42DEDBFB7C0133FB74FA7C97F82830F8
:101CE0009A42AED3002318461C37BD4690BD000073
:101CF000B0B5ADF5087D02AF05460C461046194655
:101D0000BB1D2A461A803B1D22461A80BB1C024678
:101D10001A803B460A461A80BB1D1B88B3F5A07F7C
:101D200015D8BB1C1B88B3F5A07F10D8B7F8283294
:101D3000B3F5A07F0BD83B1D1B88F02B07D83B4683
:101D40001B88F02B03D8B7F82C32F02B02D90123D3
:101D500000F045BE97F83032322B02D9022300F052
:101D60003EBE97F8383283F00103DBB2002B31D04E
:101D70003B461C88BB1C1A883B1D1988BB1D188854
:101D800097F834320193012300932346FFF7D0F9EB
:101D9000B7F82C42B7F828223B1D1988BB1D1888BC
:101DA00097F834320193012300932346FFF7C0F9DB
:101DB000B7F82C42B7F828223B461988BB1C188874
:101DC00097F834320193012300932346FFF7B0F9CB
:101DD00000F004BE07F108034FF4F072002118462A
:101DE00003F080F8002387F81732012387F80932BF
:101DF00000F085BD97F80932012B14D0022B23D0B7
:101E0000002B32D1BB1D1B88A7F814323B1D1B8849
:101E1000A7F81232BB1C1B88A7F810323B461B8860
:101E2000A7F80E3221E0BB1D1B88A7F814323B1D1A
:101E30001B88A7F81232B7F82832A7F81032B7F883
:101E40002C32A7F80E3210E0BB1C1B88A7F8143206
:101E50003B461B88A7F81232B7F82832A7F8103291
:101E6000B7F82C32A7F80E3200BFB7F81022B7F837
:101E700014329A4240F09880B7F81222B7F80E3226
:101E80009A4245D3B7F80E32A7F806323AE0B7F8CF
:101E9000063207F108025B0013445B789BB2B7F887
:101EA00010229A4208D3B7F8063207F108025B0005
:101EB00013445B78002B0AD1B7F80632B7F810222A
:101EC000D1B207F108025B0013440A465A70B7F812
:101ED000062207F10803013213F812309BB2B7F85B
:101EE00010229A4209D9B7F80622B7F81032D9B2AF
:101EF00007F10803013203F81210B7F80632013374
:101F0000A7F80632B7F80622B7F812329A42BED9BD
:101F1000B7F81222B7F80E329A4245D2B7F8123209
:101F2000A7F804323AE0B7F8043207F108025B0080
:101F300013445B789BB2B7F810229A4208D3B7F8E3
:101F4000043207F108025B0013445B78002B0AD1CE
:101F5000B7F80432B7F81022D1B207F108025B00DB
:101F600013440A465A70B7F8042207F108030132F5
:101F700013F812309BB2B7F810229A4209D9B7F879
:101F80000422B7F81032D9B207F10803013203F87E
:101F90001210B7F804320133A7F80432B7F804225C
:101FA000B7F80E329A42BED9B7F80E22B7F81232FD
:101FB0009A4240F0B280B7F81422B7F810329A4231
:101FC00051D9B7F81032A7F8023246E0B7F802222A
:101FD000B7F80E3207F1080152000A44134497F88B
:101FE00009221A70B7F80E3207F108025B00134499
:101FF0005B789BB2B7F802229A4208D3B7F80E3248
:1020000007F108025B0013445B78002B0AD1B7F894
:102010000E32B7F80222D1B207F108025B00134476
:102020000A465A70B7F80E2207F10803013213F876
:1020300012309BB2B7F802229A4209D9B7F80E22A1
:10204000B7F80232D9B207F10803013203F81210CF
:10205000B7F802320133A7F80232B7F80222B7F814
:1020600014329A42B2D9B7F81422B7F810329A4211
:1020700080F04084B7F81432A7F8003246E0B7F891
:102080000022B7F8123207F1080152000A44134443
:1020900097F809221A70B7F8123207F108025B00AC
:1020A00013445B789BB2B7F800229A4208D3B7F882
:1020B000123207F108025B0013445B78002B0AD14F
:1020C000B7F81232B7F80022D1B207F108025B006C
:1020D00013440A465A70B7F8122207F10803013276
:1020E00013F812309BB2B7F800229A4209D9B7F818
:1020F0001222B7F80032D9B207F10803013203F80F
:102100001210B7F800320133A7F80032B7F80022F6
:10211000B7F810329A42B2D9ECE3B7F80E22B7F80A
:102120001232D31A184602F09FFC0446B7F8102268
:10213000B7F81432D31A184602F096FC0346194633
:10214000204602F099FD0346C7F8E831B7F814229B
:10215000B7F810329A4280F0F380B7F81222B7F83D
:102160000E329A4280F0EC804FF07E51D7F8E801B1
:1021700002F076FE0346002B6FD0B749D7F8E8018E
:1021800002F078FE0346002B67D0B7F81432A7F8A8
:10219000FE315BE0B7F8FE21B7F81432D31A1846C7
:1021A00002F062FC0346D7F8E811184602F0B0FCD2
:1021B00003461C46B7F81232184602F055FC034697
:1021C0001946204602F09CFB0346184602F066FEC4
:1021D0000346A7F80C32B7F80C3207F108025B008F
:1021E00013445B789BB2B7F8FE219A4208D3B7F844
:1021F0000C3207F108025B0013445B78002B0AD114
:10220000B7F80C32B7F8FE21D1B207F108025B0033
:1022100013440A465A70B7F80C2207F1080301323A
:1022200013F812309BB2B7F8FE219A4209D9B7F8D9
:102230000C22B7F8FE31D9B207F10803013203F8D6
:102240001210B7F8FE310133A7F8FE31B7F8FE21BE
:10225000B7F810329A429DD972E0B7F81232A7F857
:10226000FC3167E0B7F8FC21B7F81232D31A1846F0
:1022700002F0FAFB0346D7F8E811184602F0FCFC1E
:1022800003461C46B7F81432184602F0EDFB03462D
:102290001946204602F034FB0346184602F0FEFDC4
:1022A0000346A7F80A32B7F80A22B7F8FC3107F15B
:1022B000080152000A44134497F809221A70B7F82B
:1022C000FC3107F108025B0013445B789BB2B7F85E
:1022D0000A229A4208D3B7F8FC3107F108025B00E2
:1022E00013445B78002B0AD1B7F8FC31B7F80A2207
:1022F000D1B207F108025B0013440A465A70B7F8DE
:10230000FC2107F10803013213F812309BB2B7F831
:102310000A229A4209D9B7F8FC21B7F80A32D9B291
:1023200007F10803013203F81210B7F8FC3101334A
:10233000A7F8FC31B7F8FC21B7F80E329A4291D9D0
:10234000B7F81422B7F810329A4240F2F580B7F885
:102350001222B7F80E329A4280F0EE804FF07E5192
:10236000D7F8E80102F07CFD0346002B6FD03A4914
:10237000D7F8E80102F07EFD0346002B67D0B7F8DE
:102380001032A7F8FA315BE0B7F8FA21B7F8143247
:10239000D31A184602F068FB0346D7F8E81118462E
:1023A00002F0B6FB03461C46B7F81232184602F09C
:1023B0005BFB03461946204602F0A2FA0346184684
:1023C00002F06CFD0346A7F80C32B7F80C3207F1A7
:1023D00008025B0013445B789BB2B7F8FA219A427B
:1023E00008D3B7F80C3207F108025B0013445B789E
:1023F000002B0AD1B7F80C32B7F8FA21D1B207F1A5
:1024000008025B0013440A465A70B7F80C2207F121
:102410000803013213F812309BB2B7F8FA219A423E
:1024200009D9B7F80C22B7F8FA31D9B207F1080385
:10243000013203F81210B7F8FA310133A7F8FA3174
:10244000B7F8FA21B7F814329A429DD974E0B7F878
:102450001232A7F8F83169E0000080BFB7F8F82120
:10246000B7F81232D31A184602F0FEFA0346D7F82C
:10247000E811184602F000FC03461C46B7F8143277
:10248000184602F0F1FA03461946204602F038FADF
:102490000346184602F002FD0346A7F80A32B7F8D1
:1024A0000A22B7F8F83107F1080152000A44134430
:1024B00097F809221A70B7F8F83107F108025B00A3
:1024C00013445B789BB2B7F80A229A4208D3B7F854
:1024D000F83107F108025B0013445B78002B0AD146
:1024E000B7F8F831B7F80A22D1B207F108025B0059
:1024F00013440A465A70B7F8F82107F1080301326D
:1025000013F812309BB2B7F80A229A4209D9B7F8E9
:10251000F821B7F80A32D9B207F10803013203F8FB
:102520001210B7F8F8310133A7F8F831B7F8F821ED
:10253000B7F80E329A4291D9B7F81422B7F8103290
:102540009A4240F2E780B7F81222B7F80E329A4268
:1025500040F2E0804FF07E51D7F8E80102F080FCB5
:102560000346002B6FD0B149D7F8E80102F082FC96
:102570000346002B67D0B7F81032A7F8F6315BE0BE
:10258000B7F8F621B7F81432D31A184602F06CFAED
:102590000346D7F8E811184602F0BAFA03461C467B
:1025A000B7F81232184602F05FFA03461946204681
:1025B00002F0A6F90346184602F070FC0346A7F89D
:1025C0000C32B7F80C3207F108025B0013445B7859
:1025D0009BB2B7F8F6219A4208D3B7F80C3207F14C
:1025E00008025B0013445B78002B0AD1B7F80C3269
:1025F000B7F8F621D1B207F108025B0013440A468E
:102600005A70B7F80C2207F10803013213F81230A0
:102610009BB2B7F8F6219A4209D9B7F80C22B7F85D
:10262000F631D9B207F10803013203F81210B7F8F6
:10263000F6310133A7F8F631B7F8F621B7F81432BE
:102640009A429DD966E0B7F80E32A7F8F4315BE004
:10265000B7F8F421B7F81232D31A184602F004FA88
:102660000346D7F8E811184602F006FB03461C465D
:10267000B7F81432184602F0F7F903461946204617
:1026800002F03EF90346184602F008FC0346A7F89C
:102690000A32B7F8F43107F108025B0013445B78A3
:1026A0009BB2B7F80A229A4208D3B7F8F43107F17F
:1026B00008025B0013445B78002B0AD1B7F8F431B1
:1026C000B7F80A22D1B207F108025B0013440A46A8
:1026D0005A70B7F8F42107F10803013213F81230E9
:1026E0009BB2B7F80A229A4209D9B7F8F421B7F891
:1026F0000A32D9B207F10803013203F81210B7F811
:10270000F4310133A7F8F431B7F8F421B7F81232F5
:102710009A429DD9B7F81422B7F810329A4280F045
:10272000E980B7F81222B7F80E329A4240F2E280FE
:102730004FF07E51D7F8E80102F092FB0346002BE0
:102740006FD03A49D7F8E80102F094FB0346002B1A
:1027500067D0B7F81432A7F8F2315BE0B7F8F2218E
:10276000B7F81432D31A184602F07EF90346D7F8A8
:10277000E811184602F0CCF903461C46B7F81232AD
:10278000184602F071F903461946204602F0B8F8DF
:102790000346184602F082FB0346A7F80C32B7F84E
:1027A0000C3207F108025B0013445B789BB2B7F868
:1027B000F2219A4208D3B7F80C3207F108025B0005
:1027C00013445B78002B0AD1B7F80C32B7F8F2212A
:1027D000D1B207F108025B0013440A465A70B7F8F9
:1027E0000C2207F10803013213F812309BB2B7F83C
:1027F000F2219A4209D9B7F80C22B7F8F231D9B2CE
:1028000007F10803013203F81210B7F8F23101336F
:10281000A7F8F231B7F8F221B7F810329A429DD9F1
:1028200068E0B7F80E32A7F8F0315DE0000080BF35
:10283000B7F8F021B7F81232D31A184602F014F99B
:102840000346D7F8E811184602F016FA03461C466C
:10285000B7F81432184602F007F903461946204625
:1028600002F04EF80346184602F018FB0346A7F89C
:102870000A32B7F8F03107F108025B0013445B78C5
:102880009BB2B7F80A229A4208D3B7F8F03107F1A1
:1028900008025B0013445B78002B0AD1B7F8F031D3
:1028A000B7F80A22D1B207F108025B0013440A46C6
:1028B0005A70B7F8F02107F10803013213F812300B
:1028C0009BB2B7F80A229A4209D9B7F8F021B7F8B3
:1028D0000A32D9B207F10803013203F81210B7F82F
:1028E000F0310133A7F8F031B7F8F021B7F8123220
:1028F0009A429DD997F80932013387F8093297F83F
:102900000932032B7FF676AA0023A7F80C3261E088
:102910000023A7F80A3250E0012387F8EF3143E0A3
:10292000B7F80A22B7F80C3207F1080152000A443E
:1029300013441B7897F8EF219A420CD197F8EF31A6
:1029400087F8173297F83422B7F80C12B7F80A3222
:10295000184600F049F897F81732002B08D097F87E
:102960003422B7F80C12B7F80A32184600F03CF8D7
:10297000B7F80A22B7F80C3207F1080152000A44EE
:1029800013441B7897F8EF219A4208D197F8EF216A
:1029900097F817329A4202D0002387F8173297F837
:1029A000EF31013387F8EF3197F8EF31032BB7D9C7
:1029B000B7F80A320133A7F80A32B7F80A32B3F58A
:1029C000A07FA9D3002387F81732B7F80C32013360
:1029D000A7F80C32B7F80C32EF2B99D90023184620
:1029E00007F50677BD46B0BD80B483B000AF03469F
:1029F000FB800B46BB801346FB70FB88B3F5A07FC2
:102A00000FD2BB88EF2B0CD8BA8813469B00134417
:102A10009B011A44FB8813440549FA78CA540023E1
:102A200000E0012318460C37BD4680BC704700BF4C
:102A30002006002080B584B000AF03463A60FB80DA
:102A40000B46BB80FB883A6812881344B3F5A07F1D
:102A500002DABB88EF2B01D9012331E03B68002B60
:102A600001D103232CE00023FB603B685B88BA881C
:102A7000D31A9BB201337B811CE0FB883B810FE0C2
:102A80003A68FB68134404331A7879893B891846FD
:102A9000FFF7AAFFFB680133FB603B8901333B81F1
:102AA0003A89FB88396809880B449A42E8DB7B89BC
:102AB00001337B817A89BB8801339A42DDDB0023B5
:102AC00018461037BD4680BD80B584B000AF0346C0
:102AD000FB710023FB8112E00023BB8108E0FA793F
:102AE000F989BB891846FFF77FFFBB890133BB819A
:102AF000BB89B3F5A07FF2D3FB890133FB81FB894E
:102B0000EF2BE9D9002318461037BD4680BD0000E1
:102B100080B485B000AF0346FB800023FB81FB88B7
:102B20001B01FB8007E0094B1B88B3F5FA7F02D13C
:102B3000FB890133FB81FA89FB889A42F3D3002396
:102B400018461437BD4680BC704700BF14060020ED
:102B500080B485B000AF0346FB71FB79203B5E2B50
:102B600000F2D98101A252F823F000BFE92C00083D
:102B7000EF2C0008F52C0008FB2C0008012D0008A4
:102B8000072D00080D2D0008172F0008132D000831
:102B9000192D00081F2D0008252D00082B2D0008D9
:102BA000312D0008372D00083D2D0008432D000869
:102BB000492D00084F2D0008552D00085B2D0008F9
:102BC000612D0008672D00086D2D0008732D000889
:102BD000792D00087F2D0008852D00088B2D000819
:102BE000912D0008972D00089D2D0008A32D0008A9
:102BF000A92D0008AF2D0008B52D0008BB2D000839
:102C0000C12D0008C72D0008CD2D0008D32D0008C8
:102C1000D92D0008DF2D0008E52D0008EB2D000858
:102C2000F12D0008F72D0008FD2D0008032E0008E7
:102C3000092E00080F2E0008152E00081B2E000874
:102C4000212E0008272E00082D2E0008332E000804
:102C5000392E00083F2E0008452E0008172F0008C7
:102C60004B2E0008512E0008572E00085D2E00083C
:102C7000632E0008692E00086F2E0008752E0008CC
:102C80007B2E0008812E0008872E00088D2E00085C
:102C9000932E0008992E00089F2E0008A52E0008EC
:102CA000AB2E0008B12E0008B72E0008BD2E00087C
:102CB000C32E0008C92E0008CF2E0008D52E00080C
:102CC000DB2E0008E12E0008E72E0008ED2E00089C
:102CD000F32E0008F92E0008FF2E0008052F00082B
:102CE0000B2F0008112F00080023FB7313E10123B1
:102CF000FB7310E10223FB730DE10323FB730AE175
:102D00000423FB7307E10523FB7304E10623FB7334
:102D100001E10823FB73FEE00923FB73FBE00A23B8
:102D2000FB73F8E00B23FB73F5E00C23FB73F2E07D
:102D30000D23FB73EFE00E23FB73ECE00F23FB731B
:102D4000E9E01023FB73E6E01123FB73E3E01223B9
:102D5000FB73E0E01323FB73DDE01423FB73DAE085
:102D60001523FB73D7E01623FB73D4E01723FB7303
:102D7000D1E01823FB73CEE01923FB73CBE01A23B9
:102D8000FB73C8E01B23FB73C5E01C23FB73C2E08D
:102D90001D23FB73BFE01E23FB73BCE01F23FB73EB
:102DA000B9E02023FB73B6E02123FB73B3E02223B9
:102DB000FB73B0E02323FB73ADE02423FB73AAE095
:102DC0002523FB73A7E02623FB73A4E02723FB73D3
:102DD000A1E02823FB739EE02923FB739BE02A23B9
:102DE000FB7398E02B23FB7395E02C23FB7392E09D
:102DF0002D23FB738FE02E23FB738CE02F23FB73BB
:102E000089E03023FB7386E03123FB7383E03223B8
:102E1000FB7380E03323FB737DE03423FB737AE0A4
:102E20003523FB7377E03623FB7374E03723FB73A2
:102E300071E03823FB736EE03923FB736BE03A23B8
:102E4000FB7368E03B23FB7365E03D23FB7362E0AB
:102E50003E23FB735FE03F23FB735CE04023FB7387
:102E600059E04123FB7356E04223FB7353E04323B5
:102E7000FB7350E04423FB734DE04523FB734AE0B2
:102E80004623FB7347E04723FB7344E04823FB736F
:102E900041E04923FB733EE04A23FB733BE04B23B5
:102EA000FB7338E04C23FB7335E04D23FB7332E0BA
:102EB0004E23FB732FE04F23FB732CE05023FB7357
:102EC00029E05123FB7326E05223FB7323E05323B5
:102ED000FB7320E05423FB731DE05523FB731AE0C2
:102EE0005623FB7317E05723FB7314E05823FB733F
:102EF00011E05923FB730EE05A23FB730BE05B23B5
:102F0000FB7308E05C23FB7305E05D23FB7302E0C9
:102F10005E23FB7300BFFB7B18461437BD4680BCA5
:102F2000704700BF80B489B000AF78600023BB61F8
:102F300000237B610023FB6102233B610023FB60D4
:102F40000223BB60474B9B6803F00C03BB61BB696A
:102F5000042B07D0082B09D0002B3DD17B68424AB7
:102F60001A603DE07B68414A1A6039E03D4B5B687E
:102F70009B0D03F00103FB603A4B5B6803F03F03DA
:102F8000BB60FB68002B0CD0384ABB68B2FBF3F384
:102F9000344A52689209C2F3080202FB03F3FB6150
:102FA0000BE0314ABB68B2FBF3F32E4A5268920938
:102FB000C2F3080202FB03F3FB612A4B5B681B0CA4
:102FC00003F0030301335B003B61FA693B69B2FB29
:102FD000F3F27B681A6003E07B68234A1A6000BF43
:102FE000204B9B6803F0F003BB61BB691B09BB610D
:102FF0001F4ABB6913441B78DBB27B617B681A688C
:103000007B69DA407B685A60164B9B6803F4E05397
:10301000BB61BB699B0ABB61154ABB6913441B7842
:10302000DBB27B617B685A687B69DA407B689A60B7
:103030000C4B9B6803F46043BB61BB695B0BBB61DA
:103040000B4ABB6913441B78DBB27B617B685A680F
:103050007B69DA407B68DA6000BF2437BD4680BCFC
:10306000704700BF003802400024F40000127A00CC
:103070000000002080B483B000AF78600B46FB7086
:10308000FB78002B06D00949084B1A6B7B68134369
:103090000B6306E00549054B1A6B7B68DB43134065
:1030A0000B6300BF0C37BD4680BC70470038024040
:1030B00080B483B000AF78600B46FB70FB78002BC8
:1030C00006D00949084B1A6C7B6813430B6406E071
:1030D0000549054B1A6C7B68DB4313400B6400BF4A
:1030E0000C37BD4680BC70470038024080B483B0C6
:1030F00000AF78600B46FB70FB78002B06D00949C7
:10310000084B5A6C7B6813434B6406E00549054B3A
:103110005A6C7B68DB4313404B6400BF0C37BD46E1
:1031200080BC70470038024080B487B000AF786040
:10313000396000237B6100233B610023FB60002397
:103140007B6176E001227B6902FA03F33B613B6815
:103150001A683B691340FB60FA683B699A4265D183
:103160007B681A687B695B00032101FA03F3DB4388
:103170001A407B681A607B681A683B681B7919469D
:103180007B695B0001FA03F31A437B681A603B68B2
:103190001B79012B03D03B681B79022B2ED17B6856
:1031A0009A687B695B00032101FA03F3DB431A4051
:1031B0007B689A607B689A683B685B7919467B6993
:1031C0005B0001FA03F31A437B689A607B685A68D4
:1031D0007B699BB2194601238B40DB431A407B6815
:1031E0005A607B685B683A68927911467A6992B254
:1031F00001FA02F292B21A437B685A607B68DA687D
:103200007B699BB25B00032101FA03F3DB431A40A5
:103210007B68DA607B68DA683B68DB7919467B6932
:103220005B0001FA03F31A437B68DA607B690133C0
:103230007B617B690F2B85D900BF1C37BD4680BCE5
:10324000704780B485B000AF78600B467B80134632
:103250007B700023FB600023BB607A787B8803F0DF
:1032600007039B0002FA03F3FB607B88DB089BB239
:1032700018467B88DB089BB21A467B68083253F8F5
:1032800022207B8803F007039B000F2101FA03F340
:10329000DB4302EA03017B6800F1080243F82210D5
:1032A0007B88DB089BB21A467B68083253F82220E1
:1032B000FB681343BB607B88DB089BB21A467B68C4
:1032C0000832B96843F8221000BF1437BD4680BCED
:1032D0007047000080B500AF124A124B1B6843F0E4
:1032E000010313600F4B00229A600E4A0D4B1B68BE
:1032F00023F0847323F4803313600A4B0A4A5A6024
:10330000084A084B1B6823F480231360054B0022F6
:10331000DA6000F00DF8054B4FF000629A6000BFD4
:1033200080BD00BF003802401030002400ED00E0F6
:1033300080B483B000AF00237B6000233B60354A3C
:10334000344B1B6843F480331360324B1B6803F427
:1033500000333B607B6801337B603B68002B03D10B
:103360007B68B3F5A06FF0D12A4B1B6803F40033E0
:10337000002B02D001233B6001E000233B603B684F
:10338000012B42D1234A234B1B6C43F0805313641F
:10339000214A214B1B6843F4804313601D4A1D4B97
:1033A0009B6893601B4A1B4B9B6843F400439360EC
:1033B000184A184B9B6843F4A0539360154B174A67
:1033C0005A60144A134B1B6843F08073136000BFAC
:1033D000104B1B6803F00073002BF9D0104B40F228
:1033E00005621A600B4A0B4B9B6823F00303936042
:1033F000084A084B9B6843F00203936000BF054BEB
:103400009B6803F00C03082BF9D100BF0C37BD46B5
:1034100080BC7047003802400070004008544007EC
:10342000003C024080B483B000AF78607B681B68CA
:1034300023F001027B681A607B6800221A607B68B7
:1034400000225A607B6800229A607B680022DA6062
:103450007B6800221A617B6821225A617B68454A99
:10346000934203D1444B3D229A607EE07B68434AFD
:10347000934204D1404B4FF474629A6075E07B68CC
:103480003F4A934204D13C4B4FF474129A606CE073
:103490007B683C4A934204D1374B4FF074629A6088
:1034A00063E07B68384A934203D1334B374ADA6092
:1034B0005BE07B68364A934203D12F4B354ADA6092
:1034C00053E07B68344A934203D12B4B334ADA6092
:1034D0004BE07B68324A934204D1274B4FF03D5278
:1034E000DA6042E07B682F4A934203D12E4B3D22A3
:1034F0009A603AE07B682D4A934204D12A4B4FF4FC
:1035000074629A6031E07B68294A934204D1264B69
:103510004FF474129A6028E07B68264A934204D1E3
:10352000214B4FF074629A601FE07B68224A9342FD
:1035300003D11D4B154ADA6017E07B681F4A93429E
:1035400003D1194B134ADA600FE07B681C4A93429F
:1035500003D1154B114ADA6007E07B68194A9342A0
:1035600003D1114B4FF03D52DA6000BF0C37BD461E
:1035700080BC70471060024000600240286002403A
:103580004060024058600240706002403D000020F0
:1035900088600240400F0020A060024000003D20F3
:1035A000B860024010640240006402402864024097
:1035B00040640240586402407064024088640240E3
:1035C000A0640240B864024080B485B000AF786067
:1035D00039600023FB607B681B68FB60FA68244B42
:1035E0001340FB603B681A683B68DB681A433B6822
:1035F0005B691A433B689B691A433B68DB691A4362
:103600003B681B6A1A433B685B6A1A433B689B6AC8
:103610001A433B685B6B1A433B689B6B1343FA6826
:103620001343FB607B68FA681A607B685B69FB6028
:10363000FB6823F00703FB603B68DA6A3B681B6B9F
:103640001343FA681343FB607B68FA685A613B686E
:103650001A697B685A603B685A687B689A603B6865
:103660009A687B68DA6000BF1437BD4680BC70473B
:103670003F801CF080B483B000AF78600B46FB70D5
:10368000FB78002B06D07B681B6843F001027B6847
:103690001A6005E07B681B6823F001027B681A60F2
:1036A00000BF0C37BD4680BC704780B485B000AF0A
:1036B000F860B9601346FB71BB6803F08003002B10
:1036C0000FD0FB79002B06D0FB685B6943F08002CA
:1036D000FB685A6105E0FB685B6923F08002FB68C8
:1036E0005A61BB68802B14D0FB79002B08D0FB6893
:1036F0001A68BB6803F01E031A43FB681A6008E0EF
:10370000FB681A68BB6803F01E03DB431A40FB68C2
:103710001A6000BF1437BD4680BC704780B487B0C4
:1037200000AF786039600023FB750023FB60002345
:10373000BB607B68214A934202D8214B3B6101E088
:10374000204B3B613B6823F0F02323F0C313002B95
:103750000AD03B68DB0A03F01E03FB607B681A6833
:10376000FB681340BB6004E07B685B6903F0800387
:10377000BB603B6803F00053002B03D03B695B68E0
:10378000FB6002E03B691B68FB60FB6823F0F023F1
:1037900023F08213FB60FA683B681340002B05D0CE
:1037A000BB68002B02D00123FB7501E00023FB75F1
:1037B000FB7D18461C37BD4680BC70470F64024035
:1037C000006002400064024080B485B000AF7860C1
:1037D00039607B68104A934202D8104BFB6001E0CD
:1037E0000F4BFB603B6803F00053002B07D03B6896
:1037F00023F0F02323F08213FA68D36006E03B68DD
:1038000023F0F02323F08213FA68936000BF14378B
:10381000BD4680BC704700BF0F640240006002409C
:103820000064024080B582B000AF1B4B00221A80BA
:10383000194B00225A60184B00229A600023BB806B
:1038400017E00023FB800DE0BA8813469B00134469
:103850009B011A44FB881344104A0021D154FB8871
:103860000133FB80FB88B3F5A07FEDD9BB88013322
:10387000BB80BB88EF2BE4D900F014F800F066F8A9
:1038800000F0F6F800F0C8F8054B1B68024A936098
:1038900000BF0837BD4680BD14060020200600206A
:1038A0008864024080B582B000AF01211020FFF78C
:1038B000E1FB4FF47F433B6001233B710023BB716D
:1038C0000123FB7103237B713B4619461D48FFF71B
:1038D0002BFC1C4B4FF47F425A8301210220FFF73F
:1038E000C9FB4FF400633B6002233B7103237B71F0
:1038F0000023BB710123FB713B4619461248FFF7B9
:1039000013FC01220B211048FFF79BFC0121022030
:10391000FFF7B0FB4FF480533B6001233B71002362
:10392000BB710123FB7103237B713B46194606489B
:10393000FFF7FAFB044B4FF480521A8300BF08379D
:10394000BD4680BD001002400004024080B588B032
:1039500000AF01210120FFF7C9FB0B23BB6100234E
:10396000BB820023BB830023FB8207F114031946AB
:10397000284800F0ABF901210120FFF799FB40F640
:103980006B23BB610023BB820023BB830023FB822C
:1039900007F1140319464FF0804000F097F96023B7
:1039A0003B8001237B804FF4D273BB600223BB8139
:1039B0003B4619464FF0804000F030FA08214FF0A6
:1039C000804000F017FB60233B8001237B804FF495
:1039D000A073BB600223BB813B4619464FF0804079
:1039E00000F0A2FA08214FF0804000F01EFB0121F8
:1039F000084800F0D5F901214FF0804000F0D0F9DF
:103A000001214FF0804000F0EAF900BF2037BD46A9
:103A100080BD00BF0000014080B582B000AF012230
:103A200010211248FFF741FE44233B7100237B71B4
:103A30000023BB710123FB713B1D184600F0E4F825
:103A4000012208214FF0804000F00CFB1C233B7149
:103A500000237B710023BB710123FB713B1D1846C2
:103A600000F0D2F800BF0837BD4680BD8864024030
:103A700080B590B000AF01214FF48000FFF7FAFA53
:103A800000211B48FFF7F6FD1948FFF7CBFC4FF06C
:103A900040637B60174BBB60174BFB6040233B616F
:103AA00040F241137B610023BB614FF48063FB61F3
:103AB00000233B6200237B620023BB624FF4403350
:103AC000FB6200233B6301237B630023BB63002372
:103AD000FB633B1D19460648FFF776FD01224FF4B4
:103AE0008071064800F0F1FA00BF4037BD4680BD46
:103AF00088640240151002402006002000000140AA
:103B000080B500AF08214FF0804000F0CEFA264B80
:103B10001B8801339AB2244B1A80234B1B88B3F5C0
:103B2000037F05D9204B00221A80204A1E4B5A6081
:103B30001D4B1B88012B04D81D4B4FF480525A8318
:103B400003E01B4B4FF480521A83174B1B88232B27
:103B500027D9154B1B8840F20222934221D8154ADF
:103B6000114B9B681360134A0F4B5B68D360124A7A
:103B7000114B1B889BB243F001039BB213800D4A8B
:103B80000C4B1B6843F001031360074B1B8803F0C9
:103B90000103002B05D0044B5B6803F24113024A7A
:103BA000536000BF80BD00BF140600202006002027
:103BB00000040240886402400000014080B500AF6C
:103BC0000D490E48FFF7AAFD0346002B12D00A4903
:103BD0000A48FFF7F9FD0A4A094B1B889BB223F0FC
:103BE00001039BB21380054B00221A60054B4FF472
:103BF0007F425A8300BF80BD008800208864024055
:103C0000000001400010024080B485B000AF786031
:103C10000023FB730023BB730F237B737B68DB786C
:103C2000002B39D0274BDB68DB431B0ADBB203F0E8
:103C30000703FB73FB7BC3F10403BB737A7BFB7B42
:103C400042FA03F37B737B685B781A46BB7B02FA0C
:103C500003F3FB737B689A787B7B1340DAB2FB7BC0
:103C60001343FB73FB7B1B01FB73174A7B681B78B9
:103C70001344FA7B83F80023134A7B681B785B09A3
:103C8000DBB218467B681B7803F01F03012101FAA1
:103C900003F342F820300FE00B497B681B785B0987
:103CA000DBB218467B681B7803F01F0301229A40A1
:103CB00000F1200341F8232000BF1437BD4680BC2B
:103CC000704700BF00ED00E000E100E080B485B087
:103CD00000AF786039600023FB817B681B88FB8123
:103CE0007B68284A934213D07B68274A93420FD0BF
:103CF0007B68B3F1804F0BD07B68244A934207D096
:103D00007B68234A934203D07B68224A934208D1BE
:103D1000FB8923F07003FB813B685A88FB891343BE
:103D2000FB817B681C4A93420CD07B681B4A934200
:103D300008D0FB8923F44073FB813B681A89FB8917
:103D40001343FB817B68FA891A803B685A687B6859
:103D5000DA623B681A887B681A857B68094A934255
:103D600003D07B68084A934204D13B689B7A9AB29D
:103D70007B681A867B6801229A8200BF1437BD4691
:103D800080BC704700000140000401400004004076
:103D900000080040000C00400010004000140040EB
:103DA00080B483B000AF78600B46FB70FB78002BCB
:103DB00008D07B681B889BB243F080039AB27B6873
:103DC0001A8007E07B681B889BB223F080039AB2BD
:103DD0007B681A8000BF0C37BD4680BC704780B43A
:103DE00083B000AF78600B46FB70FB78002B08D0E7
:103DF0007B681B889BB243F001039AB27B681A80F0
:103E000007E07B681B889BB223F001039AB27B68B2
:103E10001A8000BF0C37BD4680BC704780B485B0A7
:103E200000AF7860396000237B810023FB81002391
:103E3000BB817B681B8C9BB223F480739AB27B6836
:103E40001A847B681B8CFB817B689B88BB817B68A9
:103E50009B8B7B817B8923F070037B817B8923F0A3
:103E600003037B813B681A887B8913437B81FB8931
:103E700023F40073FB813B689B891B029AB2FB8988
:103E80001343FB813B685B881B029AB2FB89134397
:103E9000FB817B68224A934203D07B68214A93428C
:103EA0002BD1FB8923F40063FB813B68DB891B0278
:103EB0009AB2FB891343FB81FB8923F48063FB8166
:103EC0003B689B881B029AB2FB891343FB81BB8929
:103ED00023F48053BB81BB8923F40053BB813B682F
:103EE0001B8A1B019AB2BB891343BB813B685B8A67
:103EF0001B019AB2BB891343BB817B68BA899A8044
:103F00007B687A899A833B689A687B68DA637B6806
:103F1000FA891A8400BF1437BD4680BC704700BFC1
:103F2000000001400004014080B485B000AF78601B
:103F300039600023BB8100237B810023FB817B68E8
:103F40001B8C9BB223F480539AB27B681A847B68E3
:103F50001B8C7B817B689B88FB817B689B8BBB81F7
:103F6000BB8923F4E043BB81BB8923F44073BB814D
:103F70003B681B881B029AB2BB891343BB817B89B8
:103F800023F400537B813B689B891B039AB27B8996
:103F900013437B813B685B881B039AB27B89134385
:103FA0007B817B68114A934203D07B68104A93421D
:103FB0000AD1FB8923F48043FB813B681B8A9B0168
:103FC0009AB2FB891343FB817B68FA899A807B68EC
:103FD000BA899A833B689A687B681A647B687A8995
:103FE0001A8400BF1437BD4680BC704700000140F2
:103FF0000004014080B485B000AF78600B467B8040
:104000000023FB817B689B8BFB81FB8923F00803EA
:10401000FB81FA897B881343FB817B68FA899A8349
:1040200000BF1437BD4680BC704780B485B000AF78
:1040300078600B467B800023FB817B689B8BFB8138
:10404000FB8923F40063FB817B881B029AB2FB8906
:104050001343FB817B68FA899A8300BF1437BD46FE
:1040600080BC704780B483B000AF78600B467B8023
:1040700013467B707B78002B08D07B689B899AB2B3
:104080007B8813439AB27B689A8109E07B689B899D
:104090009AB27B88DB439BB213409AB27B689A81C9
:1040A00000BF0C37BD4680BC704780B483B000AF02
:1040B00078600B467B807B88DB439AB27B681A82F0
:1040C00000BF0C37BD4680BC704780B483B000AFE2
:1040D00078600B467B8013467B707B78002B08D082
:1040E0007B689B899AB27B8813439AB27B689A81DA
:1040F00009E07B689B899AB27B88DB439BB21340C3
:104100009AB27B689A8100BF0C37BD4680BC70476D
:1041100081F0004102E000BF83F0004330B54FEA78
:1041200041044FEA430594EA050F08BF90EA020FE5
:104130001FBF54EA000C55EA020C7FEA645C7FEA78
:10414000655C00F0E2804FEA5454D4EB5555B8BF9B
:104150006D420CDD2C4480EA020281EA030382EA0C
:10416000000083EA010180EA020281EA0303362D9E
:1041700088BF30BD11F0004F4FEA01314FF4801C71
:104180004CEA113102D0404261EB410113F0004F83
:104190004FEA03334CEA133302D0524263EB43033A
:1041A00094EA050F00F0A780A4F10104D5F1200ED8
:1041B0000DDB02FA0EFC22FA05F2801841F1000133
:1041C00003FA0EF2801843FA05F359410EE0A5F107
:1041D00020050EF1200E012A03FA0EFC28BF4CF038
:1041E000020C43FA05F3C01851EBE37101F00045EE
:1041F00007D54FF0000EDCF1000C7EEB00006EEBFB
:104200000101B1F5801F1BD3B1F5001F0CD3490884
:104210005FEA30004FEA3C0C04F101044FEA4452DB
:1042200012F5800F80F09A80BCF1004F08BF5FEA62
:10423000500C50F1000041EB045141EA050130BD42
:104240005FEA4C0C404141EB010111F4801FA4F1E5
:104250000104E9D191F0000F04BF01460020B1FA3A
:1042600081F308BF2033A3F10B03B3F120020CDA72
:104270000C3208DD02F1140CC2F10C0201FA0CF050
:1042800021FA02F10CE002F11402D8BFC2F1200CB5
:1042900001FA02F120FA0CFCDCBF41EA0C0190406B
:1042A000E41AA2BF01EB0451294330BD6FEA0404B4
:1042B0001F3C1CDA0C340EDC04F11404C4F120029F
:1042C00020FA04F001FA02F340EA030021FA04F3B1
:1042D00045EA030130BDC4F10C04C4F1200220FA08
:1042E00002F001FA04F340EA0300294630BD21FA46
:1042F00004F0294630BD94F0000F83F4801306BF0C
:1043000081F480110134013D4EE77FEA645C18BFFF
:104310007FEA655C29D094EA050F08BF90EA020F96
:1043200005D054EA000C04BF1946104630BD91EA8E
:10433000030F1EBF0021002030BD5FEA545C05D191
:104340004000494128BF41F0004130BD14F58004D0
:104350003CBF01F5801130BD01F0004545F0FE4144
:1043600041F470014FF0000030BD7FEA645C1ABF79
:10437000194610467FEA655C1CBF0B46024650EAB0
:10438000013406BF52EA033591EA030F41F40021DC
:1043900030BD00BF90F0000F04BF0021704730B562
:1043A0004FF4806404F132044FF000054FF0000137
:1043B00050E700BF90F0000F04BF0021704730B5F8
:1043C0004FF4806404F1320410F0004548BF4042CD
:1043D0004FF000013EE700BF42004FEAE2014FEA22
:1043E00031014FEA02701FBF12F07F4393F07F4FFD
:1043F00081F06051704792F0000F14BF93F07F4F2F
:10440000704730B54FF4607401F0004521F0004171
:1044100020E700BF50EA010208BF704730B54FF0F7
:1044200000050AE050EA010208BF704730B511F0FC
:10443000004502D5404261EB41014FF4806404F134
:1044400032045FEA915C3FF4DCAE4FF003025FEAB6
:10445000DC0C18BF03325FEADC0C18BF033202EB3E
:10446000DC02C2F1200300FA03FC20FA02F001FA98
:1044700003FE40EA0E0021FA02F11444C1E600BF37
:1044800070B54FF0FF0C4CF4E06C1CEA11541DBFEA
:104490001CEA135594EA0C0F95EA0C0F00F0DEF8B5
:1044A0002C4481EA030621EA4C5123EA4C5350EA9A
:1044B000013518BF52EA033541F4801143F48013EB
:1044C00038D0A0FB02CE4FF00005E1FB02E506F07C
:1044D0000042E0FB03E54FF00006E1FB03569CF0D1
:1044E000000F18BF4EF0010EA4F1FF04B6F5007FD7
:1044F00064F5407404D25FEA4E0E6D4146EB060649
:1045000042EAC62141EA55514FEAC52040EA5E50D1
:104510004FEACE2EB4F1FD0C88BFBCF5E06F1ED87B
:10452000BEF1004F08BF5FEA500E50F1000041EBB2
:10453000045170BD06F0004646EA010140EA02005F
:1045400081EA0301B4EB5C04C2BFD4EB0C0541EA81
:10455000045170BD41F480114FF0000E013C00F396
:10456000AB8014F1360FDEBF002001F0004170BDBA
:10457000C4F10004203C35DA0C341BDC04F11404D3
:10458000C4F1200500FA05F320FA04F001FA05F25F
:1045900040EA020001F0004221F0004110EBD3702C
:1045A00021FA04F642EB06015EEA430E08BF20EA58
:1045B000D37070BDC4F10C04C4F1200500FA04F3FB
:1045C00020FA05F001FA04F240EA020001F000418D
:1045D00010EBD37041F100015EEA430E08BF20EA00
:1045E000D37070BDC4F1200500FA05F24EEA020E48
:1045F00020FA04F301FA05F243EA020321FA04F077
:1046000001F0004121FA04F220EA020000EBD3702D
:104610005EEA430E08BF20EAD37070BD94F0000F2D
:104620000FD101F00046400041EB010111F4801F61
:1046300008BF013CF7D041EA060195F0000F18BF12
:10464000704703F00046520043EB030313F4801F4E
:1046500008BF013DF7D043EA0603704794EA0C0F08
:104660000CEA135518BF95EA0C0F0CD050EA41061E
:1046700018BF52EA4306D1D181EA030101F000419B
:104680004FF0000070BD50EA410606BF10461946C3
:1046900052EA430619D094EA0C0F02D150EA0136CF
:1046A00013D195EA0C0F05D152EA03361CBF104610
:1046B00019460AD181EA030101F0004141F0FE41AF
:1046C00041F470014FF0000070BD41F0FE4141F433
:1046D000780170BD70B54FF0FF0C4CF4E06C1CEA33
:1046E00011541DBF1CEA135594EA0C0F95EA0C0FE8
:1046F00000F0A7F8A4EB050481EA030E52EA0335A3
:104700004FEA013100F088804FEA03334FF08055C3
:1047100045EA131343EA12634FEA022245EA1115F0
:1047200045EA10654FEA00260EF000419D4208BFA1
:10473000964244F1FD0404F5407402D25B084FEA4E
:104740003202B61A65EB03055B084FEA32024FF4FA
:1047500080104FF4002CB6EB020E75EB030E22BF57
:10476000B61A754640EA0C005B084FEA3202B6EB17
:10477000020E75EB030E22BFB61A754640EA5C00C6
:104780005B084FEA3202B6EB020E75EB030E22BF56
:10479000B61A754640EA9C005B084FEA3202B6EB57
:1047A000020E75EB030E22BFB61A754640EADC0016
:1047B00055EA060E18D04FEA051545EA16754FEA78
:1047C00006164FEAC30343EA52734FEAC2025FEA96
:1047D0001C1CC0D111F4801F0BD141EA00014FF025
:1047E00000004FF0004CB6E711F4801F04BF0143F6
:1047F0000020B4F1FD0C88BFBCF5E06F3FF6AFAE12
:10480000B5EB030C04BFB6EB020C5FEA500C50F1A1
:10481000000041EB045170BD0EF0004E4EEA113124
:1048200014EB5C04C2BFD4EB0C0541EA045170BD2B
:1048300041F480114FF0000E013C90E645EA060E6F
:104840008DE60CEA135594EA0C0F08BF95EA0C0F9D
:104850003FF43BAF94EA0C0F0AD150EA01347FF4E5
:1048600034AF95EA0C0F7FF425AF104619462CE7BC
:1048700095EA0C0F06D152EA03353FF4FDAE10461F
:10488000194622E750EA410618BF52EA43067FF470
:10489000C5AE50EA41047FF40DAF52EA43057FF400
:1048A000EBAE12E74FEA410212F5001215D211D514
:1048B0006FF47873B3EB625212D94FEAC12343F01D
:1048C000004343EA505311F0004F23FA02F018BF9F
:1048D000404270474FF00000704750EA013005D168
:1048E00011F0004008BF6FF0004070474FF000002B
:1048F000704700BF80F0004002E000BF81F000413F
:1049000042001FBF5FEA410392EA030F7FEA226C75
:104910007FEA236C6AD04FEA1262D2EB1363C1BF05
:10492000D218414048404140B8BF5B42192B88BF74
:10493000704710F0004F40F4000020F07F4018BF97
:10494000404211F0004F41F4000121F07F4118BFB7
:10495000494292EA030F3FD0A2F1010241FA03FC5F
:1049600010EB0C00C3F1200301FA03F100F0004347
:1049700002D5494260EB4000B0F5000F13D3B0F10F
:10498000807F06D340084FEA310102F10102FE2A7E
:1049900051D2B1F1004F40EBC25008BF20F00100EE
:1049A00040EA03007047490040EB000010F4000F9C
:1049B000A2F10102EDD1B0FA80FCACF1080CB2EB2F
:1049C0000C0200FA0CF0AABF00EBC250524218438E
:1049D000BCBFD0401843704792F0000F81F4000133
:1049E00006BF80F400000132013BB5E74FEA410306
:1049F0007FEA226C18BF7FEA236C21D092EA030F72
:104A000004D092F0000F08BF0846704790EA010FEB
:104A10001CBF0020704712F07F4F04D1400028BF18
:104A200040F00040704712F100723CBF00F50000FA
:104A3000704700F0004343F0FE4040F40000704730
:104A40007FEA226216BF08467FEA236301464202DC
:104A500006BF5FEA412390EA010F40F480007047EF
:104A60004FF0000304E000BF10F0004348BF404295
:104A70005FEA000C08BF704743F0964301464FF0D1
:104A800000001CE050EA010208BF70474FF000032D
:104A90000AE000BF50EA010208BF704711F000436E
:104AA00002D5404261EB41015FEA010C02BF84463E
:104AB0000146002043F0B64308BFA3F18053A3F59D
:104AC0000003BCFA8CF2083AA3EBC25310DB01FAE4
:104AD00002FC634400FA02FCC2F12002BCF1004F68
:104AE00020FA02F243EB020008BF20F001007047F9
:104AF00002F1200201FA02FCC2F1200250EA4C004D
:104B000021FA02F243EB020008BF20EADC70704792
:104B10004FF0FF0C1CEAD0521EBF1CEAD15392EAA0
:104B20000C0F93EA0C0F6FD01A4480EA010C40027C
:104B300018BF5FEA41211ED04FF0006343EA5010D6
:104B400043EA5111A0FB01310CF00040B1F5000F18
:104B50003EBF490041EAD3715B0040EA010062F1C7
:104B60007F02FD2A1DD8B3F1004F40EBC25008BFB1
:104B700020F00100704790F0000F0CF0004C08BFCF
:104B800049024CEA502040EA51207F3AC2BFD2F19C
:104B9000FF0340EAC250704740F400004FF00003AA
:104BA000013A5DDC12F1190FDCBF00F000407047E4
:104BB000C2F10002410021FA02F1C2F1200200FA22
:104BC00002FC5FEA310040F1000053EA4C0308BFE9
:104BD00020EADC70704792F0000F00F0004C02BF3A
:104BE000400010F4000F013AF9D040EA0C0093F0B5
:104BF000000F01F0004C02BF490011F4000F013B0F
:104C0000F9D041EA0C018FE70CEAD15392EA0C0F7C
:104C100018BF93EA0C0F0AD030F0004C18BF31F0E7
:104C2000004CD8D180EA010000F00040704790F0BD
:104C3000000F17BF90F0004F084691F0000F91F061
:104C4000004F14D092EA0C0F01D142020FD193EA27
:104C50000C0F03D14B0218BF084608D180EA0100AF
:104C600000F0004040F0FE4040F40000704740F08B
:104C7000FE4040F4400070474FF0FF0C1CEAD05259
:104C80001EBF1CEAD15392EA0C0F93EA0C0F69D0B5
:104C9000A2EB030280EA010C49024FEA402037D020
:104CA0004FF0805343EA111143EA10130CF0004017
:104CB0008B4238BF5B0042F17D024FF4000C8B4207
:104CC00024BF5B1A40EA0C00B3EB510F24BFA3EBE7
:104CD000510340EA5C00B3EB910F24BFA3EB9103B7
:104CE00040EA9C00B3EBD10F24BFA3EBD10340EA11
:104CF000DC001B0118BF5FEA1C1CE0D1FD2A3FF657
:104D000050AF8B4240EBC25008BF20F0010070470B
:104D10000CF0004C4CEA50207F32C2BFD2F1FF03AE
:104D200040EAC250704740F400004FF00003013ADF
:104D300037E792F0000F00F0004C02BF400010F483
:104D4000000F013AF9D040EA0C0093F0000F01F097
:104D5000004C02BF490011F4000F013BF9D041EAB9
:104D60000C0195E70CEAD15392EA0C0F08D14202EC
:104D70007FF47DAF93EA0C0F7FF470AF084676E7BF
:104D800093EA0C0F04D14B023FF44CAF08466EE798
:104D900030F0004C18BF31F0004CCAD130F0004266
:104DA0007FF45CAF31F000437FF43CAF5FE700BFBE
:104DB0004FF0FF3C06E000BF4FF0010C02E000BFE7
:104DC0004FF0010C4DF804CD4FEA40024FEA410389
:104DD0007FEA226C18BF7FEA236C11D001B052EA3F
:104DE000530C18BF90EA010F58BFB2EB030088BF05
:104DF000C81738BF6FEAE17018BF40F00100704774
:104E00007FEA226C02D15FEA402C05D17FEA236C55
:104E1000E4D15FEA412CE1D05DF8040B704700BF9C
:104E2000844608466146FFE70FB5FFF7C9FF002833
:104E300048BF10F1000F0FBD4DF808EDFFF7F4FF6C
:104E40000CBF012000205DF808FB00BF4DF808ED05
:104E5000FFF7EAFF34BF012000205DF808FB00BF28
:104E60004DF808EDFFF7E0FF94BF012000205DF84A
:104E700008FB00BF4DF808EDFFF7D2FF94BF0120FB
:104E800000205DF808FB00BF4DF808EDFFF7C8FFF4
:104E900034BF012000205DF808FB00BF42000ED2A5
:104EA000B2F1FE4F0BD34FF09E03B3EB126209D465
:104EB0004FEA002343F0004323FA02F070474FF01B
:104EC0000000704712F1610F01D1420202D14FF090
:104ED000FF3070474FF00000704700BF0A220021EA
:104EE00000F0D0BA70B4860746D0541E002A41D0D4
:104EF000CAB2034602E014F1FF343BD303F8012B9E
:104F00009D07F8D1032C2ED9CDB245EA05250F2CEB
:104F100045EA054519D903F110022646103E0F2E29
:104F200042F8105C42F80C5C42F8085C42F8045C01
:104F300002F11002F2D8A4F1100222F00F0204F0E4
:104F40000F041032032C13440DD91E462246043A96
:104F5000032A46F8045BFAD8221F22F00302043227
:104F6000134404F003042CB1C9B21C4403F8011B20
:104F70009C42FBD170BC704714460346C2E700BF99
:104F8000A2EB0300704700BF02780B78012A28BF0C
:104F90009A42F5D16DE9044540EA0104CDE9026782
:104FA0006FF0000C4FEA447212B380EA010414F06F
:104FB000070F6AD100F0070420F0070004F0030592
:104FC00021F007014FEAC505F0E8042314F0040FAF
:104FD000F1E804670CFA05F462EA040266EA0406E2
:104FE0000AD063EA0403624667EA0407664603E000
:104FF000F0E80423F1E8046782FA4CF582EA06043B
:10500000A4FA8CF46CBB83FA4CF583EA0705A5FA85
:105010008CF595B950E9022351E9026782FA4CF503
:1050200082EA0604A4FA8CF483FA4CF583EA0705B5
:10503000A5FA8CF52543DBD09CB92DBAB5FA85F4D9
:1050400024F0070427FA04F1DDE9026723FA04F3E8
:1050500003F0FF0001F0FF01FDE80445A0EB0100B3
:10506000704724BAB4FA84F424F0070426FA04F151
:10507000DDE9026722FA04F202F0FF0001F0FF010D
:10508000FDE80445A0EB0100704714F0030F3CD18C
:1050900010F0030428D150F8082B51F8083B82FA8D
:1050A0004CF582EA0305A5FA8CF55DB950F8042C9D
:1050B00051F8043C82FA4CF582EA0305A5FA8CF516
:1050C000002DE8D02DBAB5FA85F424F0070423FAB0
:1050D00004F122FA04F202F0FF0001F0FF01FDE802
:1050E0000445A0EB010070474FEAC40420F0030020
:1050F00050F8082B21F0030151F8083B0CFA04F496
:1051000062EA040263EA0403C9E710F003041AD058
:10511000A1EB040120F00300E40750F8042B06D0B3
:105120000FD28B785FFAA2F4E41A06D12BB1CB78B8
:105130005FFAB2F4E41A00D11BB920465DF8104BB7
:10514000704701F1040150F8042BCC0721F0030152
:1051500051F8043B48D824D222F07F4482FA4CF51F
:1051600094EA1325A5FA8CF50AD165B951F8043BE8
:1051700084EA0204B4EB036F0ED150F8042BEBE782
:105180004FEA132355E035F07F454DD10878FDE80F
:105190000445C0F1000070474FEA126203F0FF03BC
:1051A00047E002EA1C4482FA4CF594EA1345A5FA5A
:1051B0008CF50AD165B951F8043B84EA0204B4EBDA
:1051C000034F0CD150F8042BEBE74FEA134330E0C8
:1051D00015EA1C4528D10B884FEA124229E04FEA14
:1051E000124203EA1C4324E002F0FF0482FA4CF569
:1051F00094EA1365A5FA8CF50AD165B951F8043B18
:1052000084EA0204B4EB032F09D150F8042BEBE736
:105210004FEA13630DE015F0FF0F05D10B684FEA5D
:10522000122223F07F4304E04FF00000FDE8044524
:10523000704712BA1BBA82FA4CF482EA0304A4FA49
:105240008CF5B5FA85F402FA04F203FA04F34FEA96
:105250001260FDE80445A0EB1360704700000000F9
:10526000000000000000000000000000000000003E
:10527000000000000000000000000000000000002E
:1052800090F800F06DE9024520F007016FF0000C86
:1052900010F0070491F820F040F049804FF000042E
:1052A0006FF00700D1E9002391F840F000F1080009
:1052B00082FA4CF2A4FA8CF283FA4CF3A2FA8CF341
:1052C0004BBBD1E9022382FA4CF200F10800A4FAA8
:1052D0008CF283FA4CF3A2FA8CF3E3B9D1E90423FC
:1052E00082FA4CF200F10800A4FA8CF283FA4CF333
:1052F000A2FA8CF37BB9D1E9062301F1200182FAED
:105300004CF200F10800A4FA8CF283FA4CF3A2FAF2
:105310008CF3002BC6D0002A04BF04301A4612BA00
:10532000B2FA82F2FDE8024500EBD2007047D1E903
:10533000002304F00305C4F100004FEAC50514F092
:10534000040F91F840F00CFA05F562EA05021CBF63
:1053500063EA050362464FF00004A9E72DE9F84F20
:10536000DDF828900F46804616461D468A4600E026
:10537000A2465446484614F801BB00F099F8584438
:10538000427812F00802F3D1BBF12D0F4FD0BBF1E0
:105390002B0F04BF94F800B00AF102041DB1102DC8
:1053A00056D0AC4604E0BBF1300F60D00A25AC46C5
:1053B000002A0CBF6FF000494FF000490021B9FBF3
:1053C000FCFE08460CFB1E9A05E029D00CFB0030C1
:1053D000012114F801BBABF13003092B05D9ABF166
:1053E0004103192B0BD8ABF137039D420FDDB1F10F
:1053F000FF3FEED08645E8D24FF0FF31E9E7ABF151
:105400006103192B03D8ABF157039D42EFDC4B1C12
:1054100013D002B1404246B1C1B93760BDE8F88F40
:105420009A45D3DA4FF0FF31D3E7BDE8F88F94F80F
:1054300000B001220AF10204B0E72223C8F80030CC
:10544000EEB1671E48463760BDE8F88F8146F8E741
:10545000BBF1300FA5D1237803F0DF03582BA0D187
:105460004FF0100C94F801B065460234A0E72378A1
:1054700003F0DF03582BF3D00825AC4698E74846E5
:10548000BDE8F88F30B5084C084B25686C6B83B0CD
:10549000002C08BF1C46009413460A4601462846C5
:1054A000FFF75CFF03B030BD100000204004002077
:1054B000D0F8EC00704700BF82B049B15AB16BB16F
:1054C00013780B601278101C18BF012002B07047CF
:1054D00001A9002AF3D1104602B070476FF0010015
:1054E000F4E700BF21B1FF2A04D80A7001207047F9
:1054F000084670478A2303604FF0FF30704700BFB3
:1055000073756363657373210A0000004552524F3F
:105510005231202D20636F6F7264696E6174656E05
:105520002062756974656E2073636865726D210A07
:10553000000000004552524F5232202D2074652049
:1055400067726F746520706172616D657465722138
:105550000A0000004552524F5233202D20666F75CD
:10556000746965766520706172616D65746572211C
:105570000A0000005647412064656D6F204A6F7332
:105580002D4E69656C732D54696A6D656E202863B4
:1055900029323031370A000040004000000000008E
:1055A00000000000000000000000000000000000FB
:1055B0000000000000004448686C8C8C8C8C6C6887
:1055C000484400000000000000000000000000004F
:1055D00000000000000000000000000000000000CB
:1055E00000000000000000000000000000000000BB
:1055F00000004468B1D5F9F9F9F9F9F9F9F9F9F9BF
:10560000F9F9D5B168440000000000000000000076
:10561000000000000000000000000000000000008A
:10562000000000000000000000000000000000007A
:1056300068B1F9F9F9F9F9F9F9F9F9F9F9F9F9F9B3
:10564000F9F9F9F9F9F9B16800000000000000006B
:10565000000000000000000000000000000000004A
:1056600000000000000000000000000000448CD595
:10567000F9F9F9F9F9F9F9F9F9F9F9F9F9F9F9F99A
:10568000F9F9F9F9F9F9F9F9F58C4400000000008D
:10569000000000000000000000000000000000000A
:1056A0000000000000000000000000006CF5F9F9A7
:1056B000F9F9F9F9F9F9F9F9F9F9F9F9F9F9F9F95A
:1056C000F9F9F9F9F9F9F9F9F9F9F56C00000000BF
:1056D00000000000000000000000000000000000CA
:1056E0000000000000000000000048D5F9F9F9F9B9
:1056F000F9F9F9F9F9F9F9F9F9F9F9F9F9F9F9F91A
:10570000F9F9F9F9F9F9F9F9F9F9F9F9D5480000D0
:105710000000000000000000000000000000000089
:105720000000000000000000008CF9F9F9F9F9F917
:10573000F9F9F9F9F9F9F9F9F9F9F9F9F9F9F9F9D9
:10574000F9F9F9F9F9F9F9F9F9F9F9F9F9F98C002F
:105750000000000000000000000000000000000049
:105760000000000000000044B1F9F9F9F9F9F9F975
:10577000F9F9F9F9F9F9F9F9F9F9F9F9F9F9F9F999
:10578000F9F9F9F9F9F9F9F9F9F9F9F9F9F9F9B1D1
:1057900044000000000000000000000000000000C5
:1057A00000000000000044D5F9F9F9F9F9F9F9F918
:1057B000F9F9F9F9F9F9F9F9F9F9F9F9F9F9F9F959
:1057C000F9F9F9F9F9F9F9F9F9F9F9F9F9F9F9F949
:1057D000D5440000000000000000000000000000B0
:1057E000000000000044F5F9F9F9F9F9F9F9F9F9BF
:1057F000F9F9F9F9F9F9F9F9F9F9F9F9F9F9F9F919
:10580000F9F9F9F9F9F9F9F9F9F9F9F9F9F9F9F908
:10581000F9F5440000000000000000000000000056
:105820000000000044F5F9F9F9F9F9F9F9F9F9F985
:10583000F9F9F9F9F9F9F9F9F9F9F9F9F9F9F9F9D8
:10584000F9F9F9F9F9F9F9F9F9F9F9F9F9F9F9F9C8
:10585000F9F9F5440000000000000000000000001D
:1058600000000044D5F9F9F9F9F9F9F9F9F9F9F96C
:10587000F9F9F9F9F9F9F9F9F9F9F9F9F9F9F9F998
:10588000F9F9F9F9F9F9F9F9F9F9F9F9F9F9F9F988
:10589000F9F9F9D544000000000000000000000004
:1058A000000000B1F9F9F9F9F9F9F9F9F9F9F9F99B
:1058B000F9F9F9F9F9F9F9F9F9F9F9F9F9F9F9F958
:1058C000F9F9F9F9F9F9F9F9F9F9F9F9F9F9F9F948
:1058D000F9F9F9F9B1000000000000000000000033
:1058E00000008CF9F9F9F9F9F9F9F9F9F9F9F9F987
:1058F000F9F9F9F9F9F9F9F9F9F9F9F9F9F9F9F918
:10590000F9F9F9F9F9F9F9F9F9F9F9F9F9F9F9F907
:10591000F9F9F9F9F98C000000000000000000001E
:105920000048F9F9F9F9F9F9F9F9F9F9F9F9F9F991
:10593000F9F9F9F9F9F9F9F9F9F9F9F9F9F9F9F9D7
:10594000F9F9F9F9F9F9F9F9F9F9F9F9F9F9F9F9C7
:10595000F9F9F9F9F9F94800000000000000000029
:1059600000D5F9F9F9F9F9F9F9F9F9F9F9F9F9F9C4
:10597000F9F9F9F9F9F9F9F9F9F9F9F9F9F9F9F997
:10598000F9F9F9F9F9F9F9F9F9F9F9F9F9F9F9F987
:10599000F9F9F9F9F9F9D50000000000000000005C
:1059A0006CF9F9F9F9F9F9F9F9F9F9F9F9F9F9F9F4
:1059B000F9F9F9F9F9F9F9F9F9F9F9F9F9F9F9F957
:1059C000F9F9F9F9F9F9F9F9F9F9F9F9F9F9F9F947
:1059D000F9F9F9F9F9F9F98C000000000000004428
:1059E000F5F9F9F9F9F9F9F9F9F9F9F9F9F9F9F92B
:1059F000F9F9F9F9F9F9F9F9F9F9F9F9F9F9F9F917
:105A0000F9F9F9F9F9F9F9F9F9F9F9F9F9F9F9F906
:105A1000F9F9F9F9F9F9F9F5440000000000008CF2
:105A2000F9F9F9F9F9F9F9F9F9F9F9F9F9F9F9F9E6
:105A3000F9F9F9F9F9F9F9F9F9F9F9F9F9F9F9F9D6
:105A4000F9F9F9F9F9F9F9F9F9F9F9F9F9F9F9F9C6
:105A5000F9F9F9F9F9F9F9F98C000000000000D51D
:105A6000F9F9F9F9F9F9F9F9F9F9F9F9F9F9F9F9A6
:105A7000F9F9F9F9F9F9F9F9F9F9F9F9F9F9F9F996
:105A8000F9F9F9F9F9F9F9F9F9F9F9F9F9F9F9F986
:105A9000F9F9F9F9F9F9F9F9D5000000000068F908
:105AA000F9F9F9F9F9F9F9F9F9F9F9F9F9F9D5D5AE
:105AB000D5D5F9F9F9F9F9F9F9F9F9F9F9F9F9F99E
:105AC000F9F9F9F9F9F9D5D5D5D5F9F9F9F9F9F9D6
:105AD000F9F9F9F9F9F9F9F9F96800000000B1F9F3
